:020000040001F9
:10900000383E0020C1930100C9930100CB930100B9
:10901000CD930100CF930100D19301000000000027
:10902000000000000000000000000000D3930100D9
:10903000D593010000000000D7930100D9930100EF
:10904000D3A10100DB93010001AB0100DB93010020
:1090500039A6010000000000DB930100F1A401002B
:10906000DB93010049AA0100DB930100DB930100BF
:10907000DB930100DB930100DB930100DB93010034
:109080000DAB010015A20100DB930100DB93010091
:109090008DA60100DB93010091A60100DB93010086
:1090A000DB930100DB9301000000000000000000E2
:1090B000E1A10100DB9301000000000000000000BE
:1090C00000000000000000000000000000000000A0
:1090D0000000000000000000000000000000000090
:1090E0000000000000000000000000000000000080
:1090F0000000000000000000000000000000000070
:10910000000000000000000000000000000000005F
:10911000000000000000000000000000000000004F
:10912000000000000000000000000000000000003F
:10913000000000000000000000000000000000002F
:10914000000000000000000000000000000000001F
:10915000000000000000000000000000000000000F
:1091600000000000000000000000000000000000FF
:1091700000000000000000000000000000000000EF
:1091800000000000000000000000000000000000DF
:1091900000000000000000000000000000000000CF
:1091A00000000000000000000000000000000000BF
:1091B00000000000000000000000000000000000AF
:1091C000000000000000000000000000000000009F
:1091D000000000000000000000000000000000008F
:1091E000000000000000000000000000000000007F
:1091F000000000000000000000000000000000006F
:10920000DFF80CD000F020FB00480047B1D7010088
:10921000383E002030B450E8012F93B2C489234473
:109220008489A34228BF1B1B0489A34202BFBFF34A
:109230002F8F002007E0C3EA020340E80134002C2E
:10924000E9D14FF001000A6030BC704750E8012FAF
:10925000C2EA024240E801210029F7D1704730B448
:1092600050E8022F1FFAA2F3C488A34202BFBFF343
:109270002F8F00200DE0C48923448489A34228BF96
:109280001B1BC2EA034340E80234002CE8D14FF034
:1092900001000A6030BC704750E8022FC2EA224247
:1092A00040E802210029F7D17047034653E8022F16
:1092B000D988B2EB324F4FF0000017BF92B241EAAB
:1092C000014142EA014104E05A68B2EB324F08BF63
:1092D000012043E80212002AE8D1704730B4044666
:1092E00054E8000F0D4644E80053002BF8D11560F8
:1092F00030BC704730B4044654E8000F40EA010522
:1093000044E80053002BF7D1156030BC704730B4EF
:10931000044654E8000F00EA010544E80053002B1E
:10932000F7D1156030BC704730B4044654E8000FE4
:1093300080EA010544E80053002BF7D1156030BCEA
:10934000704730B4044654E8000F00EB010544E8D0
:109350000053002BF7D1156030BC704730B4044681
:1093600054E8000FA0EB010544E80053002BF7D1AF
:10937000156030BC704770B404464FF0000054E8EC
:10938000006F0D68AE4207BF44E80023012044E8A7
:1093900000630E60002B1CBF0020F0E770BC70471C
:1093A00030B4044654E8000F88422CBF451A0546E5
:1093B00044E80053002BF5D1156030BC7047000025
:1093C0000648804706480047FEE7FEE7FEE7FEE75F
:1093D000FEE7FEE7FEE7FEE7FEE7FEE78DA80100F9
:1093E000019201002DE9F05F0546002092469B4660
:1093F00088460646814640241BE0284641464746AB
:10940000224600F020F853465A46C01A914110D324
:1094100011461846224600F073F92D1A67EB010831
:109420004F4622460120002100F06AF917EB00099F
:109430004E41201EA4F10104DFDC484631462A4695
:109440004346BDE8F09F202A04DB203A21FA02F0CF
:109450000021704721FA02F3D040C2F1200291406E
:1094600008431946704740EA01039B0703D009E00F
:1094700008C9121F08C0042AFAD203E011F8013B00
:1094800000F8013B521EF9D27047D2B201E000F859
:10949000012B491EFBD270470022F6E710B5134698
:1094A0000A4604461946FFF7F0FF204610BD421C4D
:1094B00010F8011B0029FBD1801A704780EA0102D5
:1094C00010B502F00043400022D04A001FD0010E28
:1094D00001EB1261C0F35600C2F3560240F40000E3
:1094E00042F40002A0FB022000047F39140400D0E3
:1094F000401C50EA124001D44000491EC2B20C0682
:1095000004EBD010401C4008802A02D003E0002069
:1095100010BD20F00100002900DA0020184310BD22
:1095200030B480EA010202F0004530F0004221F040
:10953000004013D090B1C30DD40DC2F31601C0F397
:109540001600E41A41F4000140F400027D34914217
:1095500001D3641C00E04900002C02DA30BC00207A
:1095600070474FF400000023914201D3891A03434E
:1095700040084FEA4101F7D151B1914202D14FF079
:10958000004105E002D24FF0010101E06FF001015E
:1095900003EBC450284430BC00F0C1B82DE9F04DB5
:1095A00081EA030404F0004B21F0004514464FF01B
:1095B000000A23F0004150EA050220D054EA0102DB
:1095C0001DD0C5F30A570246C5F31303C1F31300B8
:1095D000C1F30A5640F4801543F48013A7EB060844
:1095E000101BD64608F2FD3873EB050002D308F1D4
:1095F000010801E092185B41B8F1000F03DA002086
:109600000146BDE8F08D00204FF4801106468446E7
:109610000EE0171B73EB050705D3121B63EB050365
:1096200006434CEA010C49084FEA300092185B41AE
:1096300050EA0107EDD152EA030012D082EA040099
:1096400083EA0501084305D0101BAB4106D2012275
:10965000002306E000224FF0004302E06FF0010219
:1096600053101AEB06004CEB085110EB0A0041EBCB
:109670000B01BDE8F04D00F089B8C10F80EAE07041
:109680000844CA079623002100F052B80EB540F2F4
:10969000334102910021CDE900110A460B4600F04A
:1096A00084F803B000BD20F00040C10DC0F31600E7
:1096B00040F400007F2901DA00207047962903DC7E
:1096C000C1F19601C8407047963988407047C1F390
:1096D0000A5210B5C1F3130140F2FF3341F4801177
:1096E0009A4201DA002010BD40F233439A42A2F2BE
:1096F000334203DC5242FFF7A6FE10BD904010BD7E
:10970000202A04DB203A00FA02F100207047914041
:10971000C2F1200320FA03F3194390407047002957
:10972000A8BF7047401C490008BF20F001007047E7
:1097300010B4B0FA80FC00FA0CF050EA010404BF47
:1097400010BC704749B1CCF1200421FA04F411FA9D
:109750000CF118BF012121430843A3EB0C01CB1DE1
:109760004FEA00614FEA102042BF002010BC704752
:1097700000EBC35010440029A4BF10BC7047401C2C
:10978000490008BF20F0010010BC704710B5141E3E
:1097900073F1000408DA401C41F1000192185B41AA
:1097A0001A4301D120F0010010BD2DE9F04D924681
:1097B0009B4611B1B1FA81F202E0B0FA80F2203298
:1097C0009046FFF79DFF04460F4640EA0A0041EA33
:1097D0000B0153465A46084313D0114653EA010081
:1097E00019D0C8F140025046FFF72DFE05460E463F
:1097F000504659464246FFF783FF084305D00120F3
:1098000004E020463946BDE8F08D0020054346EAD5
:10981000E0762C4337430A986305E40AA0EB08007E
:109820000022FD0A44EA47540A3002D500200146CE
:10983000E9E7010510196941DDE9084500196941A9
:10984000BDE8F04DA2E70000064C074D06E0E068D9
:1098500040F0010394E8070098471034AC42F6D377
:10986000FFF7D2FCF8090200180A020070B58C1844
:1098700010F8015B15F0070301D110F8013B2A1124
:1098800006D110F8012B03E010F8016B01F8016B11
:109890005B1EF9D12B0705D40023521E0DD401F80D
:1098A000013BFAE710F8013BCB1A921C03E013F8D6
:1098B000015B01F8015B521EF9D5A142D8D300200B
:1098C00070BD0000074910B580235A00A1F11400B3
:1098D00000F05DFBBDE81040034A0121034801F0A0
:1098E000DFB90000882E00203DAE0100A80602006E
:1098F00070B5A0B00C460546164680216846FFF7B5
:10990000CBFD002C1DD02978601E814219D1012C7D
:1099100017D06878A41E062815D08DF800008DF8A1
:109920000160A2B2ADF80220A91C01A8FFF79BFDBF
:1099300001226946064800F034FB002801D000F0FF
:1099400077FF20B070BDA1B2A81C03F049F9F8E779
:10995000742E002006488178002908D101218170E9
:10996000044800224FF4A471006801F0D5B9704793
:10997000802B0020A806020005488178002905D028
:10998000002181700348006801F00ABA70470000A6
:10999000802B0020A80602000148007870470000D4
:1099A0007C2B002001484088704700007C2B002061
:1099B00010B50B4A01210B4801F072F908B101F012
:1099C00063F9084800224FF4B401006801F0A4F9DB
:1099D00008B101F059F9BDE8104001F0FBBA0000F0
:1099E000A1B0010078060200034800780A2801D8D7
:1099F00001207047002070477C2B002001484078F0
:109A000070470000082B002030B587B001F0C2FF7E
:109A100008B101F039F904F0BBFD08B101F034F9E7
:109A2000002469460120009404F002FD08B101F011
:109A30002BF9684604F048FD08B101F025F900F063
:109A40001BF99DF8080020F0FF008DF8080000F0D9
:109A500085F8054600F07EF801462A4602A87CDF1C
:109A600008B101F011F900942820ADF80000502051
:109A70000194ADF80200ADF804404FF4FA70ADF86F
:109A8000060068467ADF08B101F0FEF81E491F485B
:109A900004F041F908B101F0F7F8F7211B4804F090
:109AA0002EF908B101F0F0F805F086FF1C21684698
:109AB000FFF7F2FC4FF42030CDE900404FF4702066
:109AC000029003208DF80C00114805901148069073
:109AD000ADF80E408DF81040684601F0CBFE08B19D
:109AE00001F0D2F801F076F801F0A8F80A4A012155
:109AF0000A4801F0D5F8002804D007B0BDE830408E
:109B000001F0C2B807B030BD0BD401004C2D0020CD
:109B100015F4010021CE01007DB1010074060200A0
:109B200010B5054A02F05CFA002804D1BDE81040E7
:109B3000014802F098BC10BD2C2B002013B504493D
:109B400001AA4B8801460248083002F004FD1CBD02
:109B5000082B0020004870475C3100200148807FBE
:109B6000704700005C310020014890F824007047E5
:109B70005C310020014890F8250070475C310020DE
:109B800010B5042308220C490C4800F000FA0C4AD6
:109B900001210C4801F084F808B101F075F809487A
:109BA000094A0021001F01F07BF8002803D0BDE81E
:109BB000104001F069B810BDB12B002048310020E1
:109BC0001DC70100B806020099C7010008B50022B0
:109BD00000920B4A12785242114210D002788DF84E
:109BE0000020491ECAB2411C8DF801200DF102006F
:109BF000FFF739FC01226946024800F0D2F908BD9E
:109C0000B02B00204831002010B50C460A46014612
:109C10000648FFF728FC05480022142184770448F1
:109C20000068BDE8104001F077B800005C3100200A
:109C3000B406020006480178002908D1012101700C
:109C40000448002240F6CD41406801F065B87047F5
:109C5000B02B0020B406020005480178002905D089
:109C6000002101700348406801F09AB87047000075
:109C7000B02B0020B406020070B54FF41C36382219
:109C80003146114800F0B8F80F4C104D206AA84238
:109C90000AD00622A2770EA12046FFF7E4FB256238
:109CA000606BA84203D107E0606BA8420BD0012093
:109CB00004F8240F607025613046BDE870403822FA
:109CC000014900F09BB870BD5C31002055AA55AA2F
:109CD0004F72616E6765000001490120086070479E
:109CE00078050040074910B516232C22A1F1140075
:109CF00000F04DF9BDE81040034A0121034800F08F
:109D0000CFBF0000DC300020DDD20100B006020031
:109D100030B587B00C46054618216846FFF7BCFBF6
:109D20000D4800784042044214D028788DF8000095
:109D3000641EE2B28DF80120691C0DF10200FFF7EC
:109D400092FB01226946054800F02BF9002801D05A
:109D500000F06EFD07B030BDA82B0020C8300020F9
:109D6000094810B5017800290DD10121017007487B
:109D7000002240F26661006800F0CEFFBDE81040AE
:109D8000062000F087B810BDA82B0020B006020006
:109D90000E4810B50178002917D0002101700C4839
:109DA000006800F0FDFF072000F074F8FFF71CFECC
:109DB00008B1042003E0FFF721FE20B10220BDE836
:109DC000104000F067B80120F9E710BDA82B002073
:109DD000B006020010B506490022064804F06CF9EE
:109DE000002803D0BDE8104000F04EBF10BD0000B9
:109DF0004C070200182D0020FFF735BBF8B50D46C3
:109E0000144606460146002301220C4804F02DF9B1
:109E100008B100F039FF094806F0EEFB0020009081
:109E200023462A463146054804F0E4F908B100F01B
:109E30002BFFBDE8F840014806F0DEBB182D0020DE
:109E400010B500F083F900F033F9642000F092F8C7
:109E50000121052000F0FEF80121022000F04CF95C
:109E60000A4A00210A4800F01BFF08B100F00CFF6D
:109E7000074800224FF42031006800F04DFF002811
:109E800003D0BDE8104000F0FFBE10BD2DFE010064
:109E9000AC06020010B5364A541E135C2178525CA1
:109EA000934214D3884212D0207008280FD2DFE8E2
:109EB00000F05944321C150F59040021084600F0E7
:109EC000C9F80021084600F017F90020207010BDE5
:109ED0000021BDE81040022000F0BCB800210120A4
:109EE00000F0B8F80021042036E0FFF73DFE01281D
:109EF0004FF0000107D0002000F0ACF8FFF73AFE69
:109F0000012802D004E00320F6E70021032023E02B
:109F10000021084620E0FFF727FE01284FF000014E
:109F200009D0002000F096F8FFF724FE0128EFD1B9
:109F30000121084610E00420F4E7FFF715FE012890
:109F40004FF000010CD0002000F084F8FFF712FE63
:109F50000128DDD100210520BDE8104000F0CCB87B
:109F60000320F1E70021084600F074F8D0E7000074
:109F70008D2B002070B5040006D04FF47A7528466A
:109F800004F02AFC641EFAD170BD04F025BC036005
:109F9000B2FBF3F24260016100218160C1600120E7
:109FA00070472DE9F041C5681746884604460026EB
:109FB00014E060686D1C854200D30025A068A842AB
:109FC0000ED02069E168226801FB02002268414648
:109FD000FFF749FA2168E5608844761CBE42E8D361
:109FE0003046BDE8F0812DE9F041002590460E464F
:109FF00004462F4612E02069A168226801FB020195
:10A0000022683046FFF72FFA20680644A068401CFB
:10A01000A06061686D1C884200D3A760A068E168F9
:10A02000884204D06068A84201D94545E3D3284658
:10A03000BDE8F08170470278C3780370C27042783F
:10A04000837843708270704702784378037042705F
:10A050007047000070B5044613480D46C06800F014
:10A060009FFE002003F0B4FA104A002090606800C0
:10A070001470062C16D2DFE804F00305070C0C124E
:10A08000002002E0022000E00120BDE8704003F063
:10A090009FBA5060BDE87040044803F0B3BA05EBC6
:10A0A0004500F6E770BD000018080200382C0020BB
:10A0B00010B500200D4C4FF0A0420323215C02EBB1
:10A0C0008101C1F80037401C0228F7D3002003F0BB
:10A0D0007FFA0648064A0021083000F0E1FD00281A
:10A0E00003D0BDE8104000F0CFBD10BD1C08020039
:10A0F00005D601007047000070B5054611480C46B2
:10A10000006800F04DFE03F06DFC0F4A0020062DA4
:10A11000906004EB8400157000EBC40011D2DFE8FE
:10A1200005F00307070A090ABDE8704003F05ABCAE
:10A13000546001E0A0005060BDE87040024803F0A8
:10A14000A7BC70BD44080200442C002010B5064A8C
:10A150000021064800F0A4FD002803D0BDE810400F
:10A1600000F092BD10BD000091DA01004408020029
:10A1700000F01F02012191404009800000F1E02021
:10A18000C0F88012704700F01F0201219140400981
:10A19000800000F1E020C0F80011704700F01F02BD
:10A1A000012191404009800000F1E020C0F8001238
:10A1B00070474907090E002806DA00F00F0000F189
:10A1C000E02080F8141D704700F1E02080F80014B2
:10A1D000704710B504F010FBBDE8104004F0B2BAAF
:10A1E0000149024803F07CB9FC2B002000C001406B
:10A1F00004F0BEB810B504F0A7F8002803D0BDE8FD
:10A20000104000F041BD10BD01490868086070476A
:10A210000004004007480021C0F84011C0F8441174
:10A22000C0F84811C0F84C11C0F80011C0F8041172
:10A2300005F0B2BF001001401022282105F03CBDFE
:10A2400070B506461248022231B1012908D0022910
:10A2500009D100F1140505E00D4D0270783502E0DA
:10A260000B4D46354270002408E000BF05EB44006A
:10A270004278304605F020FD641CE4B215F8141055
:10A28000FF29F3D13046BDE87040012100F068B8E5
:10A29000642C002010B5282105F0B4FC40F3801098
:10A2A000401C10BD10B5282105F0ACFCC00910BD44
:10A2B00010B5282105F0A6FCC0F3401010BD002108
:10A2C00005F0A0BC10B5044649B10122232105F0D8
:10A2D000F3FC2321204605F095FC8007F9D52421C5
:10A2E000204605F08FFC4042401010BD70B50600BE
:10A2F00019480D4603D04478052C02D005E00478B7
:10A30000FAE70421304600F02BF82846FFF7BEF9A3
:10A310000022124BFFF742F9FFF7D9F90546C0F3C7
:10A3200007420721304605F0C7FCC5F30722082184
:10A33000304605F0C1FCEAB20921304605F0BCFC0C
:10A34000042C03D10321304600F00AF821463046A0
:10A35000BDE8704000F004B8642C002080844E40BA
:10A3600070B50C4606000AD0224D2878A04238D09D
:10A37000062C36D2DFE804F03536231A0F061D4DC1
:10A380006D1EF2E70121304605F03CFC00F0E300D1
:10A3900040F00C0207E00121304605F033FC00F0EC
:10A3A000E30040F010020121304611E00121304667
:10A3B00005F028FC00F0E30040F00802F3E701217B
:10A3C000304605F01FFC00F0E30201213046121D6B
:10A3D00005F072FC2721304605F014FC0006F9D583
:10A3E0002C7070BD0121304605F00CFC00F0E3023A
:10A3F000D9E70000652C00200822192105F05CBC7B
:10A400000022192105F058BC70B50C4605463721CD
:10A4100005F0F8FB00F07F023721284605F04CFCE0
:10A4200022462846BDE87040382105F045BC70B58D
:10A430000C460A0A05462C2105F03EFCE2B22846ED
:10A44000BDE870402D2105F037BC70B50C460546BF
:10A450002E2105F0D7FB14B140F0800201E000F09E
:10A460007F022846BDE870402E2105F025BC10B5BE
:10A470000446372105F0C6FB00F07F023721204655
:10A4800005F01AFC20460022BDE81040382105F0F6
:10A4900013BC000030B5C1B00546802094B28DF8E1
:10A4A000040022460DF10500FEF7DDFF284605F009
:10A4B000C9FB0020641C03460090E2B201A90448D5
:10A4C00003F0C8FD284605F0DDFB41B030BD0000BB
:10A4D000240902000A46002105F0EEBB10B500F089
:10A4E000F1FB002803D0BDE8104000F0CDBB10BD4B
:10A4F0002DE9FE434FF48278404603F075FF4C4F40
:10A5000000254C4C012600B3404603F075FF94F83B
:10A510002E0010B194F82F10D1B18DF80050616861
:10A5200001912189ADF80810E26832B1218B618375
:10A5300062602181E56010B102E0257400E03E60B8
:10A5400021686846884784F82F5094F82E0060B33D
:10A550004FF48077384603F047FF30B3384603F0B6
:10A560004BFF628B94F82D108A420AD9A2EB0100AE
:10A5700080B260832289A2EB0000626802EB400097
:10A5800005E007D1E06828B184F82F60658303F007
:10A5900019FF04E08A4202D184F82F6065834046A7
:10A5A00003F02AFF2248001D06604FF488773846E2
:10A5B00003F01AFF48B1384603F01EFF257402204D
:10A5C0008DF800002168684688474FF48A7738463E
:10A5D00003F00AFF28B1384603F00EFF2574BDE8EA
:10A5E000FE834FF000484FF48C7967691DE000BF8F
:10A5F000B7FA87F028FA00F109EB80058F43284667
:10A6000003F0F2FE88B1284603F0F6FEA5F58C753E
:10A61000E8088DF8040045F38000401C8DF80060C8
:10A620008DF80500216868468847002FE0D1D6E7FD
:10A6300000700040E4320020F8B54FF0402004469E
:10A64000114E4FF48C7104F048F800281AD0002500
:10A65000C4F81851D4F818010090F07F3446FF2850
:10A6600006D0A17F11B103F039FE01E003F03DFEF9
:10A6700065772572D4E9002101B004F10800BDE836
:10A68000F0401047F8BD0000B432002005F0D2BC05
:10A6900003F0B8BF0848407840B1012809D002282B
:10A6A00009D101215FF00100FFF7CABD0021084672
:10A6B000FAE70221F6E77047982B002001490020B5
:10A6C00008707047982B00200148407870470000C0
:10A6D000982B002010B50A4C64784CB1012C0AD09C
:10A6E000022C08D05FF0010405F072F8204610BD7E
:10A6F00004F0A6FD01E003F0A1F80446F4E7000031
:10A70000982B00200148C06870470000982B00205B
:10A710000148808870470000982B00200148C088BD
:10A7200070470000982B002010B502210120FFF790
:10A7300087FD0021BDE810400846FFF781BD0000FD
:10A740002DE9F047571C0C460A460146994600265B
:10A750002C48DDF82080FEF786FE2B4DAC70A5F866
:10A760000A80687828B1641C012812D0022842D1DE
:10A7700017E002210020FFF7F3FD00210846FFF754
:10A7800064FE0020FFF773FE00210846FFF74FFE2E
:10A7900031E002210120FFF7E3FD0120FFF72CFE4D
:10A7A00006E002210120FFF7DBFD0120FFF728FE74
:10A7B000E1B20120FFF728FE1DE000BFFFF71EF900
:10A7C000D8B13EB1B9F1000004D0FFF7D3FB0020AF
:10A7D00005F020FFE888401CE880687820B1012857
:10A7E00005D0022805D102E004F086FD01E003F067
:10A7F00075F8761CB6B2BE42E0D3BDE8F04704F06F
:10A80000E7BF0000A82F0020982B002007494978B7
:10A8100041B1012901D0022907D101465FF00100B1
:10A82000FFF764BD01460020FAE77047982B00202F
:10A830000149012008707047982B00200149487099
:10A8400070470000982B00200149C8707047000035
:10A85000982B00200149088170470000982B0020A8
:10A86000FFF7C6BC10B5FFF745FCFFF737FEFFF753
:10A87000C1FCFFF7C9FCFFF72FFA00F059F900F00F
:10A8800011F9BDE81040FFF7A5BA000030B54FF050
:10A890008050D0F83021D0F844125E4BC1F34231E1
:10A8A000196000218300C3F80C11C3F81011594B33
:10A8B0001B1F1960584B1B68584C2360564B1B1DBF
:10A8C0001B68241D2360544B08331B68241D236020
:10A8D000514B0C331B68241D23604F4B10331B68F6
:10A8E000241D23604C4B14331B68241D23604A4BEA
:10A8F00018331B68494C20342360474B1C331B68BA
:10A90000241D2360444B20331B68241D2360424BCD
:10A9100024331B68241D23603F4B28331B68241DF0
:10A9200023603D4B2C331B68241D23603A4B30338E
:10A930001B683A4C40342360374B34331B68241D6A
:10A940002360354B38331B68241D2360324B3C3366
:10A950001B68241D2360304B40331B68241D23607B
:10A9600001240A2A05D1D0F8343113B92C4DFB2328
:10A970002B602C4B1B78062B15D12A4B1B1D1B78EB
:10A980001B0710D1274B08331B78C3F30313032B8A
:10A9900003D0042B01D0052B05D1D0F85832224D1D
:10A9A00003F04F032B6021480268D20702D06FF0FA
:10A9B000010202604FF01022D2F80002002803DBEF
:10A9C000D2F80402002821DA194B1C6019480468E7
:10A9D000002CFCD01524C2F800420568002DFCD0E4
:10A9E000C2F804420268002AFCD0196001680029FC
:10A9F000FCD0BFF34F8F10480168104A01F4E061AA
:10AA000011430160BFF34F8F00BFFDE70D490C48B4
:10AA1000086030BD3C0500400404001020C5004023
:10AA200018F50040E00F00F0E40E00400004004084
:10AA300004E5014000E401400CED00E00400FA05EB
:10AA40000090D003142D00202DE9F047104E04276C
:10AA500000244FF4A0784FF4803900BF08EB840540
:10AA600009FA04F0715961B1D6F80413014208D013
:10AA70002946304603F036FE0648D0E90021284634
:10AA80009047641CE4B2BC42E8D3BDE8F087000004
:10AA900000900040D8320020014840687047000014
:10AAA000582C00200EB51349134AD1E90201CDE913
:10AAB000010101A90F4804F0E1FA08B100F0E4F83F
:10AAC0000C480068D0F810050021C2B24FF47A504B
:10AAD000FEF7B9FC0246012003460090002105481C
:10AAE00004F0B6FA034804F0A5FA044900204860CF
:10AAF0000EBD0000FC0802000D020200582C0020D0
:10AB00000148006800470000E42B002038B5064CDF
:10AB100020680025002805D004484068804725604B
:10AB20002068009038BD000000010140F42B002097
:10AB30000EB50A4A07CA8DE807006846084904F0BE
:10AB400037FB08B100F0A0F8064804F0F5FA08B1A8
:10AB500000F09AF804F01EFB0EBD00001809020078
:10AB600011060200582C002002E008C8121F08C17C
:10AB7000002AFAD170477047002001E001C1121F7E
:10AB8000002AFBD1704700000121202803DA814010
:10AB90000548014003E0402802DA2038814009B12D
:10ABA0000120704700207047FC06FFBD70478007FA
:10ABB00001D00020704701207047C3688B4206D83F
:10ABC00011440069491E814201D8012070470020CC
:10ABD0007047000000B5ABB0AC216846FEF75CFCE6
:10ABE00002218DF8001000208DF8020006228DF859
:10ABF00003200122ADF810200D4B8DF87C20059329
:10AC00004FF4F072CDE922208DF8780009482990A0
:10AC10008DF83C106946084800F0D7FB08B100F0F9
:10AC200033F80121044800F0CDFB2BB000BD00003B
:10AC30000C2B002011F40100682D002010B5032119
:10AC4000044800F06DFC002803D0BDE8104000F07F
:10AC50001BB810BD682D002072B609480068C007F7
:10AC600000D000BEBFF34F8F0548E4380168054AA5
:10AC700001F4E06111430160BFF34F8F00BFFDE7B6
:10AC8000F0ED00E00400FA050EB500210091CDE9D9
:10AC900001106A4644F20100FFF7DEFF0EBD00001E
:10ACA000074B9B7823B12AB120B10068037C1BB10C
:10ACB00008207047072070474174426100207047A8
:10ACC0001433002070B504F097FD104800241521BE
:10ACD000047044700E4D817014206C602C706C7088
:10ACE000FFF746FA07211420FFF763FA1420FFF755
:10ACF0004AFA0848046007211120FFF75AFA05486C
:10AD0000001F0068A860002070BD00001433002000
:10AD1000102C0020081501402DE9FC47DFF8789041
:10AD200099F8023073B368B3052902D20720BDE851
:10AD3000FC87436933B3437C012B25D000270446AD
:10AD40000025884616468DF80050684600F038F811
:10AD500001A805F0A7FBC8B1012101700F494460AB
:10AD60000968C0E90218C0E904769DF8040089F872
:10AD700001009DF8000000F047F81420FFF70EFADC
:10AD80002846D4E70820D2E70F46D8E704259DF8E7
:10AD9000000000F039F8F3E71433002004150140F7
:10ADA0000649897839B130B1416921B10021017476
:10ADB000022105F0CDB908207047000014330020AF
:10ADC00030B5EFF3108172B60D4A9468012324B1B7
:10ADD0000370002900D162B630BD93604FF0E023CC
:10ADE000D3F88051074C25401560C3F88041D3F853
:10ADF000844154605A17C3F8842100220270E8E7A6
:10AE000010350020FC06FFBD0B498A68002A11D0CE
:10AE100000280FD1EFF3108072B60B684FF0E022DC
:10AE2000C2F800314B68C2F8043100228A60002861
:10AE300000D162B6704700001035002030B55E4D7D
:10AE4000BDB00122A86801A9401CA8605B48FFF7BB
:10AE5000CAF800281AD0FFF731FC9DF8041000242E
:10AE600001A80F2912D2DFE801F011080B0E133DE3
:10AE70004311694969646F757E00022150A097E013
:10AE80000E2150A094E0001D01F0AEFD3DB030BD9C
:10AE9000041DBDF806506C2121A8FEF7FDFAA01C88
:10AEA000FFF7D2F8201DFFF7CFF8AD1F2D042D0CB2
:10AEB00007D06019407920B9FFF706FC08B16D1E74
:10AEC000ADB22A4621A9A01D02F086F9C1B2BDF893
:10AED0000C000090BDF80A309DF8092021A8FFF76A
:10AEE0002FFC2BE0BDF80610001D01F0D1FDCDE7D1
:10AEF000BDF80610001D01F073FEC7E7BDF806108F
:10AF00009DF808008DF800400029BFD009280AD01C
:10AF10000A2808D00B2806D05FF05A008DF80000F0
:10AF20000121684644E02449C91C084410F8090C72
:10AF3000F4E79DF8080002F073F908B1DD2000E0A5
:10AF4000112004F0CDFCA1E7BDF80610001D01F0B2
:10AF50003DFE9BE7FFF79EFB002002F061F9002019
:10AF6000FFF778FCEAE7A86800EB8000400021903A
:10AF700021A8FFF760F8ADF88840ADF88A40FFF7E8
:10AF8000C7FBADF88C0023A8FFF75EF8FFF7C6FB00
:10AF9000ADF88E000DF18E00FFF756F8ADF8904039
:10AFA000ADF89440ADF89240ADF89640142121A838
:10AFB00004F09EFC6AE70000802B0020742E002025
:10AFC0004F4B0000737562675F7266737079203251
:10AFD0002E32000070B586B02B4D0024ADF8004035
:10AFE000686804900926294904A803F0B5FD08B152
:10AFF000FFF74AFE243501AB95E8070083E8070018
:10B0000001A9032003F030FD08B1FFF73DFE052044
:10B01000FEF7B0FF00256946032003F027FEBDF8C8
:10B0200000006D1C2044EDB204B2022DF3D303F0F6
:10B030007DFE17490220C1F8000704EBD4704010D0
:10B04000FEF71BFB1349FEF76BFA1349FEF736FABE
:10B05000FEF729FB82B211490B4B00204A800833CE
:10B0600033F81040944203D3401CC0B2B042F7D32F
:10B07000B04201D30A2002E0034A1A32105C087081
:10B0800006B0C0B270BD000078060200ADAB010092
:10B090001000005000002F44000048457C2B002089
:10B0A00010B5FFF797FF0D4C0A2801D8617871B1F0
:10B0B0001E280BD36078002808D0FEF79FFC58B1FB
:10B0C0005FF00200FEF7E6FE0020607010BD042075
:10B0D000FEF7E0FE0120F8E70120F3E77C2B0020DB
:10B0E00070B5044690B0087B0D468DF838002021DD
:10B0F00005A8FEF7D1F942F61920ADF81400012099
:10B10000ADF81800ADF81A000EA80790617C9DF804
:10B110002100A21D61F3041040F002008DF821000F
:10B12000A87B8DF82700687B8DF82500A08805A9ED
:10B1300001F03AFB00281CD1A968E1B10FA801F089
:10B14000E7FA064614216846FEF7A6F942F608100B
:10B15000ADF80000E87B8DF806000FA8ADF80A6096
:10B16000ADF80E600490E08804F10E02694601F02B
:10B1700022FF10B070BD0020E081FAE710B5FEF7A5
:10B180000BFC0146BDE810404FF6FE72014800F08E
:10B19000C9BA0000202E00200A4601461046AEDF44
:10B1A000704770B51500044609D00020286034B1FE
:10B1B000206820B1A079800703D0072070BD0E2041
:10B1C00070BD084600F090FBC0B2142804D021796D
:10B1D000814203D8042070BD052070BDE28821683B
:10B1E00000FB02102860002070BD2DE9FC470025FF
:10B1F00017880646158090F82D001446894630B110
:10B200003A462146484600F095FB051E09D1B07824
:10B210004FF00C0A18B32088C846001DB84202D966
:10B220005046BDE8FC87684679DF0028F9D12088C0
:10B23000032108F8001020881921401C80B22080CA
:10B2400008F800102088401C80B2208000EB080124
:10B25000BDF8000004F0F0FF218808442080F07859
:10B260000222C8B1218896F9033001F1030C484647
:10B27000BC45D5D8425421884FF0010C491C89B2F5
:10B28000218000F801C02188491C89B2218009F879
:10B2900001302088401C20807068B8B1218890F966
:10B2A000003001F1030C4846BC45B9D8425421880E
:10B2B0000A22491C89B2218042542188491C89B242
:10B2C000218009F801302088401C2080308950B14D
:10B2D000CDE900474B460622022106F1080005F0A1
:10B2E00011F9051E9DD1308A50B1CDE900474B467A
:10B2F0000722032106F1100005F004F9051E90D184
:10B30000308B50B1CDE900474B461522142106F190
:10B31000180005F0F7F8051E83D1306A30B13B46BE
:10B320002246494601F038FD051EDBD1706A30B176
:10B330003B462246494602F04EFA051ED2D196F807
:10B340002C0038B13B4622464946304604F0F0FA1C
:10B35000051EC7D1307838B13B46224649463046B3
:10B3600002F0FAFB051EBDD128465AE718B504467F
:10B370000020ADF8000013466A46204600F006F8AB
:10B38000002802D0BDF80000204418BD70B588B177
:10B3900082B10024158803E0065D641C3444A4B225
:10B3A000A54203D8061976789E4201D08C42F3D389
:10B3B0008C4201D3002070BDA11C1180005D401E95
:10B3C00080B270BD80F8301070472DE9F0410D005B
:10B3D000044606D02CB195F87A000026012803D047
:10B3E00006E00E20BDE8F08195F89800012829D0EC
:10B3F000D5F8A000042825D0D5F89C00042821D039
:10B400004FF00108A6702C2205F17801201DFEF7EF
:10B410002AF884F83060D5F8A4006063D5F8A80055
:10B42000A0634FF6FF70A4F8A80004F19400C4F8DC
:10B43000A400C4F8AA60A4F8AE6084F8B0602078D4
:10B4400010B104E00720CDE7FF2084F8540004F198
:10B4500055011F27C4F89410A4F8987004F19802BD
:10B460002846FFF7C2FE0028BCD104F17401C4F8DD
:10B470009C10A4F8A07004F1A00205F13C00FFF7B5
:10B48000B4FE0028AED184F85180208BA4F8480087
:10B4900084F83C80266484F85060606960644546A6
:10B4A00004F13C02002104F1540072DF002899D11C
:10B4B000257097E710B50288102A1BD0112A20D0DA
:10B4C000262A1DD1007A0C46012801D0022817D166
:10B4D000A0780521401CB0FBF1F201FB12012046CF
:10B4E00000F01EF800280BD0A16B002908D0BDE8A1
:10B4F00010400847C27B012A02D18088A1F8A80029
:10B5000010BD0C46002184F8B2108088B4F8A81051
:10B510008842F5D120790028F2D10121DFE7704778
:10B520002DE9F05F044600780F4698B1A77000251A
:10B53000C4F8AA50A4F8AE5084F8B050A0790126FF
:10B5400008B1012F09D0E07980B1012F05D0022F79
:10B5500003D00BE00820BDE8F09F616B21B184F8B7
:10B56000B1600820884701E084F8B15004F1AB01D4
:10B5700000200A5C0AB1304603E0401C0628F8D3DC
:10B5800000204FF002084FF0030A4FF0040B012F88
:10B5900006D0022F0CD0032F0FD0042F15D110E0AE
:10B5A000A17929B194F8241011B908B130460DE001
:10B5B000E17911B108B1404608E0207A08B150465F
:10B5C00004E0607A08B1584600E02846A070616B3C
:10B5D00041B1032801D0042804D1607910B194F856
:10B5E000B200A0B184F8B35004F13C001821074622
:10B5F000FDF752FF04F12C0084F83C60814604F012
:10B600005EF858B194F82C0084F8510008E084F8F2
:10B61000B45084F8B36007208847E5E784F85160A8
:10B6200094F8240050B1484604F049F820B194F849
:10B63000280084F8520001E084F8526084F85050E9
:10B64000A27804F1AA0104F19409052A4DD2DFE899
:10B6500002F065030F1B320084F83160C4F8A45077
:10B66000C4E9101584F83C808020A4F848003EE02E
:10B6700084F8318087F800A0228ABA81C4F8A450E7
:10B680007960E168B96032E06069B860208BB881A8
:10B690003D4684F83C60204604F018FE40B185F831
:10B6A00014800421204601F09BFEF0B9052115E02D
:10B6B00084F831A017E0E069B860208CB8813D467D
:10B6C00084F83C60204604F001FE50B185F81480F7
:10B6D0000421204601F084FE38B9062184F8311097
:10B6E00001E084F831B0C4F8A490A07878B13A466B
:10B6F00004F15400D4F8A41072DF00287FF42BAFBB
:10B7000094F8301094F8540073DF0028F6D1616B80
:10B7100011B194F83100884700201CE784F83150BB
:10B72000F5E70000F7B594B0174605003CD0287C3B
:10B730009DF854100024884252D000264FF0010E8C
:10B740000D9615A8ADF834E00E90ADF83660E98896
:10B750000DAA4FF6FF70ACDF040026D19DF854000F
:10B760002874687CA0B30F96109611961296E888FC
:10B77000ADF83C00BDF83600ADF840000DA81190C2
:10B780000E981290A7F57F408DF83EE0FE3805D068
:10B7900039460FA8FFF700FD044621E0684600F097
:10B7A0009DF800256F460FE00E2017B0F0BD00BFDA
:10B7B00007EB4506B08800F0A1F8022803D144B198
:10B7C0000FA9B088AEDF6D1C0098A842F0D807E042
:10B7D00005E0B1880FA8FFF7DFFC0446F3E7082473
:10B7E0002046E2E738B50D46040018D0BDB1286800
:10B7F000206028796074FF20207401208DF80200F9
:10B8000041F60F00ADF80000221D69460120A8DFB7
:10B81000002803D129462046FFF762FC38BD0E20E0
:10B8200038BD38B5002924D0002822D00288502AFB
:10B830001FD10546487C0C4600281AD0E988628949
:10B84000A81D914215D14189022912D121680029F0
:10B850000FD00C3000F058FF08B1002000E00120AC
:10B860008DF80000A888ADF80200226869462046DD
:10B87000904738BD70B5040012D001461C22144810
:10B88000FDF7F1FD1248134D0560206850B17ADFD5
:10B89000002806D12068016829604068686005E0DA
:10B8A0000E2070BD0B487BDF0028FAD108484FF608
:10B8B000FF711438084A20F8041B05493439016027
:10B8C0000021FFF7EDF90028EBD0032070BD000048
:10B8D000C8310020CC2B00206502020001494968D4
:10B8E00001F03BBAE431002010B5044600F018F82E
:10B8F00008B1204610BD142010BD000070B50546EB
:10B90000002400F00DF838B12946044802F0C9F9C6
:10B9100008B1022400E00124204670BDEC31002073
:10B92000142801D3002070470146014802F0B9B93C
:10B93000E83100207CB5054608880C460930904265
:10B9400001D90C207CBD68466DDF0028FAD1218822
:10B950000820685420881B21401C80B22080295474
:10B960002088401C80B220802844DDF8011001604E
:10B97000BDF8051081802088801D80B220809DF850
:10B980000010490800D0012129542088401C208043
:10B9900000207CBD10B502F0DCFA002809D1054872
:10B9A0004FF0030C00DF002803D1BDE8104002F087
:10B9B000DFBA10BD7832002018B1034908600020BA
:10B9C00070470E2070470000D42B002010B54FF0B8
:10B9D000FF3100203DDF00280BD1B1213CDF0028E2
:10B9E00007D10448416901208847022002F0CAFCBF
:10B9F000002010BD5C320020044810B50068416989
:10BA000000208847BDE81040FFF7E0BFD42B00209E
:10BA100010B588B0044620216846FDF73DFD03209F
:10BA2000ADF8000020788DF802009DF80D00172178
:10BA300040F028008DF80D0001208DF810008DF8E1
:10BA40001300ADF804108DF812008DF80C008DF87D
:10BA500011006088A21D694600F0A6FE08B010BD66
:10BA600010B5184C86B01ECC8DE81E0050B1164C97
:10BA70004FF6FF71A1800068002160616176217638
:10BA800018B104E00E2006B010BD104860610E48E9
:10BA9000FFF792FF0028F6D101208DF812004FF633
:10BAA0005960ADF81000A21C04A90120A8DF0028ED
:10BAB000E9D10549684662DF0028E4D10248FFF772
:10BAC000A7FFE0E7CC0602005C32002061D0010055
:10BAD00010B500280FD001881B4C502926D00BDC54
:10BAE00010291DD0112906D1A1888088814202D158
:10BAF0004FF6FF70A08010BD512913D05329FAD101
:10BB0000C088E1888842F6D1607E0028F3D0FFF734
:10BB100073FF0028EFD06169BDE81040022008479C
:10BB20008088E7E7BDE8104003F0F0BC30F8061F5E
:10BB300062899142DFD141890229DCD10C3000F0C9
:10BB4000DFFD207610BD00005C3200202DE9F041C1
:10BB50000546007B0426294C4FF00108012811D02E
:10BB600002282BD00226287B314600F07BF818B142
:10BB70002068416903208847206841690220BDE8A8
:10BB8000F041084720680027817E49B10621012045
:10BB900000F068F800282CD0206841690320EEE707
:10BBA00080F819800121084600F05CF8002820D0B8
:10BBB000216811284F76D6D10626D4E76A7B142A4D
:10BBC00019D8C2B10E4F05F10E01381DFDF74BFC1F
:10BBD000687BB86121683846897E0029C3D1A0F10D
:10BBE0000C010A68011F90470028BCD1216881F828
:10BBF0001A80BDE8F0810526B5E70000D42B0020AF
:10BC00008432002070B5154900250A68002A24D026
:10BC10004A68002A21D00831904708281DD0104CCE
:10BC20000028206885760ED00621022000F01AF840
:10BC300018B12068416903208847206841690220C3
:10BC4000BDE8704008470121022000F00BF80028F1
:10BC500003D0206841690320F2E770BD78320020EC
:10BC6000D42B002086B00323ADF8003020238DF8BC
:10BC700014308DF8150000220E48019202928DF8C2
:10BC80001610C188ADF8041002218DF8061005A920
:10BC90000491ADF80820CDF80CD0808801A9AEDF62
:10BCA000002804D1BDF80010032900D00C2006B0F4
:10BCB000704700005C320020704700007CB5454CA6
:10BCC000018866883B2970D00DDC10293ED0002504
:10BCD000112910D013296AD0212936D101958088E5
:10BCE00001A98FDF68E0522969D056292DD18088BB
:10BCF000132176DF60E0304689DF4FF6FF70608009
:10BD0000FEF746F8FDF738FEFDF7A6FF2078C0B134
:10BD1000314890F8540074DF9DF8000020F0FF00D7
:10BD20008DF80000FDF71AFF0646FDF713FF0146E8
:10BD3000324668467CDFFEF74DFFFEF77FFF257039
:10BD400002E00320FEF7A6F865707CBD81882248DA
:10BD500061800C3802F076F808B1FEF795FF0422F6
:10BD60006188032077DF08B1FEF78EFF0022FF21F4
:10BD7000608888DF194800224FF4A0210068FEF790
:10BD8000CBFF08B1FEF780FF0020FFF7F7F9FDF7C2
:10BD9000E1FDFDF74FFF0220FEF77CF80120607007
:10BDA0007CBD00BFFEF770FF7CBD0EE0FFE7002307
:10BDB0001A46852130467FDF0028F3D1F4E70023BF
:10BDC0001A4619463046B1DFF6E78088132176DF40
:10BDD000F2E70000082B0020682D00207406020006
:10BDE0002DE9F04701883B4E40F2F3194FF6FF75FD
:10BDF00010291BD011293ED0122954D0502946D1E8
:10BE0000C188F289841D914241D1618902293ED1C4
:10BE10008688304601F014FB050038D004F10C0090
:10BE200000F072FCA8B3294630464EE0C17B8788FB
:10BE3000044601292BD1A846284601F001FB050044
:10BE400017D02F8000202872234843464A460168B5
:10BE5000C5F80A104068C5F80E0004F1100105F19C
:10BE60000A0001F093FB6872F08900280FD129467F
:10BE70002AE0042013E0808801F0E2FA040006D0F2
:10BE80006068FEF78DFF08B103F04AFD2580BDE82C
:10BE9000F087FFE76868FEF783FF0028F7D0BDE86A
:10BEA000F04703F03DBD87880646384601F0C8FAE2
:10BEB0000400ECD02B464A4606F1080104F10A00C2
:10BEC00001F064FB607221463846BDE8F04700F09F
:10BED000A9BF0000C8310020CC2B00202DE9F04F75
:10BEE0000746858802883D48012197B08346102A7D
:10BEF00009D0112A49D01A2A6CD1387AB1EB101F17
:10BF000045D2012244E0354C083CA068C0430B9068
:10BF100061680BA801F0DDFE0B990CA800F01DFF75
:10BF20002C220CA96846FDF79EFA0026E946A04699
:10BF300010E000BF09EB46005FF00004B0F804A079
:10BF400008EB84005146001D01F0A0FE641C1D2C6E
:10BF5000F6D3761C0098B042ECD8142D05D317B058
:10BF60000420BDE8F04FFEF78FBE2946584601F089
:10BF7000A3FE294608F1040001F09EFEF87B01288B
:10BF800028D016482946001D15E029461AE000224F
:10BF90000221B1EB101F01D2012600E000260F495B
:10BFA000083901F11000041D294682B101F084FE18
:10BFB00036B12946204617B0BDE8F04F01F07CBEEF
:10BFC0002946204617B0BDE8F04F01F05FBE01F0F2
:10BFD0005DFEF5E717B0BDE8F08F0000EC31002002
:10BFE00070B50D4691881446A1F57F42AAB0FF3A7C
:10BFF00020D000262696ADF89850ADF89A6027908C
:10C000002189A08826AAACDF2896ADF8A050ADF80B
:10C01000A260CDF8A4D02189A08828AAADDF0400B1
:10C0200006D1ABB26A4604A10AA0FEF703F8204687
:10C030002AB070BD0520FBE7446174612061636331
:10C040006573732C206E6F74696679204F4B3A20AC
:10C0500000000000495053002DE9FF4FE04E9B4681
:10C0600004002DCEBFB010AF87E82D002DCE14AF49
:10C0700087E82D002DCE18AF87E82D002DCE1CAF00
:10C0800087E82D002DCE20AF87E82D002DCE24AFE0
:10C0900087E82D0096E82D0028AFA6F1640687E812
:10C0A0002D007DD00029FCD00868E0634FF6FF70BA
:10C0B000A0800027A771E771214610A862DF002841
:10C0C0006FD120788DF8EA0047F23B30ADF8E800F8
:10C0D000A21C3AA90120A8DF002862D1C1A1D1E9A0
:10C0E0000001CDE935018DF8EC70202104A8FDF7A1
:10C0F000D3F94EF649000097ADF81000CDF828D0DE
:10C1000096200125ADF81400019702973BA80690F0
:10C110008DF81C509DF81D00039740F00A008DF823
:10C120001D008DF8215035A8E846ADF816508DF861
:10C1300022500190FDF7BBF9ADF8020035A8FDF7DC
:10C14000B6F9ADF800008DF80C50608814AB04F11E
:10C15000080204A904F0C6F8002822D1A3A00DF11A
:10C1600030090FC889E80F008DF8F070202104A86D
:10C17000FDF792F93CA80297069000979DF81D00E4
:10C18000CDF8288047F6101AADF8145040F0120090
:10C190000397ADF810A0ADF816508DF81D0001E022
:10C1A0001BE197E08DF821500CA88DF823500190E9
:10C1B000FDF77DF9ADF802000CA8FDF778F9ADF8B0
:10C1C00000008DF80C50608818AB04F1100204A92F
:10C1D00004F088F800287DD188A22CAB07CA83E838
:10C1E0000700B9468DF8F470202104A8FDF754F932
:10C1F0003DA8029706909DF81D000097039740F018
:10C200001200CDF828808DF81D00ADF814508DF87F
:10C2100021502CA84746ADF810A0ADF816508DF867
:10C2200023500190FDF743F9ADF802002CA8FDF76B
:10C230003EF9ADF800008DF80C5060881CAB04F19D
:10C24000180204A904F04EF8002843D16EA22FABC7
:10C2500007CA83E80700202104A8FDF71DF942F66C
:10C26000F020CDF80090ADF810000A971E20ADF830
:10C270001400ADF816B0CDF80490CDF808904198B0
:10C2800006908DF81C509DF81D00CDF80C9040F0E4
:10C290000A008DF81D008DF821502FA8C8468DF892
:10C2A00022500190FDF703F9ADF802002FA8FDF729
:10C2B000FEF8ADF800008DF80C50608820AB04F15A
:10C2C000200204A904F00EF8002803D151A1D1E9FD
:10C2D000000100E07EE0CDE93701202104A8FDF750
:10C2E000DBF849F6C950CDF80080ADF810000A9788
:10C2F0000D20ADF81400ADF8160048A0CDF8088068
:10C3000006909DF81D00CDF80C8040F002008DF8DD
:10C310001D0037A88DF821500190FDF7C8F8ADF841
:10C32000020037A8FDF7C3F8ADF800008DF80C50F7
:10C33000608824AB04F1280204A903F0D3FF00288D
:10C3400048D13AA232AB07CA83E807008DF8F880DB
:10C35000202104A8FDF7A0F844F24120ADF8100018
:10C360003EA8CDF8088006909DF81D00CDF800800D
:10C3700040F00A00CDF80C800A978DF81D00ADF84A
:10C3800014508DF8215032A8ADF816508DF8225077
:10C390000190FDF78CF8ADF8020032A8FDF787F8A0
:10C3A000ADF800008DF80C50608828AB04F1300225
:10C3B00004A903F097FF00280CD109481E4A012167
:10C3C000001FFEF76DFC22464FF4F0113068FEF7B7
:10C3D000A3FC002043B0BDE8F08F0E20FAE7000078
:10C3E00038090200446174610000000052657370F6
:10C3F0006F6E736520436F756E74000054696D65D0
:10C4000072205469636B0000437573746F6D204E26
:10C41000616D650056657273696F6E00626C655F71
:10C42000726673707920322E300000004C45442033
:10C430004D6F646500000000E1C401000A00014680
:10C4400010D000290ED010460A88102A05D0112AD3
:10C4500005D0502A06D103F0D3B803F01EB84FF62A
:10C46000FF7181807047F0B50446807989B0401C27
:10C47000C0B20025A071FF2800D3A571A18807AA2A
:10C48000A06BFEF78EFEA1884FF6FF70814223D08D
:10C49000079909B3097809B301270595ADF8147018
:10C4A000A61DADF816500696218A05AAACDF002815
:10C4B00010D10095019502950395ADF81070208A72
:10C4C000ADF8000004A8CDE902068DF80270A0883E
:10C4D0006946AEDF09B0F0BD0520FBE70820F9E7AB
:10C4E000F0B50446C07989B0401CC1B20025E171A5
:10C4F000FF2900D3E571A18807AAA06BFEF751FEC2
:10C50000A1884FF6FF70814223D00799002920D0DF
:10C51000497800291DD001270595ADF81470E61D56
:10C52000ADF816500696218B05AAACDF002810D175
:10C530000095019502950395ADF81070208BADF82C
:10C54000000004A8CDE902068DF80270A0886946B3
:10C55000AEDF09B0F0BDF0B585B016460F46040059
:10C560001D4614D004AA19466069FEF71AFE002879
:10C570000BD1A5F57F40FF380BD0049848B1007867
:10C5800048B13088F42808D9072005B0F0BD0E2046
:10C59000FBE70520F9E70820F7E70020009001906D
:10C5A00002900390A088ADF8000001208DF80200F1
:10C5B000CDE9026769462846AEDFE6E770B5334D40
:10C5C00004008EB02DCD08AE86E82D005BD0E9B317
:10C5D0000868A061214608A862DF002851D12078B0
:10C5E00001258DF83200ADF83050A21C0CA9284668
:10C5F000A8DF002845D120216846FCF74DFF022026
:10C60000ADF8000020788DF802008DF80C509DF8F0
:10C610000D00F426ADF8046040F00C008DF81150C8
:10C62000ADF806508DF80D008DF81250608804F1B9
:10C630000C02694600F0B8F8002822D12021684693
:10C64000FCF72AFF0320ADF8000000E01BE0207893
:10C650008DF802008DF80C509DF80D008DF81150EA
:10C66000ADF8046040F010008DF81250ADF806509F
:10C670008DF80D008DF813506088221D694600F07A
:10C6800093F80EB070BD0E20FBE70000DC06020040
:10C6900070B588B00446002924D0002C22D008466A
:10C6A0002188102920D0502924D057291AD1054695
:10C6B000A188406906AAFEF774FD002812D1069EE3
:10C6C000307800280ED018216846FCF7E5FE0120DE
:10C6D0008DF800000195A088ADF808000396A969BF
:10C6E0006846884708B070BD08B02146BDE8704074
:10C6F00002F09EBE08B02146BDE8704002F03EBF89
:10C700000078C0F340007047007800F001007047E7
:10C710000A780270497841700220704738B50122CA
:10C7200069461B48FDF75FFC00281FD09DF80010EC
:10C730001848AA22012908D0022911D0032916D0AD
:10C740004170DD21817003211DE001214170827063
:10C750000F4910223831C01CFCF785FE132112E06E
:10C760009DF801100DF1020001F0FCF838BD032125
:10C77000417004468270FDF715F9000AE070FDF77C
:10C7800011F9207105210348FDF7D8F938BD0000E3
:10C7900048310020B92B0020382202494FF41C30C8
:10C7A000FDF72CBB5C3100202DE9F04381468878F1
:10C7B00091B090460C4600B901208DF83E002088CB
:10C7C000ADF83C0000250095607C694603F044F913
:10C7D0006E46A07C711C03F03FF9E07B00289DF8B9
:10C7E000020002D040F0080001E020F008008DF8BF
:10C7F0000200217C11B140F0100001E020F0100097
:10C800008DF80200217B11B140F0010001E020F021
:10C8100001008DF80200217D09B1022100E0012113
:10C8200061F342008DF802001C2102A8FCF734FEDF
:10C83000607BC10601D4800617D50E950EAFE07C53
:10C84000791C03F009F99DF83800079720F00F00D4
:10C85000401C20F0F00010308DF838009DF83A00B0
:10C8600020F00600801C8DF83A00607B8DF80800EF
:10C87000A07B8DF80900142109A8FCF70DFE0FA874
:10C88000CDE90906A088ADF83000A06820B1E088A5
:10C89000ADF82C00A0680D90A06998B301950088B0
:10C8A000ADF81000A06901AD01A94088ADF81200F3
:10C8B000A069406806950390A069007B03F0CCF85E
:10C8C000A069691C407B03F0C7F8A069807A002842
:10C8D0009DF8060002D040F0080001E020F00800BA
:10C8E0008DF80600A169C97A11B140F0100001E08D
:10C8F00020F010008DF80600A169097A19B140F006
:10C90000010002E00DE020F001008DF80600A169B1
:10C91000897B09B1022100E0012161F342008DF819
:10C920000600E06900B10590434609AA02A94846FD
:10C93000AADF11B0BDE8F083144810B50178427841
:10C940000904807801EB022108441149A0FB011081
:10C950000C0C44EA00440F4821180F48814201D8CA
:10C9600002200AE00D4AA118814201D8012004E00A
:10C970000B4AA118814207D80020FDF75FFF20462F
:10C98000BDE81040FDF742BF10BD0000832B002022
:10C9900000366E0180E361CC00093D00807785C9D7
:10C9A00040764FE670B5084C050009D01034216878
:10C9B000002907D008682060496828468847F6E7BC
:10C9C0000834F4E770BD0000A0320020054A0121C0
:10C9D00020B1012805D19170FFF7E4BF517000200C
:10C9E000FAE77047A032002010B5D4B004466C219D
:10C9F0006846FCF751FD00208DF848016C2137A8EE
:10CA0000FCF74AFD601CFDF716FB1C48D4F801201A
:10CA100052A903786846FDF75DFE48B101282AD087
:10CA2000022803D15FF0BB0002F05AFF54B010BDE2
:10CA3000FDF768FE00F01AFA8DF86C00FDF768FE4D
:10CA40008DF86D009DF848316A460DA10FA0FDF7E5
:10CA5000F1FA9DF8482137A9684600F09DFB04468D
:10CA6000024637A90DF16E00FCF7FDFCA11C1BA8C6
:10CA700002F03EFFDAE7AA20D6E70000802B002074
:10CA8000527820646F6E653A0000000041505300F8
:10CA900070B5F0B00D4604466C2101A8FCF7FCFC13
:10CAA0006C211CA8FCF7F8FC00208DF8B8016C2163
:10CAB00053A8FCF7F1FCA01CFDF7C6FA601DFDF7BA
:10CAC000BAFA04F10A00FDF7BFFA0C3D2D042D0C53
:10CAD00007D06019C07A20B9FDF7F6FD08B16D1EC8
:10CAE000ADB22A4601A904F10C0000F075FBC6B2F4
:10CAF000334601AA2CA130A0FDF79CFA6089009072
:10CB000063886278314601A8FDF71AFE2B4DD4F8F0
:10CB100005206EA92B781CA8FDF7DCFD11E06089CB
:10CB2000009063880022314601A8FDF709FED4F881
:10CB300005202B786EA91CA8FDF7CCFD617A491E53
:10CB40006172012804D058B1022807D1BB2003E04C
:10CB5000607A0028E3D1AA2002F0C2FE70B070BD56
:10CB6000FDF7D0FD00F082F98DF8DC00FDF7D0FD77
:10CB70008DF8DD009DF8B8311CAA11A10EA0FDF7BB
:10CB800059FA9DF8B82153A91CA800F005FB0446EA
:10CB9000024653A90DF1DE00FCF765FCA11C37A885
:10CBA00002F0A6FEDAE7000053656E6420746F2081
:10CBB000737562673A00000041505300802B0020DB
:10CBC000527820646F6E653A0000000010B500884E
:10CBD00040BAFDF73FFEBDE81040DD2002F080BE08
:10CBE00010B50278407802292AD30A2A10D004DC32
:10CBF000022A07D0092A1ED10AE00B2A08D00C2AE3
:10CC000019D10DE00F4A01211170FDF71DFE12E050
:10CC10000C49C91C114401F8090CFFF78DFE0AE00C
:10CC2000592808D1FDF750FD022804D00220FDF755
:10CC300005FEFDF72FFDBDE81040DD2002F050BEDF
:10CC400010BD0000802B00202DE9F05F26484168D0
:10CC5000F1B3DFF898B00E688146DBF800408768D2
:10CC60008078E11B21F07F45ED1CB0B9DFF88080B2
:10CC70004FF48030C8F84403C8F804031120FDF7CE
:10CC800077FA1120FDF77FFA4FF0010AC8F800A0EB
:10CC90002F2001F099FD89F802A0B54200D2354657
:10CCA000124BE8193C3320F07F401860DBF800108D
:10CCB0005A46091B21F07F41001B20F07F40C91C10
:10CCC00081420FD9106818602F2001F07DFD00E02F
:10CCD00004E0BDE8F05F1120FDF760BABDE8F05F49
:10CCE00002F08ABDBDE8F09F102C00200415014021
:10CCF00000100140FFB5002301244FF0A0456E460F
:10CD0000CA5CFF2A12D0D70922F0800246F82320FD
:10CD100004FA02F702D0C5F8087501E0C5F80C75F1
:10CD200005EB82020327C2F8007703E04FF0FF32E1
:10CD300046F823205B1CDBB2042BE1D301683246AA
:10CD40005FF0000001EB800452F82030C4F8603539
:10CD5000401CC0B20428F5D3FFBD73B58CB00646A5
:10CD6000002000900D9880B100246D4621460DA84A
:10CD700000F097FF30B1009805EB400084800098E8
:10CD8000401C0090641C142CF0D32C2269463046C1
:10CD9000FCF769FB0EB070BD2DE9F041178806461F
:10CDA000B81D14460D46984202D90C20BDE8F0810A
:10CDB0003188072206290AD34FF4486C4FF6FF73D7
:10CDC000614501D9994202D17088062801D21046E6
:10CDD000ECE7604501D99842F9D1994203D09842D5
:10CDE00001D08142F3D80520E85520881221401C4B
:10CDF00080B2208029542088401C80B220804119B4
:10CE0000308803F019FA2188084480B22080411943
:10CE1000708803F011FA2188084420800020C5E7BB
:10CE2000FDF732BF38B54A7A0F4B62B100220A7261
:10CE30005969002906D001228DF80020ADF80200C2
:10CE40006846884738BD0A7A62B19B684C680246DA
:10CE500019462046FDF760FF0028F3D0BDE83840B2
:10CE600002F05EBD5B68F1E7C831002040009230FF
:10CE7000C0B270472DE9F0438946002105460846B7
:10CE8000294B941E30E000BF15F801806E1803EBAB
:10CE9000980C77784FEA88784FEA986848EA17182C
:10CEA000B6783F07BF0E47EA961706F03F069CF894
:10CEB00000C013F80880DF5D9E5DBCF1FF0F31D02C
:10CEC000B8F1FF0F2ED0FF2F2CD0FF2E2AD048EA2A
:10CED0000C1C46EA071609F800C009EB0007C91C3C
:10CEE000801C7E7089B280B2A142CDDBA14216D1F6
:10CEF0006A5C29444C7803EB92019207920E42EA55
:10CF0000141209789A5CFF290CD0FF2A0AD042EA51
:10CF1000011109F80010401C80B2BDE8F083521ED8
:10CF20009142FAD10020F8E7B8090200F0B50646B0
:10CF300000206FF00705012439E000230B5406EBB5
:10CF4000400701E0042B16D297F801C04FEA430EC8
:10CF50002CFA0EFC0CF0030CBCF1020F21D0BCF13A
:10CF6000010F27D111F800E004FA03FC4EEA0C0E81
:10CF700001F800E015E016F810C005EB430E2CFA9E
:10CF80000EFC0CF0030CBCF1020F0AD0BCF1010F37
:10CF900010D111F800C004FA03FE4CEA0E0C01F89F
:10CFA00000C05B1CDBB2082BCCD3401C80B2B0EBC2
:10CFB000520FC2D3F0BDF0B587B00C4607461646F7
:10CFC000142101A8FCF768FAA07800B901208DF8B7
:10CFD0001A002088ADF8180006A80190A0796946CB
:10CFE00002F03AFD6D46E079691C02F035FDE0780B
:10CFF00000289DF8020002D040F0080001E020F077
:10D0000008008DF80200217911B140F0100001E014
:10D0100020F010008DF80200617911B140F001009C
:10D0200001E020F001008DF80200217A09B102210F
:10D0300000E0012161F342008DF802000295608951
:10D04000ADF80C00A089ADF80E00E089ADF8100035
:10D0500020690590324601A93846ABDF07B0F0BD24
:10D06000704700000E4910B50A784C780023A242A0
:10D0700012D0521CD2B20A70022A00D10B70084A98
:10D080000B780C3252F8232002608868104420F09C
:10D090007F408860012010BD0360002010BD0000AB
:10D0A000102C0020F0B50023054618461E4C521ED9
:10D0B00024E0EF18EE5C97F801C004EB161706F0B9
:10D0C0000F0697F800E0A75D04EB1C160CF00F0CA0
:10D0D0004FEA8E0E4EEA171E367814F80CC001F88F
:10D0E00000E03F0147EA960E0F189B1C87F801E00D
:10D0F0004CEA8616C01CBE709BB280B29342D8DB4D
:10D10000934210D1EA5C04EB121302F00F021B7879
:10D11000A25C9B0043EA12130B54401C80B2120124
:10D120000A54401C80B2F0BDA8090200F0B50023EB
:10D130002EE0002401EB430501F813406C7001E080
:10D14000042C0ED2C65CE640F60701D0012600E0B2
:10D1500002266700BE406F783E436E706FF007078F
:10D1600010E0C65CE640F60701D0012600E002268A
:10D1700007EB440C06FA0CF611F813C046EA0C064D
:10D1800001F81360641CE4B2082CD9D35B1C9BB279
:10D190009342CED30120F0BD70B50D460D49034634
:10D1A00014464978002049B101290DD002290AD13D
:10D1B0002946BDE870401846FFF75CBE1946284670
:10D1C000FCF751F9204670BD2946BDE8704018466D
:10D1D000FFF7ACBE802B002070B50B460F491546FB
:10D1E0000024497821B1012908D0022913D10EE089
:10D1F00001461846FCF737F92C460CE01946FFF7B4
:10D2000095FF40B14FF6FF7000EA450403E0194670
:10D21000FFF748FF0446204670BD0000802B002029
:10D2200028B1012803D0022801D00020704702490C
:10D230004870012070470000802B00202DE9F84342
:10D24000104D0F4680461E4691466946286800F0FC
:10D25000F1FC040014D01C21FCF71EF90120207100
:10D26000C4F81490380BC4F80080C4E90260694621
:10D27000286800F000FD02F091FA0020BDE8F88374
:10D280000420FBE73C07020030B50446006887B085
:10D290000D46806800281FD018216846FCF7FCF86E
:10D2A0000195A0680590207910B1012810D107E000
:10D2B00001208DF8000020690290E068039005E0ED
:10D2C00002208DF80000E06800030290606904907D
:10D2D000206881686846884707B030BD2DE9F04175
:10D2E00088B0012269463B48FCF77DFE002835D016
:10D2F000FDF7E4F99DF8000005260227AA25364C23
:10D300004FF0BB080B2861D2DFE800F060060C127A
:10D31000191F262B363D490000210220FCF79AFEFA
:10D3200001200AE000210120FCF794FE677011E063
:10D3300000210846FCF78EFE032060700AE0002101
:10D340000220FCF7D9FE0420F7E700210846FCF78D
:10D35000D3FE6670A57030E002F078FD08B0BDE83D
:10D36000F08107206070FCF717FBE070401E632817
:10D3700021D8A57004210EE09DF801100DF10200E6
:10D3800002F0BAFBEAE709206070A570E770267129
:10D390006771A67118E01048FCF7D0FBDEE70822A1
:10D3A0004FF4183106A8FCF727FD0A2060700B49DE
:10D3B0000798884203D084F802800321EBE70648EF
:10D3C000A570401E069941600721E4E76070DD20EA
:10D3D000A070F2E7C8300020A92B002055AA55AA5A
:10D3E00070B50D460446B0F89810D0F894000122AC
:10D3F000FDF7BCFF00B1057004F13C0204F194019B
:10D4000004F1540072DF70BD7047704710B50A49CF
:10D4100041600A4800F05AFC58B901F005F9074983
:10D420001C238C22087404488C39001F006800F00B
:10D43000EEFB002010BD000040070200C4350020B4
:10D440000146034802888A4200D00020704700004D
:10D45000B43100207CB504460078134D98B1012802
:10D4600010D1A38A11A118A02269FCF7E3FDA18ABB
:10D47000002907D02069FCF7C7FB012028703B2159
:10D48000688876DF7CBD01AA694668888EDFA38A3A
:10D490000EA10DA02269FCF7CDFDA18A9DF9002007
:10D4A0002069FCF725FA7CBD082B002043757374B6
:10D4B0006F6D206E616D65206163636573732C20F1
:10D4C00077726974653A0000424C450044617461AA
:10D4D000206163636573732C2077726974653A0009
:10D4E00070B50C464FF488760546314600F012FFC1
:10D4F00050B13146284600F012FF6079400703D54D
:10D50000216809B1012088474FF48A7631462846C0
:10D5100000F000FF50B13146284600F000FF60796E
:10D52000000703D5216809B1022088474FF48E76A1
:10D530003146284600F0EEFE50B13146284600F054
:10D54000EEFE6079C00603D4216809B10020884747
:10D550004FF482763146284600F0DCFE00280CD0DD
:10D560003146284600F0DBFE0120207121680029A9
:10D5700003D0BDE870400320084770BD0248007A20
:10D58000002800D001207047C4350020F0B5848801
:10D59000A518944200D82246A41AC288D6189A42E6
:10D5A00000D81346D21A4B880788BB420CD3408858
:10D5B000834209D88888A04206D3A84204D8C888E4
:10D5C000904201D3B04201D90020F0BD0120F0BD4E
:10D5D00070B500210A4D01224FF0A04320FA01F45A
:10D5E0006E5C14F0010F02FA06F402D0C3F80C4589
:10D5F00001E0C3F80845491CC9B20229EED370BD49
:10D600001C08020070B5264C0021D4E901329A4270
:10D6100008D33BB121706160A160BDE8704000207B
:10D62000FFF7D6BF01781E480329007A00F00100F9
:10D6300012D0042916D0052931D10320B2FBF0F114
:10D6400000FB1121174B53F82150B2FBF0F100FB06
:10D650001120A3F11A010AE01249103951F82050A3
:10D66000103904E00F49083951F820501639085C88
:10D67000FFF7AEFF690CE8034FF4FA72801841F12E
:10D68000000152000023FBF7ADFE01460548044AA5
:10D690002038C068FDF740FBA068401CA06070BD4A
:10D6A000382C002038080200F72101801721418022
:10D6B00000210171417170472DE9F047394E002773
:10D6C00080463D46DFF8E090D6F804A057E003D04E
:10D6D0000446D0F81C8035E099F8002002EB4201A6
:10D6E000521CD2B289F8002009EBC10199F802302E
:10D6F000091D9A4201D189F8005048680A78044609
:10D70000012A12D0022A02D0032A3BD108E002F0FB
:10D71000EFFC00B10127257434E00574C06900E016
:10D7200070680028F9D170602CE0207C50BB8868BC
:10D730006060C868A0600869E0604869A061F0782E
:10D7400000B165606268B168184B501A20F07F40E4
:10D75000984202D2A168084406E0881AA16820F025
:10D760007F40814202D9081A206000E02560656090
:10D770000120A56020742046E56102F09BFCB8F111
:10D780000000A4D199F8001099F801008142A3D1BA
:10D7900017B97168514502D00120BDE8F08700201B
:10D7A000FBE70000102C002014330020FFFF7F0057
:10D7B000FDF758F8FCF7E4F9FCF784F8FCF724F9D6
:10D7C000FCF73EFBFCF7F4F8FCF7AEFFFCF78AFA37
:10D7D000FDF746F8FCE770B5144682880E4605460C
:10D7E0002088111D0144921C994201D8FE2A01D9BA
:10D7F0000C2070BD521C32542088FF21401C80B286
:10D80000208031542088401C80B2208081192888D3
:10D8100002F012FD2188084480B22080AA8842B11B
:10D82000A96841B13044FBF71EFE2088A98808444E
:10D830002080002070BD072070BD00002DE9F0475A
:10D84000894606469046002402210120FCF788FD07
:10D850006B210120FCF7D8FD04210120FCF780FD9D
:10D86000FDF71AF91C4D07460120FCF713FD30B9EE
:10D870000120FCF724FDB8B13055641CE4B26B2CD8
:10D8800012D2B8F1000F04D0FDF706F9C11B4145D3
:10D8900008D8FCF7B3F828B128780028E4D0022093
:10D8A000BDE8F0870120FBE7A4B1301910F8010CA6
:10D8B000802801D0C02803D1641E14F0FF0409D0D1
:10D8C000A8880021401CA8800120FCF7FBFCE86030
:10D8D00089F800400020E3E7982B00202DE9F04173
:10D8E000002602210120FCF73BFD0120FCF7A4FCEF
:10D8F0001A4DAC78422C00D342242246184901200C
:10D90000FCF7C8FD05210120FCF72AFD144F09E0B2
:10D9100002F05FFE00281FD0395D0120FCF7DAFD20
:10D92000641CA4B2A87884424FF00100F0D302F046
:10D9300050FE18B131460120FCF7CCFD0125002432
:10D940002846FCF7A7FC002806D10120FCF712FBB3
:10D95000641CA4B2962CF3D3BDE8F081982B002070
:10D96000A82F002010B51C4C02220229627001D0A1
:10D97000CC2027E00278194912B1012A1AD10EE011
:10D98000427881F8242040784FF00001012804D02B
:10D990005FF00000FCF75EFB0CE00420FAE7427841
:10D9A00081F825204078012813D000214FEA01009A
:10D9B000FCF7A2FB0A48002240F28F210068FDF725
:10D9C000ABF9AA20A070BDE8104003210248FCF783
:10D9D000B5B801210846EBE7B92B00205C310020E7
:10D9E000B406020010B5094C607850B1012104F171
:10D9F0000C0001F00BF804F10C0001F01BF8002002
:10DA0000607003490220C1F8000710BD442C0020BB
:10DA1000780000503EB51C491C4C07C98DE8070032
:10DA20001E208DF80000FF208DF801008DF8020007
:10DA30008DF803004FF47A70ADF808006078002884
:10DA400020D10022694604F10C0000F025FF08B146
:10DA5000FDF71AF9BDF808006421B0FBF1F000EB06
:10DA6000C00101EB00104FF6FF7101EA4000608039
:10DA70000549064802230122A4390C3000F08EFF2C
:10DA8000012060703EBD0000F0080200442C002020
:10DA900070B52F4C0022D4E90131994207D333B13C
:10DAA00022706260A260BDE87040FFF79BBF027801
:10DAB0000D20062A39D2DFE802F0380306091739AB
:10DAC0004FF4967541E04FF416753EE0B1FBF0F26D
:10DAD00000FB12121F4B53F82250B1FBF0F200FB77
:10DAE000121003F1780106E001F003001949343106
:10DAF00051F820504839085C012826D0FFF772FF02
:10DB0000690CE8034FF4FA72801841F100015200E9
:10DB10000023FBF767FC01460E480D4A18380068E1
:10DB2000FDF7FAF8A068401CA06070BDB1FBF0F2F0
:10DB3000084B00FB1212443353F82250B1FBF0F2B1
:10DB400000FB121003F14101D5E7FFF763FFD7E7B0
:10DB5000442C00205C080200F8B50F4601781446FA
:10DB60000546012901D1687830B12088821C9A428B
:10DB700032D8012902D006E00720F8BD69780144B7
:10DB8000891C994228D8181A801E86B2ADF8006008
:10DB90002188B81C084469467DDF0028EDD129782A
:10DBA000022904D06878BDF80020904205D3BDF862
:10DBB0000000B04201D809200AE00820012905D15F
:10DBC0006978B14202D8ADF8001001E0ADF800600C
:10DBD000BDF80010FE2901D90C20F8BD2288491C8F
:10DBE000B9542188491C89B2218078542088401C6E
:10DBF0002080BDF80010084420800020F8BD10B53A
:10DC0000FBF753FB08B1002010BD112010BD10B56B
:10DC100031B1B2FBF3F403FB14241CB1092010BD95
:10DC20000E2010BD01600021416081608281C381AE
:10DC3000084610BD70B50C460546FBF7EBFA002808
:10DC400002D021882868084470BD10B50A88498828
:10DC50008A4203D1FBF720FB012010BD002010BD3C
:10DC600070B50C460546FBF7FAFA002802D0618829
:10DC70002868084470BD10B50A8849888A4203D1D3
:10DC8000FBF7E4FA012010BD002010BD01F01F03D6
:10DC900001229A40D243490900EB8100114600F06D
:10DCA00018B84A0950F8220001F01F0201219140E2
:10DCB000084000D00120704701F01F0301229A4064
:10DCC000490900EB8100114600F013B8012100F072
:10DCD00006B808B56A46FBF71AFB009808BD08B5F8
:10DCE0006A46FBF707FB08BD08B56A46FBF7F6FA7C
:10DCF00008BD08B56A46FBF7FDFA009808BD28B1D3
:10DD0000A1F11702E12A03D3072070470E207047C4
:10DD100001800020704710B560B1C160F72120F884
:10DD2000021B20F8021BFB2100F8021BFFF7BCFCC2
:10DD3000002010BD0E2010BD2DE9FC4786880C4642
:10DD4000002E4AD1018801270025102908D0112969
:10DD500020D0DFF8EC903A2920D0552965D13EE05B
:10DD6000C07B04F10608012802D12088A8F8000031
:10DD7000B8F80010B8F80200814256D93046A5DF45
:10DD800010B1112803D050E088F805704DE088F8F4
:10DD900004704DE0A01DFFF787FC46E02246408955
:10DDA00034F8061F814200D808466080172800D248
:10DDB00017206080D06870B1607960B1D9E9001037
:10DDC000CDE90010ADF802606088ADF80400D368BA
:10DDD00069461046984765712571BDE8FC87C08883
:10DDE00004F10608172800D21720B8F80010814265
:10DDF00000D80846A8F8020088F804502846B8F869
:10DE00000010B5DF98F8050078B9E06868B1D9E985
:10DE10000210CDE90010ADF80260B8F80200ADF8CC
:10DE20000400E268204669469047A07A0028D4D0D2
:10DE30002846E188A5DF0028CFD1A572E772CCE79C
:10DE4000BC06020020B10278DE2A03D00820704709
:10DE50000E20704741800020704760B159B10278B0
:10DE6000DE2A0AD009684160DE2101704FF6FF7199
:10DE70004180002070470E207047082070477FB512
:10DE8000054600294DD0002D4BD008780C46DE28E1
:10DE900047D1A8886188884202D1204602F0EFFA73
:10DEA0002888012825D002283BD011283AD05128B3
:10DEB00037D135F8040F6188884232D1A978A81C7F
:10DEC00002292ED1017A042903D0062901D005297F
:10DED00027D10021009102228DF8002001914FF4FA
:10DEE000C07202910391ADF80420007A05280FD08A
:10DEF00010E0297A2046012913D1A988428891424D
:10DF00000FD10121017204B0BDE8704002F0B7BA30
:10DF1000ADF8041028886946B0DF002801D0616898
:10DF200088477FBDA88861888842FAD14FF6FF7084
:10DF300060807FBD00F180400068002800D0012093
:10DF4000704708B500F18040002101600068009032
:10DF500008BD40F6F8700068411C02D14FF0102057
:10DF60004069411C01D013DF704704207047000056
:10DF7000014813DF704700000090010070B50B4CA2
:10DF8000207808B185250FE00020A0606060206146
:10DF9000E060074800F0C6FB054600F045FB08B905
:10DFA00000F0A6FB01202070284670BDA0320020A2
:10DFB000CDC9010038B500258DF800506846FCF742
:10DFC000FFFE074CE068401EE060E06810B900F01A
:10DFD000E5FBA5709DF80000FCF716FF38BD0000BA
:10DFE000A03200202DE9FF411C460378164D174E44
:10DFF00045F823202D1D45F82340F0CE8DE8F00094
:10E000000C788DF800404C788DF801408C788DF8B4
:10E010000240CC788DF803400C798DF805404C799E
:10E020008DF806408C6802940C7B8DF80C40497B7F
:10E030008DF80D1002B1064A6946001D00F0ACFED5
:10E0400004B0BDE8F0810000EC2B0020EC060200DB
:10E05000EDFC01001FB5001D069C8DE81E0000228E
:10E06000694600F097FF04B010BD2DE9F0411F464E
:10E07000164604000D4616D02068B8B1C6B16068D7
:10E080000268501E284215D172432046FCF795FDC8
:10E0900080B120683B463246D0F810C02946204661
:10E0A000BDE8F04160470E20BDE8F0810820FBE7A5
:10E0B0000920F9E71020F7E720B119B101600B68DA
:10E0C000114618470E2070472DE9F04128B101682C
:10E0D00019B1C969BDE8F04108470D4D0D4800244C
:10E0E000461B14270DE000BF04EB840005EB800005
:10E0F000016829B1C969884710B10120BDE8F081E4
:10E10000641CB6FBF7F0A042EED80020F6E7000052
:10E11000182D00202C2D0020044801214174007A84
:10E1200008B100207047012070470000C43500206E
:10E13000012801D0032808D10449002201284A748B
:10E1400000D00020087401F0D9BA7047C43500200F
:10E1500070B50246022801D0032A45D1234C207A0B
:10E16000002841D0012833D0022831D12048002393
:10E17000022A006802D0032A2AD11BE0E360017959
:10E1800011B1012924D10DE0D0E90565711B4FF4CF
:10E190008056B14200D33146294481614569A94284
:10E1A0000ED015E00169491C0161426991420FD10D
:10E1B000237213E0E168491CE160082908D9E36093
:10E1C0002372022A0AD00D21FFF75EF801F08CFAC3
:10E1D000607C28B1BDE8704000F02CBA0021F3E764
:10E1E000BDE8704001F08ABA70BD0000C43500205F
:10E1F0002C2C00202DE9F8431D46089F1646884622
:10E2000004000DD066B1206860B135B16068406827
:10E21000B5FBF0F100FB115030B10920BDE8F883E7
:10E220000E20FBE70820F9E74046FCF7C0FC90B160
:10E230003046FCF7BCFC70B12A4641462046FCF74C
:10E24000BCFC40B1009720682B463246C768414667
:10E250002046B847E2E71020E0E770B541EA420106
:10E26000DDE904564FF0A04441EA830141EA05216B
:10E2700004EB800041EA0641C0F8001770BD70B59C
:10E2800041EA4201DDE904564FF0A04441EA83012E
:10E2900041EA052104EB800041EA0641C0F800177D
:10E2A00070BD1CB5002100910B4601220191FFF7C2
:10E2B000E6FF1CBD1CB5002100910B460122019117
:10E2C0001146FFF7CAFF1CBD1CB5002100910B468B
:10E2D000012201911146FFF7D2FF1CBD4FF0A04271
:10E2E00001218140C2F80C1570474FF0A042012176
:10E2F0008140C2F80815704708B500F1804001461A
:10E300000068002220B101200A600968009108BD60
:10E31000104608BD4058002800D00120704708B5BD
:10E32000002242504058009008BD00EB4110136895
:10E33000C0F820359188C0F824159168C0F82815D8
:10E34000D168C0F82C157047064910B500204870F8
:10E35000091D0860BFF35F8F0349044800F096F978
:10E36000002010BD242C0020300702001C350020A6
:10E3700010B500F059F908B141DF10BD20BF40BF12
:10E3800020BF10BD70B504460C480121FFF7ACFC5E
:10E39000BFF35F8F0025002809D10120074E042C10
:10E3A00008D0311F4A781AB1BFF35F8F356070BD56
:10E3B0000C70487001F068FBF6E70000282C002084
:10E3C000FCF762BC024A1060101D0160704700003B
:10E3D0002C760040030103481844C0F81425C0F807
:10E3E000101570470070004002494058002800D0C6
:10E3F0000120704700700040034908B5084400221E
:10E4000002600068009008BD00700040024619B12B
:10E4100040205100884070478020FAE720B103492E
:10E4200009680160002070470E207047E407020071
:10E43000FEB506460C460846FFF7F0FF002841D11E
:10E44000002500950195012706208DF80060ADF8A4
:10E45000040002958DF8027069462020226869DF69
:10E460000095019502958DF801706946402022685B
:10E4700069DF00958DF80060F720ADF80200019586
:10E48000029569462320226869DF009509208DF8EE
:10E4900000000195029569460120226869DF40F677
:10E4A000B8300090019502956946A120226869DF85
:10E4B0000095019502958DF800506946A0202268CC
:10E4C00069DF0020FEBD000060DF002802D1024AA3
:10E4D0000121117070470000372C002030B515481D
:10E4E000ADF5017D0078002821D04FF4FA7500BF0A
:10E4F000ADF8005280A9684661DF38B1052816D012
:10E500000DF5017DBDE83040FCF7BEBB6C460A4905
:10E510007DA800F0BBF806E0D0E900212046904736
:10E520007DA800F0CAF87F980028E1D0F4E70DF547
:10E53000017D30BD372C0020E8070200F8B5134CF0
:10E540002078C0B10120A07001F09CF9112814D0EE
:10E55000022001F0AFF900258DF800506846FCF765
:10E560002FFC11DF064625709DF80000FCF74CFCDF
:10E570002EB13046F8BD0820F8BD0020F8BDA570CA
:10E5800001F0F8FA032001F095F9F6E7342C0020A9
:10E590007CB5194C207808B108207CBD0120A07002
:10E5A000002001F06FF9112819D0002001F082F944
:10E5B00012480026006801908DF800606846FCF75C
:10E5C000FFFB0F4901A810DF05000AD000202070D2
:10E5D0009DF80000FCF718FC2DB128467CBD0020FA
:10E5E0007CBD0120F3E7A670667001F0DFFA012020
:10E5F00001F060F9F3E70000342C00207C070200F2
:10E6000059AC01000EB50749684600F03FF805E037
:10E61000D0E900108847684600F04FF802980028BB
:10E62000F6D10EBD9807020001480078704700003F
:10E63000342C00200548817819B1007818B1FFF713
:10E640007DBF08207047FFF7A3BF0000342C0020D7
:10E650001FB568464BDF30B1052814D004B0BDE8C3
:10E660001040FCF711BB084901A800F00FF806E0C4
:10E67000D0E900210098904701A800F01EF8039807
:10E680000028E6D0F4E71FBD040802000160096815
:10E690004160AFF3008010B5D0E900215368994282
:10E6A00001D1002104E0D1E90034A34202D019468F
:10E6B000816010BD08314160F0E7816800290BD00E
:10E6C000026892680A44826041684B689A4203D1AA
:10E6D00008314160FFF7DFBF70474058002800D085
:10E6E0000120704708B5002242504058009008BDF4
:10E6F00009480168012011F0010F06D14FF0E02117
:10E70000C02281F80024C1F80001044A01211160EF
:10E71000034908707047000000E100E01805004060
:10E72000D82B00200649024600200B790BB185202A
:10E7300070470A6001220A7100224A717047000086
:10E74000DC2B002070B54FF480763046FFF7F2FBEB
:10E75000114CB50560B13046FFF7F3FB0120C5F859
:10E760000803607920B90120607121680020884782
:10E770004FF482763046FFF7DDFB00280AD03046A2
:10E78000FFF7DFFB0220C5F808032168BDE87040F1
:10E790000120084770BD0000DC2B00200449012047
:10E7A000086004480168C1F300410029FAD17047AC
:10E7B0000C00004018040040002802D001498001EC
:10E7C0000847704701070200002802D00149800174
:10E7D0000847704711070200002802D00149800154
:10E7E00008477047110802000121B1EB507F01D1A9
:10E7F000012070470020704770B54FF08040D0F87E
:10E800000443114D600706D54FF48470FFF774FD83
:10E8100008B168688047A00607D54FF48A70FFF7F3
:10E820006BFD10B1A9680020884760060AD54FF437
:10E830008C70FFF761FD002804D0A968BDE8704026
:10E840000120084770BD0000042C002038B50D469B
:10E8500000F03EFF040014D000208DF80000684650
:10E86000FCF7AEFA207928B19DF80000FCF7CCFA4D
:10E87000112038BD0120256020719DF80000FCF7B3
:10E88000C3FA002038BD10B500F022FF002802D0E6
:10E8900000210160017110BD2DE9F0410D460446D3
:10E8A0000079314901EBC006307910B10820BDE88C
:10E8B000F081294620463260FEF71CFA20680127C5
:10E8C000C0F8007520686B79AA792989C0F80C35E1
:10E8D000C0F80425C0F80815A97AEA7A206841EA48
:10E8E0000221C0F8101520680021C0F8001220682D
:10E8F000C0F800134FF48E712068FFF710FD4FF43D
:10E9000088712068FFF70BFD4FF48A712068FFF7CC
:10E9100006FD4FF482712068FFF701FD3068F8B101
:10E920002068297940F3073000284FEA411106DAC0
:10E9300000F00F0000F1E02080F8141D03E000F16A
:10E94000E02080F80014206840F3073000F01F0139
:10E9500007FA01F14009800000F1E020C0F8001141
:10E9600037710020A3E70000FC2B002070B501796F
:10E97000094A002402EBC1052979022900D00124AB
:10E9800000684FF48271FFF7C5FC10B101202871B7
:10E990000446204670BD0000FC2B00202DE9F0410C
:10E9A0000F46044600791849164601EBC0081D467B
:10E9B0003A4600212068FFF7B8FC3A46012120685A
:10E9C000FFF7B3FC206806F0010101EB5602C0F826
:10E9D0001425E80701D0102007E0A80704D509B1E5
:10E9E000082002E0042000E000202268C2F80002B3
:10E9F00009B10C2300E00823EAB241462046BDE8F5
:10EA0000F04101F0EDB90000FC2B002070B50D467F
:10EA100006460024FFF7AAFF30B9306801214160A3
:10EA20003046FFF7A3FF08B1012401E0002DF7D124
:10EA3000204670BD10B501790A4A012302EBC102DC
:10EA4000016841F3073101F01F04A340490989001F
:10EA500001F1E021C1F8803100680021C0F8001503
:10EA6000117110BDFC2B002070B50C4626490A7CA4
:10EA70000AB1112070BD2279244D0AB1012A01D1B9
:10EA800000222A6001EB4002137F1BB911F82D3FD1
:10EA90005B1C0B70E1791177217A517721786278CC
:10EAA000302301F0030103EA02121143A2784FF46C
:10EAB000E06303EA02221143E2784FF4805303EA51
:10EAC0000232114322794FF4E02303EA0242114358
:10EAD00062794FF4801303EA02521143A2791B01B9
