:020000040001F9
:10900000B83C0020F9920100019301000393010094
:10901000059301000793010009930100000000007F
:109020000000000000000000000000000B930100A1
:109030000D930100000000000F9301001193010047
:109040007196010013930100359A010013930100FA
:109050001393010000000000A99401001393010084
:109060001393010013930100139301001393010064
:109070001393010013930100139301001393010054
:1090800013930100C996010013930100139301008B
:109090004D970100139301005197010013930100B4
:1090A0001393010013930100000000000000000072
:1090B0001393010013930100000000000000000062
:1090C00000000000000000000000000000000000A0
:1090D0000000000000000000000000000000000090
:1090E0000000000000000000000000000000000080
:1090F0000000000000000000000000000000000070
:10910000000000000000000000000000000000005F
:10911000000000000000000000000000000000004F
:10912000000000000000000000000000000000003F
:10913000000000000000000000000000000000002F
:10914000000000000000000000000000000000001F
:10915000000000000000000000000000000000000F
:1091600000000000000000000000000000000000FF
:1091700000000000000000000000000000000000EF
:1091800000000000000000000000000000000000DF
:1091900000000000000000000000000000000000CF
:1091A00000000000000000000000000000000000BF
:1091B00000000000000000000000000000000000AF
:1091C000000000000000000000000000000000009F
:1091D000000000000000000000000000000000008F
:1091E000000000000000000000000000000000007F
:1091F000000000000000000000000000000000006F
:10920000DFF80CD000F012F90048004705BE01005D
:10921000B83C002030B4044654E8000F0D4644E842
:109220000053002BF8D1156030BC704730B40446B1
:1092300054E8000F40EA010544E80053002BF7D141
:10924000156030BC704730B4044654E8000F00EAA3
:10925000010544E80053002BF7D1156030BC70477E
:1092600030B4044654E8000F80EA010544E8005396
:10927000002BF7D1156030BC704730B4044654E879
:10928000000F00EB010544E80053002BF7D11560F7
:1092900030BC704730B4044654E8000FA0EB010521
:1092A00044E80053002BF7D1156030BC704770B410
:1092B00004464FF0000054E8006F0D68AE4207BF4F
:1092C00044E80023012044E800630E60002B1CBF2B
:1092D0000020F0E770BC704730B4044654E8000F3B
:1092E00088422CBF451A054644E80053002BF5D1AF
:1092F000156030BC704700000648804706480047AC
:10930000FEE7FEE7FEE7FEE7FEE7FEE7FEE7FEE735
:10931000FEE7FEE755970100019201002DE9F05F9D
:109320000546002092469B468846064681464024D4
:109330001BE0284641464746224600F067F8534660
:109340005A46C01A914110D311461846224600F0E1
:1093500016F82D1A67EB01084F462246012000211E
:1093600000F00DF817EB00094E41201EA4F1010496
:10937000DFDC484631462A464346BDE8F09F202AB6
:1093800004DB203A00FA02F1002070479140C2F15C
:10939000200320FA03F319439040704700487047B8
:1093A000BCF0010040EA01039B0703D009E008C9B3
:1093B000121F08C0042AFAD203E011F8013B00F89A
:1093C000013B521EF9D27047D2B201E000F8012BE6
:1093D000491EFBD270470022F6E710B513460A4635
:1093E00004461946FFF7F0FF204610BD421C10F856
:1093F000011B0029FBD1801A7047034611F8012B8D
:1094000000F8012B002AF9D118467047202A04DB06
:10941000203A21FA02F00021704721FA02F3D040ED
:10942000C2F120029140084319467047064C074D8F
:1094300006E0E06840F0010394E807009847103424
:10944000AC42F6D3FFF7E0FE20F7010040F7010041
:1094500070B58C1810F8015B15F0070301D110F8F6
:10946000013B2A1106D110F8012B03E010F8016B23
:1094700001F8016B5B1EF9D12B0705D40023521EA6
:109480000DD401F8013BFAE710F8013BCB1A921C0E
:1094900003E013F8015B01F8015B521EF9D5A1420C
:1094A000D8D3002070BD00002DE9F04700268AB017
:1094B000DFF85091B0464FF4807501243746069688
:1094C000284603F0B1FA38B1D9F80403204203D09A
:1094D000284603F09FFA26432D1D64007F1CADB281
:1094E000082FEDD34FF4BE74204603F09DFA48B127
:1094F000204603F08FFA46F0004606AA012100201C
:1095000003F074FA404D16F0FF0F15D00127002428
:1095100037420DD009EB8401D1F81005D1F81015B0
:10952000C0F3042055F82420C1F3014102B1904753
:109530007F00641C082CEBD3002E5FDA4FF0FF3065
:10954000CDF8108054E0281910F8507F90F90000F1
:1095500027F0C008401C3BD007A9404602F0FFFEA0
:1095600010B34FEA9719404601F00EFF55F82070EE
:109570001FB1B9F1030F03D006E0B9F1030F27D1F2
:1095800004A9404602F0F3FE4FF0A04101EB880031
:10959000D0F8000706A9C0F3014A404602F0DFFEFA
:1095A00018B1BAF1020F03D012E0BAF1030F0FD1D4
:1095B000B9F1030F08D1BAF1020F1DD002214046C4
:1095C00003F0F8F9761CF6B217B149464046B847A1
:1095D000641C042CB7D3002E10D06A460121002051
:1095E00003F004FA06990098884207D00690049880
:1095F000002634460790A6E70321E0E70AB0BDE85D
:10960000F087000000600040602A002000F01F0288
:10961000012191404009800000F1E020C0F8801253
:10962000704700F01F02012191404009800000F1C5
:10963000E020C0F80011704700F01F0201219140A6
:109640004009800000F1E020C0F80012704749078F
:10965000090E002806DA00F00F0000F1E02080F883
:10966000141D704700F1E02080F8001470470000DE
:1096700070B54FF48076304602F090FF114CB5057E
:1096800060B1304602F091FF0120C5F8080360790F
:1096900020B9012060712168002088474FF482764C
:1096A000304602F07BFF00280AD0304602F07DFFF2
:1096B0000220C5F808032168BDE870400120084772
:1096C00070BD00006025002007480021C0F840114F
:1096D000C0F84411C0F84811C0F84C11C0F800118E
:1096E000C0F8041104F0C2BF0010014000F0A8B996
:1096F00070B50E46144900EB400001EBC00514465E
:10970000E86A183520B101280FD0022805D113E0EE
:10971000284600F0C9F9A04201D2002411E02246F7
:109720003146284600F0F8F90BE0284600F0BCF975
:10973000A042F4D20446F2E73146284600F0BFF9D1
:109740000446204670BD00002C32002004F0DCBE30
:1097500003F08ABE2DE9F047A44E4FF08054371D28
:1097600031783D1D4FF0010906290BD138780007EB
:1097700008D12878C0F30310032806D0042804D0A9
:10978000052802D0062907D011E0B4F8240398492F
:10979000C0F30420086002E03878000707D1287879
:1097A000C0F30310032802D193499248486702F09E
:1097B0005BF828B1D4F844029049C0F34230086005
:1097C0003078B04606280CD13878000709D12878BF
:1097D000C0F30310032804D18948016821F0807187
:1097E000016002F067F8002640B14FF08040C0F8F9
:1097F0000C61C0F810618148001F066098F80000F5
:10980000062807D13978090704D12978C1F3031153
:10981000032902D0062805D019E0784A03216432D2
:10982000116007E03978090711D12978C1F30311D4
:1098300003290CD1734B05221A60724A7832C2F8A0
:109840000090704908310E603F211A1D1160D4F854
:1098500030110A2904D1D4F834215AB1012A09D08F
:10986000062807D13A78120704D12A78C2F30312E6
:10987000052A55D1644A1268644B1A60624A121D67
:1098800012681B1D1A60604A083212681B1D1A609C
:109890005D4A0C3212681B1D1A605B4A1032126856
:1098A0001B1D1A60584A143212681B1D1A60564A52
:1098B00018321268554B20331A60534A1C32126812
:1098C0001B1D1A60504A203212681B1D1A604E4A36
:1098D000243212681B1D1A604B4A283212681B1D65
:1098E0001A60494A2C3212681B1D1A60464A3032EF
:1098F0001268464B40331A60434A343212681B1DCB
:109900001A60414A383212681B1D1A603E4A3C32C6
:1099100012681B1D1A603C4A403212681B1D1A60F7
:109920000A2905D1D4F8341111B9394AFB21116043
:10993000062811D1387800070ED12878C0F303101B
:10994000032803D0042801D0052805D1D4F85802F3
:10995000304900F04F00086001F060FF30B12E4840
:109960000168C90702D06FF001010160D4F830012D
:10997000062808D1D4F83401062804D12748016804
:1099800041F4806101604FF01021D1F800020028FD
:1099900003DBD1F80402002823DA214AC2F8009040
:1099A00020480368002BFCD01523C1F8003204685E
:1099B000002CFCD0C1F8043201680029FCD01660EC
:1099C00001680029FCD0BFF34F8F0D48F0380168C3
:1099D000154A01F4E06111430160BFF34F8F00BFEE
:1099E000FDE7134911480860BDE8F087E00F00F07B
:1099F000403501400DF0ADBA00C007403C050040C5
:109A0000FCED00E0105600400404001020C50040AA
:109A100018F50040E40E0040000400403C170040F0
:109A200004E5014000E401400400FA050090D00381
:109A30002C2600200148006800470000682500200F
:109A400010B5124C02202061606111A0A06104F1E8
:109A50007800E0614FF4007020620020A062606234
:109A60000BA1A164E06204F51E71E1641021A06500
:109A7000C4E91410E06509A1E01DFFF7BEFC08A1D0
:109A80002046FFF7BAFC2020A07110BD2C32002028
:109A90005465726D696E616C000000005254540090
:109AA00053454747455200000269C1688A4203D8BE
:109AB0008068401A104400E0501A401E70472DE99B
:109AC000F047C4681746894606464FF000083069DB
:109AD000A04201D9051B02E0B168201A0D1AB06836
:109AE0006D1E001BA84200D80546BD4200D33D466E
:109AF00070682A4620444946FFF754FCB0687F1B33
:109B00002C44A844A944A04200D10024F460002FB2
:109B1000DDD14046BDE8F0872DE9F0410446884696
:109B2000D4E90207C51BE168606816460844B542DF
:109B300006D94146FFF736FCB819E060BDE8F08170
:109B40002A464146FFF72EFC761B08EB05013246FC
:109B50006068FFF727FCE660F0E70000014A024971
:109B600000F026B84FB90100C825002002E008C85F
:109B7000121F08C1002AFAD170477047002001E087
:109B800001C1121F002AFBD17047000001212028CB
:109B900003DA81400548014003E0402802DA20381A
:109BA000814009B10120704700207047FC06FFBDCD
:109BB0002DE9F04116460F460446002503E03946DC
:109BC000B047641C6D1C20780028F8D12846BDE8F9
:109BD000F08110B501220221002001F0D5F908B171
:109BE000072810D107220221012001F0CDF908B188
:109BF000072808D100210A22084601F0C5F908B15A
:109C0000072800D1002010BD022001F0C7B80000D5
:109C100070B50024064D06E06868012110F8340094
:109C200003F0FEFC641C28788442F5D3002070BD4C
:109C300070250020F8B515460C460646052A01D2C7
:109C40000720F8BD03F0E6FD18B903F0ADFD0028CC
:109C5000F7D1124900224E600C708D60C1E90422D8
:109C6000C1E906220E4D0DE006EBC4002968009103
:109C700081788DF8011000780A4A694603F022FDC8
:109C80000028DED1641EE4B2EED2BDE8F8400448FC
:109C90000021054A001D00F07FB80000702500205B
:109CA000C0ED0100E9B901002DB7010072B603F063
:109CB00047F900BF02F088FF0028FBD11148124984
:109CC000401AC408012000EB044010A103F096F8EC
:109CD00011480068C00700D000BE022000EB04401D
:109CE0000EA103F08BF8BFF34F8F0B48E4380168E7
:109CF0000E4A01F4E06111430160BFF34F8F00BFD2
:109D0000FDE7000098F7010050F70100466174611B
:109D10006C206572726F7200F0ED00E0537973741D
:109D2000656D207265736574000000000400FA051B
:109D30000EB500210091CDE901106A4644F2010000
:109D4000FFF7B4FF0EBD10B58268C368934203D01D
:109D500001F0D6FD002010BD052010BD29B112B1C3
:109D6000531E134203D0092070470E207047016034
:109D7000838000218160C1600846704710B5826809
:109D8000C3689A1A83889A4203D801F0C3FD002061
:109D900010BD042010BD0000074B9B7823B12AB1F1
:109DA00020B10068037C1BB1082070470720704772
:109DB00041744261002070472C2B002070B504F0E4
:109DC000D1F9104800240B21047044700E4D8170AD
:109DD00014206C602C706C70FFF718FC06211420A6
:109DE000FFF735FC1420FFF71CFC0848046006212F
:109DF0001120FFF72CFC0548001F0068A860002018
:109E000070BD00002C2B002090250020081501407B
:109E10002DE9FC47DFF8789099F8023073B368B306
:109E2000052902D20720BDE8FC87436933B3437C90
:109E3000012B25D0002704460025884616468DF8BC
:109E40000050684600F0CEF801A804F0E1FEC8B169
:109E5000012101700F4944600968C0E90218C0E996
:109E600004769DF8040089F801009DF8000000F0D8
:109E7000DDF81420FFF7E0FB2846D4E70820D2E7FE
:109E80000F46D8E704259DF8000000F0CFF8F3E76F
:109E90002C2B0020041501400649897839B130B1D6
:109EA000416921B100210174022104F0BBBB0820EB
:109EB000704700002C2B002070B50A4E01460A485E
:109EC000B578FFF740FF04464DB10020B070711C1B
:109ED0000122C81D02F0DAFB08B1FFF729FF204676
:109EE00070BD0000A4250020382C0020F0B5244EC1
:109EF00089B01F460D00044672603FD0A8882968CB
:109F000082B22048FFF72AFF002835D1A889A96826
:109F100082B21C481030FFF721FF00282CD12022EC
:109F200019496846FFF73EFA60690690207C00B147
:109F300001208DF814008DF81C70607C00B10E209B
:109F40008DF81500E0680290A068039020680190E9
:109F5000606800900A480D4A6946083002F062FBCA
:109F6000002809D1B0702068401C05D004490122A6
:109F7000491CC81D02F08AFB09B0F0BD0720FBE7B1
:109F8000A4250020382C0020D8ED010095E7010021
:109F900010B501461048FFF7F1FE040019D10F4833
:109FA0000F4A0178515C19B1001D03F0B3FE02E0C5
:109FB0000C3003F097FD60B9084907480839FFF7EE
:109FC000C2FE30B9054901220839044802F06EFB8F
:109FD0000446204610BD0000482C0020AC2500207F
:109FE0005425002030B5EFF3108172B60D4A946805
:109FF000012324B10370002900D162B630BD936003
:10A000004FF0E023D3F88051074C25401560C3F88A
:10A010008041D3F8844154605A17C3F88421002248
:10A020000270E8E7582C0020FC06FFBD0B498A6847
:10A03000002A11D000280FD1EFF3108072B60B6800
:10A040004FF0E022C2F800314B68C2F80431002220
:10A050008A60002800D162B670470000582C0020AA
:10A060002DE9F041064608680C46411C4FF0A04718
:10A070004FF0010506D005FA00F1C7F80815206871
:10A0800002F084FC6068411C02D0002102F06CFCEC
:10A090003168A069C1F82405607D227D31681043D4
:10A0A000C1F86C05D4E900123068C0F81425C0F876
:10A0B0000C15207D012815D1A068411C02D000217B
:10A0C00002F052FCE068411C05D08540C7F80855F5
:10A0D000E06802F05BFCD4E902123068C0F80825A1
:10A0E000C0F81015BDE8F0812DE9F041064608687A
:10A0F0000C46411C4FF0A0474FF0010506D005FA71
:10A1000000F1C7F80815206802F04AFC6068411C9D
:10A1100002D0002102F031FC3168A069C1F82405A9
:10A12000607D217D32680843C2F86C05D4E90012D5
:10A130003068C0F80C15C0F81425207D012815D111
:10A14000A068411C02D0002102F017FCE068411C0D
:10A1500005D08540C7F80855E06802F021FCD4E935
:10A1600002123068C0F80825C0F81015BDE8F0816B
:10A1700070B51500044609D00020286034B120686D
:10A1800020B1A079800703D0072070BD0E2070BDDC
:10A19000084600F0FFFAC0B2142804D021798142A9
:10A1A00003D8042070BD052070BDE288216800FB43
:10A1B00002102860002070BD2DE9FC47002517889B
:10A1C0000646158090F82D001446894630B13A466F
:10A1D0002146484600F0F2FA051E09D1B0784FF04A
:10A1E0000C0A18B32088C846001DB84202D9504650
:10A1F000BDE8FC87684679DF0028F9D12088032173
:10A2000008F8001020881921401C80B2208008F82E
:10A2100000102088401C80B2208000EB0801BDF8AF
:10A22000000004F044FC218808442080F0780222D9
:10A23000C8B1218896F9033001F1030C4846BC45AA
:10A24000D5D8425421884FF0010C491C89B2218095
:10A2500000F801C02188491C89B2218009F8013029
:10A260002088401C20807068B8B1218890F90030A7
:10A2700001F1030C4846BC45B9D8425421880A2252
:10A28000491C89B2218042542188491C89B221800D
:10A2900009F801302088401C2080308950B1CDE978
:10A2A00000474B460622022106F1080004F0C8FCD4
:10A2B000051E9DD1308A50B1CDE900474B4607229B
:10A2C000032106F1100004F0BBFC051E90D1308B79
:10A2D00050B1CDE900474B461522142106F1180074
:10A2E00004F0AEFC051E83D1306A30B13B462246F5
:10A2F000494601F0B0F9051EDBD1706A30B13B462A
:10A300002246494601F0B4FE051ED2D196F82C0033
:10A3100038B13B4622464946304604F007F8051E50
:10A32000C7D1307838B13B4622464946304601F025
:10A3300029FF051EBDD128465AE718B5044600205E
:10A34000ADF8000013466A46204600F006F80028E3
:10A3500002D0BDF80000204418BD70B588B182B1AC
:10A360000024158803E0065D641C3444A4B2A542B1
:10A3700003D8061976789E4201D08C42F3D38C42E2
:10A3800001D3002070BDA11C1180005D401E80B271
:10A3900070BD80F8301070472DE9F0410D00044683
:10A3A00006D02CB195F87A000026012803D006E0EB
:10A3B0000E20BDE8F08195F89800012829D0D5F845
:10A3C000A000042825D0D5F89C00042821D04FF007
:10A3D0000108A6702C2205F17801201DFEF7E2FF8E
:10A3E00084F83060D5F8A4006063D5F8A800A063B5
:10A3F0004FF6FF70A4F8A80004F19400C4F8A4007C
:10A40000C4F8AA60A4F8AE6084F8B060207810B1F7
:10A4100004E00720CDE7FF2084F8540004F1550143
:10A420001F27C4F89410A4F8987004F198022846E5
:10A43000FFF7C2FE0028BCD104F17401C4F89C10DF
:10A44000A4F8A07004F1A00205F13C00FFF7B4FEEF
:10A450000028AED184F85180208BA4F8480084F8FD
:10A460003C80266484F8506060696064454604F16D
:10A470003C02002104F1540072DF002899D12570BC
:10A4800097E710B50288102A1BD0112A20D0262A5F
:10A490001DD1007A0C46012801D0022817D1A078DE
:10A4A0000521401CB0FBF1F201FB1201204600F037
:10A4B0003BF800280BD0A16B002908D0BDE8104064
:10A4C0000847C27B012A02D18088A1F8A80010BDEC
:10A4D0000C46002184F8B2108088B4F8A810884295
:10A4E000F5D120790028F2D10121DFE7704710B5BE
:10A4F000044690F8540074DF012084F8B200002074
:10A5000084F8B40084F850000621204601F00BFACC
:10A51000002808D1A178204600F006F810B1A16B00
:10A5200001B18847002010BD2DE9F05F0446007896
:10A530000F4698B1A7700025C4F8AA50A4F8AE50F1
:10A5400084F8B050A079012608B1012F09D0E07934
:10A5500080B1012F05D0022F03D00BE00820BDE809
:10A56000F09F616B21B184F8B1600820884701E059
:10A5700084F8B15004F1AB0100200A5C0AB1304606
:10A5800003E0401C0628F8D300204FF002084FF0EB
:10A59000030A4FF0040B012F06D0022F0CD0032F1B
:10A5A0000FD0042F15D110E0A17929B194F824100F
:10A5B00011B908B130460DE0E17911B108B140465A
:10A5C00008E0207A08B1504604E0607A08B15846A5
:10A5D00000E02846A070616B41B1032801D0042837
:10A5E00004D1607910B194F8B200A0B184F8B350EE
:10A5F00004F13C0018210746FEF7EDFE04F12C00A3
:10A6000084F83C60814603F015FD58B194F82C00A5
:10A6100084F8510008E084F8B45084F8B36007204F
:10A620008847E5E784F8516094F8240050B1484623
:10A6300003F000FD20B194F8280084F8520001E0F6
:10A6400084F8526084F85050A27804F1AA0104F111
:10A650009409052A4DD2DFE802F065030F1B320092
:10A6600084F83160C4F8A450C4E9101584F83C8023
:10A670008020A4F848003EE084F8318087F800A0EC
:10A68000228ABA81C4F8A4507960E168B96032E0E6
:10A690006069B860208BB8813D4684F83C602046F4
:10A6A00004F098FA40B185F814800421204601F0A6
:10A6B0003AF9F0B9052115E084F831A017E0E06916
:10A6C000B860208CB8813D4684F83C60204604F098
:10A6D00081FA50B185F814800421204601F023F955
:10A6E00038B9062184F8311001E084F831B0C4F89B
:10A6F000A490A07878B13A4604F15400D4F8A4109C
:10A7000072DF00287FF42BAF94F8301094F85400D7
:10A7100073DF0028F6D1616B11B194F831008847DE
:10A7200000201CE784F83150F5E7000070B5040004
:10A7300012D001461C221448FEF734FE1248134D75
:10A740000560206850B17ADF002806D120680168D2
:10A7500029604068686005E00E2070BD0B487BDF13
:10A760000028FAD108484FF6FF711438084A20F83B
:10A77000041B0549343901600021FFF70DFB002857
:10A78000EBD0032070BD0000B82900204C2500202C
:10A790006DEB010010B5044600F006F808B1204644
:10A7A00010BD142010BD0000142801D300207047F4
:10A7B0000146014801F044BDD82900207CB505467A
:10A7C00008880C460930904201D90C207CBD6846AF
:10A7D0006DDF0028FAD121880820685420881B21C9
:10A7E000401C80B2208029542088401C80B22080E8
:10A7F0002844DDF801100160BDF805108180208833
:10A80000801D80B220809DF80010490800D00121F1
:10A8100029542088401C208000207CBDF8B52B4D99
:10A82000018804466E8821293BD015DC2848294A36
:10A830001029A0EB02004FEAD0004FF0030202EB18
:10A84000004013D0112925D0132929D100231A46FD
:10A85000852130467FDF17E03B2932D052292AD0AC
:10A8600056291DD18088132176DF0DE01AA102F050
:10A87000C5FA072000F0AAFB08B1FFF759FAA18832
:10A880006980184801F012FE002809D0BDE8F840A0
:10A89000FFF74EBA14A102F0B1FA4FF6FF706880CC
:10A8A000F8BD00200090A08869468FDF0028F7D00F
:10A8B000FFF73EFAF8BD00231A4619463046B1DFCD
:10A8C000E2E78088132176DFDEE70000082500201C
:10A8D00098F7010050F70100436F6E6E6563746571
:10A8E0006400000054280020446973636F6E6E6535
:10A8F000637465640000000010B51A4C018860683C
:10A9000010290ED011292BD1401E606028D1FFF7ED
:10A9100060F9002824D02168002921D0BDE810402A
:10A920000847D0B900210122084600F02DFB08B1EC
:10A9300007280FD107220221012000F025FB08B1D2
:10A94000072807D104220221002000F01DFB20B1BE
:10A95000072802D0216801B188476068401C606008
:10A9600010BD0000442500202DE9F04701883B4E32
:10A9700040F2F3194FF6FF7510291BD011293ED074
:10A98000122954D0502946D1C188F289841D9142A0
:10A9900041D1618902293ED18688304601F066F8AE
:10A9A000050038D004F10C0000F0B4F9A8B3294632
:10A9B00030464EE0C17B8788044601292BD1A8464A
:10A9C000284601F053F8050017D02F800020287288
:10A9D000234843464A460168C5F80A104068C5F84E
:10A9E0000E0004F1100105F10A0001F0F5F868729B
:10A9F000F08900280FD129462AE0042013E080883E
:10AA000001F034F8040006D06068FFF745FA08B199
:10AA100003F05CFC2580BDE8F087FFE76868FFF77E
:10AA20003BFA0028F7D0BDE8F04703F04FBC878819
:10AA30000646384601F01AF80400ECD02B464A4688
:10AA400006F1080104F10A0001F0C6F8607221461F
:10AA50003846BDE8F04700F045BE0000B8290020A8
:10AA60004C2500202DE9F04F0746858802883D4897
:10AA7000012197B08346102A09D0112A49D01A2AF9
:10AA80006CD1387AB1EB101F45D2012244E0354C2D
:10AA9000083CA068C0430B9061680BA801F0F1FB73
:10AAA0000B990CA800F0B8FD2C220CA96846FEF703
:10AAB00079FC0026E946A04610E000BF09EB4600FD
:10AAC0005FF00004B0F804A008EB84005146001DBC
:10AAD00001F0ABFB641C1D2CF6D3761C0098B04231
:10AAE000ECD8142D05D317B00420BDE8F04FFFF7C4
:10AAF0001FB92946584601F0AEFB294608F104006B
:10AB000001F0A9FBF87B012828D016482946001D32
:10AB100015E029461AE000220221B1EB101F01D2F4
:10AB2000012600E000260F49083901F11000041D3C
:10AB3000294682B101F08FFB36B12946204617B075
:10AB4000BDE8F04F01F087BB2946204617B0BDE8AD
:10AB5000F04F01F06ABB01F068FBF5E717B0BDE804
:10AB6000F08F0000DC290020F0B585B016460F46B6
:10AB700004001D4614D004AA19466069FFF7F8FACC
:10AB800000280BD1A5F57F40FF380BD0049848B1C1
:10AB9000007848B13088142808D9072005B0F0BDE6
:10ABA0000E20FBE70520F9E70820F7E700200090DA
:10ABB000019002900390A088ADF8000001208DF86C
:10ABC0000200CDE9026769462846AEDFE6E70000ED
:10ABD00070B5334D04008EB02DCD08AE86E82D0043
:10ABE0005BD0E9B30868A061214608A862DF0028AD
:10ABF00051D1207801258DF83200ADF83050A21CDB
:10AC00000CA92846A8DF002845D120216846FEF778
:10AC1000E2FB0220ADF8000020788DF802008DF8EC
:10AC20000C509DF80D001426ADF8046040F00C00A7
:10AC30008DF81150ADF806508DF80D008DF81250BA
:10AC4000608804F10C02694600F0A6FB002822D1BE
:10AC500020216846FEF7BFFB0320ADF8000000E0AE
:10AC60001BE020788DF802008DF80C509DF80D0047
:10AC70008DF81150ADF8046040F010008DF81250BE
:10AC8000ADF806508DF80D008DF813506088221D28
:10AC9000694600F081FB0EB070BD0E20FBE700009E
:10ACA000A4ED010070B588B00446002924D0002C22
:10ACB00022D008462188102920D0502924D0572995
:10ACC0001AD10546A188406906AAFFF751FA002863
:10ACD00012D1069E307800280ED018216846FEF763
:10ACE0007AFB01208DF800000195A088ADF80800DE
:10ACF0000396A9696846884708B070BD08B0214628
:10AD0000BDE8704003F080B808B02146BDE870404F
:10AD100003F04EB9007800F0010070470149085C6B
:10AD20007047000064ED01000649095C4FF0A04047
:10AD3000D0F81005C84010F0010000D0012080F0CC
:10AD40000100704764ED01002DE9FC410646C00793
:10AD50004FF000050ED0104F00240122385D009501
:10AD600000231146019501F0B7FD641C042CF4D3B7
:10AD700000F046F8B0070DD5074E0024361D00221E
:10AD8000305D032300951146019501F0A5FD641C7B
:10AD9000042CF4D3BDE8FC8160ED010007490B5C95
:10ADA0004FF0A041D1F804250120984020EA020389
:10ADB000C1F808351040C1F80C05704760ED01007E
:10ADC0000249085C012101F006BE000060ED0100AF
:10ADD0000249085C002101F0FEBD000060ED0100A9
:10ADE0000649095C4FF0A040D0F80405C84010F0B7
:10ADF000010000D0012080F00100704760ED0100EB
:10AE000010B500242046FFF7DBFF641C042CF9D3A7
:10AE100010BD10B500242046FFF7DAFF641C042C97
:10AE2000F9D310BD10B50246064B4FF0FF3000219C
:10AE30005C5C944201D1084610BD491C0429F7D33B
:10AE400010BD000064ED010070B50C4E0C004FF019
:10AE5000000530600BD0012000F06AF808B1022034
:10AE600004E0002000F064F800B10B20207070684E
:10AE700010B9FEF7AEFE0546284670BD44250020F9
:10AE800010B5002000F0DCF908B1062806D1012039
:10AE900000F0D6F908B1062800D1002010BD00004E
:10AEA0002DE9F0470D468146FFF7BCFF0446042814
:10AEB00036D2DFF874801B481C4EA8F10C0725B36E
:10AEC000012D0ED0022D2BD104EB440030444578E7
:10AED000002D25D0B968002922D02846BDE8F047CA
:10AEE000084704EB4401755C0E44717849B10E4A81
:10AEF0004FF40041093A8068FEF78AFF08B987F8E5
:10AF00000390B17808F80410E2E78068FEF7C4FF08
:10AF100004EB4401314418F804008D78A842D7D0DE
:10AF2000BDE8F08768ED0100402500205829002089
:10AF3000042801D2FFF7F8BE0020704701461048F0
:10AF400010B54088042907D007290ED00A2915D149
:10AF5000BDE8104003F046BA132176DF0CE000286C
:10AF60000CD0BDE81040FEF7E3BEA0F57F41FF39ED
:10AF700004D10448FFF7BBFA0828F0D110BD000047
:10AF8000082500206028002070B50023042810D276
:10AF90000D4D00EB4004012A02D101290CD0002202
:10AFA000094E00EB4000304461B1012906D002296E
:10AFB00006D00723184670BD0E30C2B22A55F9E7F5
:10AFC0004270F7E78270F5E758290020044A0146ED
:10AFD00000201279D20702D0084600F04DB8704721
:10AFE0003425002070B506461E480024C0E90161E2
:10AFF000B00720D50025012211462846FFF7C4FFDF
:10B000006D1C0446042D02D2002CF4D013E094B938
:10B0100040F2666204211448FEF70CFE04000AD1D7
:10B02000FEF7F6FD040006D10F48104A0021001F6C
:10B03000FEF7B2FE0446F00712D00120FFF784FEAF
:10B0400074B909480A4A00210C38FEF7A5FE04002D
:10B0500006D10548074A01210838FEF79DFE04463F
:10B06000204670BD3425002074ED01001DB30100A1
:10B070004DBC0100099C01002DE9F05F6E4C0546B6
:10B0800000266078B34618B184F801B000F0C6FD20
:10B090006A4F4FF47A694FF4C87A4FF00108182DBF
:10B0A00069D2DFE805F00C1313384754696E727BE0
:10B0B000727BC58484848484B3B6B9BCC5C500F0F2
:10B0C000ADFD3868FEF7E8FE06465CE00020FFF7BD
:10B0D00087FE00284FF0000008D0FFF771FE022D18
:10B0E00002D14FF4E16008E0484606E0FFF770FE49
:10B0F000022D01D1C82000E05046410CC0034FF49E
:10B10000FA72801841F10001257052000023FEF709
:10B1100005F901462AE00020FFF762FE00284FF003
:10B12000000004D0FFF74CFE4FF44870E5E7FFF74E
:10B130004FFEDFE70020FFF753FE00284FF000002E
:10B1400002D0FFF73DFECFE7FFF742FED4E7002035
:10B15000FFF746FE00284FF0000002D0FFF730FE58
:10B1600001E0FFF735FE257041F69A11002238689C
:10B17000FEF74EFE064646E00020FFF70FFE257064
:10B1800008E0002051E025703DE084F801800120B6
:10B19000FFF704FE002240F6CD41E8E784F8018085
:10B1A0000120FFF7FBFD00224FF48041DFE77868C4
:10B1B000FEF772FE0646D5F1110000D02EB1022036
:10B1C000FFF7FEFD84F802B01DE0012816D980B219
:10B1D000C8214843C117C90341EA5041C0034FF495
:10B1E000FA72801841F1000152000023FEF796F830
:10B1F000014600227868FEF70BFE06460220FFF7A4
:10B20000E7FD84F802803046BDE8F09F00F006FDBF
:10B21000B9E700F003FDB4E700F000FD04E000F042
:10B22000FDFC0020FFF7D4FD0120FFF7D1FDAAE7C8
:10B23000FFF7EFFDA7E700003425002068ED0100CF
:10B24000012103F064BD00002DE9F8430546861C8A
:10B2500000208DF8000090460F464FF00109684627
:10B26000FEF7C0FE1B4C20683860D4E90001401A8C
:10B27000A16804F21C47081A0EE00121384600F0CC
:10B28000FAFF00F071FD0146384600F0F4FFD4E902
:10B290000001401AA168081A401C8642EDD8B8F196
:10B2A000000F03D0052065F3891002E0062065F346
:10B2B0009F50A2682168114004EB8101C86020689A
:10B2C000304420609DF80000FEF7B0FE4846BDE81F
:10B2D000F8830000082E002070B50D4604460A29A8
:10B2E00002D10D21FFF7F8FFA0682268411CA16080
:10B2F0001554D4E90101814204D32046BDE87040D1
:10B3000001F0F1B970BD0000034803C8814201D1CA
:10B310000120704700207047082E0020007802218D
:10B32000FFF7BEBD05494FF0FF32082841F8202045
:10B3300002D3084480F8482070470000602A0020AB
:10B34000F0B54FF0FF3512B10023082601E00823C5
:10B350000C260C4C05E000BF54F823707F1C04D071
:10B360005B1CB342F8D32846F0BD26185DB286F8C0
:10B37000305044F82310002AF5D1E11881F8480034
:10B38000F1E70000602A00200249084490F93000EB
:10B3900070470000602A00202DE9F043814688783C
:10B3A00091B090460C4600B901208DF83E002088EF
:10B3B000ADF83C0000250095607C694602F0FAFF7C
:10B3C0006E46A07C711C02F0F5FFE07B00289DF822
:10B3D000020002D040F0080001E020F008008DF8E3
:10B3E0000200217C11B140F0100001E020F01000BB
:10B3F0008DF80200217B11B140F0010001E020F046
:10B4000001008DF80200217D09B1022100E0012137
:10B4100061F342008DF802001C2102A8FDF7DBFF5A
:10B42000607BC10601D4800617D50E950EAFE07C77
:10B43000791C02F0BFFF9DF83800079720F00F003D
:10B44000401C20F0F00010308DF838009DF83A00D4
:10B4500020F00600801C8DF83A00607B8DF8080013
:10B46000A07B8DF80900142109A8FDF7B4FF0FA8EF
:10B47000CDE90906A088ADF83000A06820B1E088C9
:10B48000ADF82C00A0680D90A06998B301950088D4
:10B49000ADF81000A06901AD01A94088ADF8120017
:10B4A000A069406806950390A069007B02F082FFC6
:10B4B000A069691C407B02F07DFFA069807A0028AA
:10B4C0009DF8060002D040F0080001E020F00800DE
:10B4D0008DF80600A169C97A11B140F0100001E0B1
:10B4E00020F010008DF80600A169097A19B140F02A
:10B4F000010002E00DE020F001008DF80600A169D6
:10B50000897B09B1022100E0012161F342008DF83D
:10B510000600E06900B10590434609AA02A9484621
:10B52000AADF11B0BDE8F08370B5084C050009D062
:10B5300010342168002907D008682060496828462F
:10B540008847F6E70834F4E770BD00004C2A002075
:10B55000054A012120B1012805D19170FFF7E4BF10
:10B5600051700020FAE770474C2A00202DE9F05F67
:10B5700026484168F1B3DFF898B00E688146DBF8E1
:10B58000004087688078E11B21F07F45ED1CB0B951
:10B59000DFF880804FF48030C8F84403C8F8040313
:10B5A0001120FEF733F81120FEF73BF84FF0010AA7
:10B5B000C8F800A02F2002F02BF889F802A0B542AD
:10B5C00000D23546124BE8193C3320F07F4018601A
:10B5D000DBF800105A46091B21F07F41001B20F0C8
:10B5E0007F40C91C81420FD9106818602F2002F0DB
:10B5F0000FF800E004E0BDE8F05F1120FEF71CB892
:10B60000BDE8F05F02F0AEBDBDE8F09F90250020E0
:10B61000041501400010014073B58CB006460020AF
:10B6200000900D9880B100246D4621460DA800F0D1
:10B6300007FE30B1009805EB400084800098401C64
:10B640000090641C142CF0D32C2269463046FDF780
:10B65000A9FE0EB070BD2DE9F04117880646B81D51
:10B6600014460D46984202D90C20BDE8F08131887D
:10B67000072206290AD34FF4486C4FF6FF73614541
:10B6800001D9994202D17088062801D21046ECE710
:10B69000604501D99842F9D1994203D0984201D02E
:10B6A0008142F3D80520E85520881221401C80B241
:10B6B000208029542088401C80B220804119308885
:10B6C00003F0F5F92188084480B220804119708880
:10B6D00003F0EDF92188084420800020C5E7FEF73B
:10B6E00027BB000038B54A7A0F4B62B100220A72BC
:10B6F0005969002906D001228DF80020ADF802001A
:10B700006846884738BD0A7A62B19B684C68024631
:10B7100019462046FEF77CFB0028F3D0BDE83840F0
:10B7200002F0D4BD5B68F1E7B82900202DE9F047AD
:10B730000025DFF890803DE06068002100EBC50641
:10B74000012032789146FDF71AFED4E9062300EA7B
:10B75000020701EA030C57EA0C0729D082438B4306
:10B760004846C4E9062302F015F83278824691462D
:10B7700001200021FDF703FED4E9042300EA0204BE
:10B7800001EA03074A4650460021FDF7F8FD444010
:10B790004F403C430CD17078012801D0012000E0DB
:10B7A0000020726880EA0A0012B1C1B24846904790
:10B7B0006D1CEDB298F8000044468542BCD3BDE84C
:10B7C000F08700007025002010B50021024800F02D
:10B7D00063FD80F3100010BD243200200E4910B527
:10B7E0000A784C780023A24212D0521CD2B20A70BE
:10B7F000022A00D10B70084A0B780C3252F8232031
:10B8000002608868104420F07F408860012010BDED
:10B810000360002010BD0000902500204FF08050F4
:10B82000D0F830110A2904D1D0F83401B8B1012878
:10B8300014D00C480078062811D10A48001D007861
:10B8400000070CD1074808300078C0F30310032824
:10B8500005D0042803D0052801D00020704701201E
:10B8600070470000E00F00F04FF08050D0F830112A
:10B870000A2904D1D0F83401B8B1012814D00C48F9
:10B880000078062811D10A48001D007800070CD165
:10B89000074808300078C0F30310032805D00428B7
:10B8A00003D0052801D00020704701207047000018
:10B8B000E00F00F04FF08050D0F830110A2904D189
:10B8C000D0F83401B8B1012814D00C48007806280B
:10B8D00011D10A48001D007800070CD10748083034
:10B8E0000078C0F30310032805D0042803D00528EE
:10B8F00001D000207047012070470000E00F00F0E9
:10B90000826883881A4003689A5C0A708168491CBF
:10B9100081607047C26883881A4003689954C1687F
:10B92000491CC160704770B50D460446B0F89810C8
:10B93000D0F894000122FEF700FD00B1057004F17B
:10B940003C0204F1940104F1540072DF70BD10B5A3
:10B950000446C0B2FEF71CFB204610BD0C484A88C6
:10B9600043889A4213D10A88A2F52063773B0ED10F
:10B970008988C91E8AB28280064807491346401A40
:10B98000C008032101EB004004A101F042BA704756
:10B990000825002098F7010050F701004461746108
:10B9A000206C656E2069732073657420746F20307D
:10B9B000782558282564290010B50949094800F060
:10B9C000EAFC08B1FEF7B4F91721064800F0D9FCEB
:10B9D000002803D0BDE81040FEF7AAB910BD000052
:10B9E0005DB90100442800202DE9F041804602465F
:10B9F00001200021FDF7C3FC1A4F05460E4678686A
:10BA0000FEF74AFA00280CD1174CD4E9062110465B
:10BA10002A4001EA06031A4305D0A843B143C4E90A
:10BA20000601BDE8F081404601F0B4FE30B1D4E932
:10BA3000040128433143C4E9040105E0D4E90410BA
:10BA4000A943B043C4E90410D4E9060128433143B3
:10BA5000C4E90601A1687868BDE8F0410022FEF75C
:10BA6000D7B90000C0ED0100702500200146034851
:10BA700002888A4200D0002070470000A4290020DC
:10BA80002DE9FC5F0E008346DDE90C47C6F100009E
:10BA900098469246814600D40846012503E000BF3F
:10BAA00090FBFAF06D1C5045FADAA84500D94546DE
:10BAB00024B1002E01DB780700D5641EB80702D53B
:10BAC000B8F1000F0AD0F80708D13CB1A54205D261
:10BAD00020215846641EFFF7FFFBF6E7002E02DA2E
:10BAE0004E462D2102E0780703D52B215846FFF75B
:10BAF000F3FB07F0030002280BD1B8F1000F08D1C7
:10BB00003CB1A54205D230215846641EFFF7E4FB44
:10BB1000F6E7CDE90047434652463146584602F023
:10BB2000CBFFBDE8FC9F000070B50D4604460068E1
:10BB30004FF4887101F032FD4FF49071206801F0EC
:10BB40002DFD4FF49271206801F028FD4FF4A27191
:10BB5000206801F023FD20681149C0F80413206813
:10BB6000690740F30730090E002806DA00F00F00DD
:10BB700000F1E02080F8141D03E000F1E02080F8DF
:10BB800000142068012140F3073000F01F029140AB
:10BB90004009800000F1E020C0F8001170BD0000F5
:10BBA00010030200024600201268530713D502F06A
:10BBB0000300012802D002280CD105E0C2F3831053
:10BBC0000B68801C184404E00223086803EB9252BF
:10BBD0001044086001207047F0B58488A51894428D
:10BBE00000D82246A41AC288D6189A4200D8134612
:10BBF000D21A4B880788BB420CD34088834209D8AD
:10BC00008888A04206D3A84204D8C888904201D3AD
:10BC1000B04201D90020F0BD0120F0BD0A4810B5A6
:10BC2000807860B1002401E0022C06D02046FFF7A6
:10BC3000C7F8641C042CF7D310BD0324F6E7BDE855
:10BC40001040FFF7DDB800003425002003480179DB
:10BC5000C90702D00078FFF70FBA704734250020DB
:10BC6000172101804180002101714171704700005E
:10BC70002DE9F047394E002780463D46DFF8E09039
:10BC8000D6F804A057E003D00446D0F81C8035E075
:10BC900099F8002002EB4201521CD2B289F8002030
:10BCA00009EBC10199F80230091D9A4201D189F8C6
:10BCB000005048680A780446012A12D0022A02D0AD
:10BCC000032A3BD108E002F07DFC00B10127257476
:10BCD00034E00574C06900E070680028F9D1706034
:10BCE0002CE0207C50BB88686060C868A060086950
:10BCF000E0604869A061F07800B165606268B16891
:10BD0000184B501A20F07F40984202D2A168084494
:10BD100006E0881AA16820F07F40814202D9081A03
:10BD2000206000E0256065600120A5602074204649
:10BD3000E56102F029FCB8F10000A4D199F80010E7
:10BD400099F801008142A3D117B97168514502D019
:10BD50000120BDE8F0870020FBE7000090250020CF
:10BD60002C2B0020FFFF7F002DE9FF4100262348F8
:10BD700000F07EFA2148001F074600F079FA204CB7
:10BD800060680090A56800E000986946284004EBD0
:10BD900080000C30FFF706FF0028F5D101AA0099BA
:10BDA00001EA050304EB8303491CDB6842F82030F9
:10BDB000401C00910228F2D3019800F003000128F2
:10BDC0000BD0022810D10198032101EB905000996B
:10BDD000BDF80A6001EB900005E00198BDF80A602B
:10BDE000C0F3831008440090384600F03EFA08B1D2
:10BDF0000098606004B03046BDE8F0812032002039
:10BE0000082E0020ACB0182272496846FDF7CAFA25
:10BE10007148069071494FF48070CDE9070109908F
:10BE200007236F4A06A96846FEF760F808B1FDF7D8
:10BE30007FFF4FF40041002001F04CF808B1FDF7FE
:10BE400077FF00F0B3FEFDF7B9FF08B1FDF770FF13
:10BE500064490320FFF7C6F808B1FDF769FF69469A
:10BE60000020FEF7F1FF08B1FDF762FF01F048F98D
:10BE700008B1FDF75DFF01F0BDFA08B1FDF758FF0D
:10BE8000002469460120009401F072F908B1FDF721
:10BE90004FFF684601F0E8F908B1FDF749FF9DF84A
:10BEA000080051A120F00F00401C20F0F0001030DD
:10BEB0008DF808000B2202A87CDF08B1FDF738FFDF
:10BEC00000941020ADF800003C200194ADF8020071
:10BED000ADF804404FF4C870ADF8060068467ADF4C
:10BEE00008B1FDF725FFFFF767FD4248019001A962
:10BEF000414800F0E6FA08B1FDF71AFF3F4800900C
:10BF000069463F48FEF764FE08B1FDF711FFAC211A
:10BF10006846FDF760FA02208DF800008DF80240B7
:10BF200005208DF803000120ADF84C0034498DF850
:10BF30007C004020891F2290149144F2506023908D
:10BF4000304829902C4869460C30FEF725FA08B194
:10BF5000FDF7EEFE284801210C30FEF71AFA1C21ED
:10BF60006846FDF738FA4FF42030CDE900404FF431
:10BF70007020029024480590032524488DF80C5029
:10BF80000690ADF80E408DF810406846FEF7CEFBE7
:10BF900008B1FDF7CDFE1EA0FDF7E0FD21482249C6
:10BFA000401AC00805EB004020A100F027FF12480E
:10BFB00003210C30FEF7B8FA08B1FDF7B9FE26A050
:10BFC000FDF7CCFD00F000FE0028FBD101F0ACF83D
:10BFD000F8E7000048ED0100442600204427002037
:10BFE0001DE701003DAF01004E6F726469635F554C
:10BFF000415254003DD101005428002031DD0100A0
:10C0000014250020C9DD0100EDDD0100DFB60100CF
:10C010000D0A5541525420737461727465642E0D7B
:10C020000A00000098F7010050F7010044656275AE
:10C0300067206C6F6767696E6720666F7220554175
:10C040005254206F7665722052545420737461727A
:10C050007465642E000000000D0A616476657274D8
:10C060006973696E675F73746172742E0D0A0000E4
:10C0700070B5144682880E4605462088111D01447D
:10C08000921C994201D8FE2A01D90C2070BD521C85
:10C0900032542088FF21401C80B2208031542088F7
:10C0A000401C80B220808119288802F000FD218880
:10C0B000084480B22080AA8842B1A96841B13044C6
:10C0C000FDF770F92088A98808442080002070BD01
:10C0D000072070BD2DE9F047C5881E1DB6FBF5F79A
:10C0E0008946B6FBF5F1044605FB176C40791668E6
:10C0F0006843DDF820A0F718001F874200D9C61A50
:10C10000166001E02468491E0029FBD1A5EB0C074D
:10C110008846B74216D818E004EB0C00001D09EB66
:10C120000803BAF1000F3A4602D00146184600E073
:10C130001946FDF737F92468F61B4FF0000CB84498
:10C14000B54201D9374600E02F46002EE4D1BDE8C4
:10C15000F087000030B5024651B100F0D9FE002151
:10C16000074C08E034F821301568AB4202D1116069
:10C17000002030BD491C8142F4D3052030BD0000B1
:10C1800000000000F8B50F46017814460546012965
:10C1900001D1687830B12088821C9A4232D80129B6
:10C1A00002D006E00720F8BD69780144891C994255
:10C1B00028D8181A801E86B2ADF800602188B81CF5
:10C1C000084469467DDF0028EDD12978022904D092
:10C1D0006878BDF80020904205D3BDF80000B04259
:10C1E00001D809200AE00820012905D16978B14267
:10C1F00002D8ADF8001001E0ADF80060BDF8001005
:10C20000FE2901D90C20F8BD2288491CB954218887
:10C21000491C89B2218078542088401C2080BDF8B8
:10C220000010084420800020F8BD01F01F03012207
:10C230009A40D243490900EB8100114600F021B831
:10C240004A0950F8220001F01F02012191400840E4
:10C2500000D00120704701F01F0301229A404909D4
:10C2600000EB8100114600F01CB8002100F00FB86F
:10C27000012100F016B808B56A46FCF7FEFF0098E9
:10C2800008BD08B56A46FCF7DEFF009808BD08B592
:10C290006A46FCF7D8FF08BD08B56A46FCF7BAFF46
:10C2A00008BD08B56A46FCF7C1FF009808BD08B58F
:10C2B0006A46FCF7EFFF009808BD38B50446002534
:10C2C0008DF800506846FDF78DFE216862680868A9
:10C2D00090420ED9401E08600178238AE26801FB73
:10C2E0000325227A2168101AC0B20A79824200D24C
:10C2F00008719DF80000FDF799FE284638BD38B555
:10C30000054600208DF800000C466846FDF76AFEE1
:10C31000E868298A201AB0FBF1F12A681068431CEA
:10C32000136001709DF80000FDF780FE38BD10B568
:10C3300030B1017A42680368891AC9B21A6006E00E
:10C340000E2010BD03681A68541C1C601170491E31
:10C35000C9B2F7D2006800210171084610BDC208B9
:10C3600000F007030120895C98400840704710B531
:10C37000C20800F00703885C01249C4020438854D5
:10C3800010BD18B1172903D0072070470E20704741
:10C3900001800020704710B560B1C160172120F8FE
:10C3A000021B20F8021BFB2100F8021BFFF758FCC0
:10C3B000002010BD0E2010BD7CB50C4681880029E0
:10C3C00033D102880025102A06D0112A09D03A2A32
:10C3D0000BD0552A2ED129E00146204601F04AFD16
:10C3E00028E0A01DFFF73CFC24E02246408934F8F9
:10C3F000063F834200D818466080172800D21720D5
:10C400006080D06878B1607968B1184BD3E90003D7
:10C41000CDE90003ADF802106088ADF80400D368E0
:10C42000694610469847657125717CBD01462046D6
:10C4300001F066FDA07A0028F7D02846E188A5DF44
:10C44000012680B11128F0D001F088F80246084892
:10C45000084902B0401AC00806EB0040BDE8704031
:10C4600005A100F0CFBCA572E6727CBD94ED010081
:10C4700050F7010050F7010073645F626C655F67FD
:10C48000617474635F65786368616E67655F6D741E
:10C49000755F72657175657374282920726574758E
:10C4A000726E65642025732E0000000020B10278B2
:10C4B000DE2A03D0082070470E20704741800020FC
:10C4C000704760B159B10278DE2A0AD0096841602C
:10C4D000DE2101704FF6FF714180002070470E2071
:10C4E0007047082070477FB5054600294DD0002DC4
:10C4F0004BD008780C46DE2847D1A888618888424E
:10C5000002D1204602F072FB2888012825D002289B
:10C510003BD011283AD0512837D135F8040F618823
:10C52000884232D1A978A81C02292ED1017A042987
:10C5300003D0062901D0052927D10021009102222C
:10C540008DF8002001914FF4C07202910391ADF873
:10C550000420007A05280FD010E0297A204601290E
:10C5600013D1A988428891420FD10121017204B0F0
:10C57000BDE8704002F03ABBADF804102888694667
:10C58000B0DF002801D0616888477FBDA888618836
:10C590008842FAD14FF6FF7060807FBD00F1804085
:10C5A0000068002800D00120704708B500F18040E5
:10C5B000002101600068009008BD000070B50B4CC0
:10C5C000207808B185250FE00020A0606060206120
:10C5D000E060074800F0FEFF054600F057FF08B98D
:10C5E00000F0E2FF01202070284670BD4C2A002098
:10C5F00051B5010038B500258DF800506846FDF7AB
:10C60000F1FC074CE068401EE060E06810B900F003
:10C61000F1FFA5709DF80000FDF708FD38BD000092
:10C620004C2A0020F0B505460478154889B0164616
:10C6300040F82420124A0869121DA2F1080742F8A6
:10C640002400487F385520226846FCF7ABFE04944E
:10C650002878385C48B10EB10A4A00E000226946E9
:10C66000281D01F057FA09B0F0BD0EB1064A00E0EE
:10C670000022694605F10C0001F004F9F3E700001F
:10C68000582500208DE9010035E8010030B4037819
:10C69000054CE35C1BB130BC001D01F071BA30BC2D
:10C6A0000C3001F057B900005425002030B4037855
:10C6B000054CE35C1BB130BC001D01F0E3BA30BC9B
:10C6C0000C3001F0BDB90000542500200FB408B5AE
:10C6D0000399002904D004AA00926A4600F00FF8DA
:10C6E00001B05DF814FB10B582680446002A05D03D
:10C6F000D4E90403216898470020A06010BD2DE90B
:10C70000FC4791460C00804676D014F8011B39B1E5
:10C7100025290ED04046FEF7DFFD20780028F4D111
:10C7200098F80C00002867D04046BDE8FC47FFF7AA
:10C73000DABF0020012221782B291BD02D2902D01D
:10C74000302908D102E040F0010001E040F0020091
:10C75000641C002AEFD100252A290ED02178A1F1EE
:10C7600030020A2A11D205EB850201EB4205641C56
:10C77000303DF1E740F00400EAE7D9F800100B1D66
:10C78000C9F800300968641C0D44217800232E2963
:10C790000BD114F8011FA1F130020A2A05D203EBD4
:10C7A000830201EB4203303BF3E76C290DD068298B
:10C7B0000BD0692921D00BDC252918D0582931D07C
:10C7C00063290ED0642915D117E014F8011FECE796
:10C7D000702969D0732932D075291BD0782909D1E5
:10C7E00020E0D9F80000011DC9F80010017840468A
:10C7F000FEF772FD641C90E76CE0D9F800100A1D8A
:10C80000C9F800200968CDE900500A224046FFF728
:10C8100037F9EFE7D9F800100A1DC9F800200968B8
:10C820000A2206E0D9F800100A1DC9F8002009689C
:10C830001022CDE90050404602F03EF9DAE7D9F87F
:10C84000001000270A1DC9F800200E68C00705D196
:10C8500012E04046761C7F1CFEF73EFD3178002931
:10C86000F7D104E0202140466D1EFEF735FDBD42A4
:10C87000C0D9002DF6D1BDE74EB13046FCF7B6FD6C
:10C88000074604E0202140466D1EFEF725FDBD420F
:10C8900006D9002DF6D103E04046761CFEF71CFDBC
:10C8A00031780029F8D1A5E7D9F80000011DC9F8B1
:10C8B0000010056830214046FEF70EFD7821404605
:10C8C000FEF70AFD08200021CDE9000103461022F1
:10C8D0002946B0E7BDE8FC8770B541EA4201DDE9D1
:10C8E00004564FF0A04441EA830141EA052104EBDC
:10C8F000800041EA0641C0F8001770BD70B541EAFA
:10C900004201DDE904564FF0A04441EA830141EAC7
:10C91000052104EB800041EA0641C0F8001770BD14
:10C9200070B541EA4201DDE904564FF0A04441EA06
:10C93000830141EA052104EB800041EA0641C0F889
:10C94000001770BD70B541EA4201DDE904564FF0B1
:10C95000A04441EA830141EA052104EB800041EA59
:10C960000641C0F8001770BD1CB500220B460092AE
:10C9700011460192FFF7D4FF1CBD1CB500220B46E7
:10C98000009211460192FFF7DDFF1CBD1CB500218E
:10C9900000910B46012201911146FFF7C1FF1CBD1A
:10C9A0001CB5002100910B46012201911146FFF7B1
:10C9B000C9FF1CBD4FF0A04202EB8000D0F8002759
:10C9C00022F44032C0F80027D0F8002742EA0141A3
:10C9D000C0F80017704701224FF0A043824011B108
:10C9E000C3F808257047C3F80C25704718B5084BE5
:10C9F0006C4601441B68009306E000BF54F82030E9
:10CA0000D3F81035401C08C28142F7D818BD000089
:10CA1000B4ED0100034908B5084400210160006835
:10CA2000009008BD0060004002494058012800D035
:10CA3000002070470060004030B5154A01460020D4
:10CA4000D2F8104423460AE0DB681D79854205D1FF
:10CA5000401C0A28F6DB4FF0FF3030BD1B68002B6E
:10CA6000F2D1431CF9D0CB681871D2F8103443B11D
:10CA7000DB68CC681B682360D2F81024D268116090
:10CA800030BDC2F81014C96800220A6030BD000031
:10CA9000082E00207047FCF729BE704708B5034AEE
:10CAA00000924023024A00F005F808BDDDE20100D3
:10CAB000702C0020F0B595B01C4615460F46084670
:10CAC0001A9E00F0F7FA182109A8FCF784FC0E96CC
:10CAD000CDE909540023082203A9384600F0FFFAE3
:10CAE00005980690BDF81000ADF81C00BDF81200C6
:10CAF000ADF81E0000208DF821000398082600F0F4
:10CB00000300012802D0022818D032E003983346EF
:10CB1000850AC0F3C2008DF8200003980FA9C0F366
:10CB20008314A200384600F0DAFA09A8009006AB98
:10CB300022460FA9284600F019FA1AE00398840D3E
:10CB4000C0F3C2008DF82000082C01D2254600E079
:10CB5000082533462A460FA9384600F0C0FA2E446D
:10CB6000641B09AB06AA29460FA800F05BF9002C4C
:10CB7000EAD1384600F0A4FA15B0F0BD0A4A0129FE
:10CB800002EBC00007D0022907D0032907D00429EF
:10CB900007D00020704702207047042070470079BA
:10CBA000704740797047000050F7010010B5FFF75B
:10CBB00072FF04210348FFF73FFF02490120C968C3
:10CBC000487110BD40F701002DE9F04F8DB0FEF720
:10CBD0009BFB18B100200DB0BDE8F08F7E4C4FF0EC
:10CBE000000BC4F818B4BFF34F8F60680290A568BB
:10CBF000D846284004EB80000CE000BFD4F81804AD
:10CC000070B921680298814201D86160E2E728404A
:10CC100004EB80000C3002A9FEF7C4FF0028EDD120
:10CC2000002005AA029901EA050304EB8303491CCD
:10CC3000DB6842F82030401C02910228F2D30598AC
:10CC400000F00300022802D001284DD0AAE0059888
:10CC50005022810D8946B2EB905F00D850210E46DC
:10CC600066F39F50059008315C4800F0DAF9070040
:10CC700078D000F01FFA4346082205A9384600F094
:10CC800036FA029908F1080A2940681A8000001D46
:10CC9000864222D9504D0C3530B1C2B204EB81012D
:10CCA000301A90460C3104E02946F2B20025904635
:10CCB0002846C6B25346384600F019FA0AEB080374
:10CCC00025B132462946384600F011FA029909F199
:10CCD000030001EB900002903BE004EB810153461E
:10CCE000324638460C31EFE70598C0F3831006282A
:10CCF00000D30620059960F38911C1F38310801CCD
:10CD000005918100354800F08CF907004AD000F009
:10CD1000D1F94346082205A9384600F0E8F908F1A0
:10CD2000080800260FE00298434600EA0501401C6F
:10CD300004EB81010290042238460C3100F0D7F94F
:10CD400008F10408761C0598C0F38310B042EAD8B5
:10CD500047B1D4F81054D4F8180478B1384600F02C
:10CD6000AFF934E01EE0E8684079012804D12A6870
:10CD70002846394612689047E8680568002DF2D1C8
:10CD8000384600F09DF98DF800B06846FDF72AF9A5
:10CD9000D4F8180408B9029860609DF80000FDF707
:10CDA00045F914E0D4F8104405E02168204689686C
:10CDB0008847E0680468002CF7D109480949401AFF
:10CDC000C008022101EB004007A100F017F8FEF7B0
:10CDD0009BFA80F00100FEE6082E0020B8F7010063
:10CDE00098F7010050F701004261636B656E647350
:10CDF00020666C75736865640000000000231A46A5
:10CE000001F03CBB08B5012300926A4601F036FBF5
:10CE100008BD1CB5CDE9002302236A4601F02EFBB4
:10CE20001CBD00002DE9F0470E4680461C46924688
:10CE3000082940D894F80C90002020731946104619
:10CE400001F038F90025B54206D218F805201BA1DB
:10CE50002046FFF73BFC03E01AA12046FFF736FC13
:10CE60006D1C082DEFD318A12046FFF72FFC0025DD
:10CE7000B54212D218F805707E2F08D8FCF78EFA4A
:10CE80000068C05D10F03E0F01D03A4600E02E224F
:10CE90000EA12046FFF71AFC03E00DA12046FFF784
:10CEA00015FC6D1C082DE3D301222146504601F0EC
:10CEB000E3F884F80C90BDE8F087000020253032BC
:10CEC00078000000202020007C0000002563000086
:10CED000200000000B4810B5FF2181600021016097
:10CEE0004160C0F81814C0F8141480F820140648E3
:10CEF00000F0E4F8002803D1044800F021F90020F4
:10CF000010BD0000082E0020B8F7010088EF0100D6
:10CF100002480349401AC00870470000B8F70100F2
:10CF200050F7010013B56846FFF714F908B1002067
:10CF30001CBD0248009950F831001CBD50F701009B
:10CF400070B509480125D0F8104480F8205407E056
:10CF5000E06845712168204649688847E0680468B0
:10CF6000002CF5D170BD0000082E00202DE9FF47F0
:10CF700081460C9D00200C462F7B28739846164650
:10CF80002946184601F096F8072E42D2DFE806F04F
:10CF900004090F161F2A360049462846FFF796FB5C
:10CFA00037E0494628462268FFF790FB31E0D4E994
:10CFB000002349462846FFF789FB2AE0A068009035
:10CFC000D4E9002349462846FFF780FB21E0D4E955
:10CFD0000201CDE90001D4E9002349462846FFF7C4
:10CFE00075FB16E004F1080007C88DE80700D4E9D6
:10CFF000002349462846FFF769FB0AE004F10800D0
:10D000000FC88DE80F00D4E9002349462846FFF7F2
:10D010005DFB00222946404601F02EF82F73BDE843
:10D02000FF872DE9F041058A80462D1F4819C01C55
:10D03000B0FBF5F0C6B24046FFF73FF9041E19D029
:10D040000020207101206071E58000272546761EB2
:10D05000C4F800800BE04046FFF72FF960B161791A
:10D06000491C6171286005467F1CC0F80080B742EA
:10D07000F1D32046BDE8F081204600F002F8002000
:10D08000F8E72DE9F041457901466B1E002201E0E9
:10D090000968521C9A42FBD30F680146002605E03E
:10D0A00038460C68FFF72BF92146761CAE42F7D3C1
:10D0B000BDE8F0810121001DFFF7DDB8FFF737B9AA
:10D0C00010B504460121001DFFF7F1F810F0FF0F25
:10D0D00004D12046BDE81040FFF7D3BF10BD1CB5FA
:10D0E00001920122009201AAFEF7F4FF1CBD1CB5BB
:10D0F00001920022009201AAFEF7ECFF1CBD000085
:10D10000064910B500204870091D0860BFF35F8F05
:10D110000349044800F0DEF9002010BDC0250020BE
:10D1200020EE0100642C002010B500F0AFF908B12A
:10D1300041DF10BD20BF40BF20BF10BDFCF7F8BDD0
:10D140008268002191608268116182685161826801
:10D15000D1608268516080680160704720B10349E6
:10D1600009680160002070470E2070470CF0010034
:10D17000FEB502460E460846FFF7F0FF002863D1D1
:10D18000002500950195012706208DF80020ADF8B7
:10D19000040002958DF8027069462020326869DF2C
:10D1A0002A492B4A891AC908012202EB014430B1ED
:10D1B00000F0D4F9024620462649FFF723FE0095E9
:10D1C000019502958DF8017069464020326869DF4B
:10D1D00030B100F0C3F9024620461F49FFF712FEA6
:10D1E0000095019502958DF800706946012032681E
:10D1F00069DF30B100F0B2F9024620461749FFF767
:10D2000001FE4FF4B0600090019502956946A1209F
:10D21000326869DF30B100F0A1F9024620461049BA
:10D22000FFF7F0FD0095019502958DF800506946D5
:10D23000A020326869DF30B100F090F90246204644
:10D240000849FFF7DFFD0020FEBD0000A8F7010040
:10D2500050F7010008F6010050F6010068F50100E2
:10D26000B4F5010014F501002DE9F0410546076809
:10D2700060DF804619491A482A68081AC608BA4267
:10D2800019D9022000EB064416A12046FFF7B6FD8F
:10D2900020463A461FA12B68FFF7BBFD4FF0805098
:10D2A000D0F80C012968800200F10050421A204693
:10D2B00025A1FFF7A7FDB8F100004FF001040AD047
:10D2C00000F04CF9024604EB06402AA1FFF79AFD54
:10D2D0004046BDE8F0812F480470F9E7A8F7010047
:10D2E00050F70100496E73756666696369656E740F
:10D2F0002052414D20616C6C6F63617465642066DF
:10D300006F722074686520536F6674446576696334
:10D31000652E00004368616E676520746865205261
:10D32000414D207374617274206C6F636174696F16
:10D330006E2066726F6D203078257820746F2030F3
:10D340007825782E000000004D6178696D756D209C
:10D3500052414D2073697A6520666F72206170704A
:10D360006C69636174696F6E206973203078257809
:10D370002E00000073645F626C655F656E61626CB5
:10D380006528292072657475726E65642025732E78
:10D39000000000002B26002030B5144891B0007822
:10D3A000002820D05FF03405ADF8405010A903A844
:10D3B00061DF30B1052816D011B0BDE83040FCF770
:10D3C000B7BC03AC0A49684600F084F807E000BF28
:10D3D000D0E9002120469047684600F092F8029874
:10D3E0000028E1D0F4E711B030BD00002B2600206A
:10D3F00010F001007CB5194C207808B108207CBDE4
:10D400000120A070002000F033FF112819D0002067
:10D4100000F046FF12480026006801908DF8006079
:10D420006846FCF7DFFD0F4901A810DF05000AD0B0
:10D43000002020709DF80000FCF7F8FD2DB1284673
:10D440007CBD00207CBD0120F3E7A670667000F073
:10D45000E9FF012000F024FFF3E700002826002068
:10D46000A4EF0100AD9C01000EB50749684600F02D
:10D4700031F805E0D0E900108847684600F041F82F
:10D4800002980028F6D10EBDC0EF010001480078D7
:10D4900070470000282600201FB568464BDF30B1DA
:10D4A000052814D004B0BDE81040FCF741BC084981
:10D4B00001A800F00FF806E0D0E90021009890479D
:10D4C00001A800F01EF803980028E6D0F4E71FBD7D
:10D4D0002CF00100016009684160AFF3008010B5D5
:10D4E000D0E900215368994201D1002104E0D1E93B
:10D4F0000034A34202D01946816010BD083141605A
:10D50000F0E7816800290BD0026892680A448260C3
:10D5100041684B689A4203D108314160FFF7DFBF91
:10D52000704700000C4A10B502F594730EE0991A8A
:10D53000C91001EBD171491002EBC1010C688442A2
:10D5400001D90B4602E005D201F108029A42EED35E
:10D55000002010BD486810BD40EE010000B5FFF787
:10D56000E1FF002800D1014800BD00002CEE0100C1
:10D570004058002800D00120704708B500224250D2
:10D580004058009008BDD0F80403084000D00120A6
:10D5900070474058002800D00120704708B500228D
:10D5A00042504058009008BD08480068012110F022
:10D5B000010F06D14FF0E020C02280F80024C0F80F
:10D5C00000110349012008607047000000E100E0FD
:10D5D000180500400649024600200B790BB1852052
:10D5E00070470A6001220A7100224A7170470000E8
:10D5F0006025002004490120086004480168C1F347
:10D6000000410029FAD170470C0000401804004086
:10D61000002802D00149800108477047D1ED010080
:10D620002DE9F0418846054600F00EFD234E002806
:10D6300028461AD0FDF7A8FE304490F8480080092B
:10D64000032802D001280ED007E04FF0A040D0F808
:10D650001005E84010F0010F05D003212846BDE871
:10D66000F041FFF7A7B90221F8E700F0F9FC002824
:10D6700022D02846FDF788FE04464FF4807000EB68
:10D6800084000F4F81B207EB8400D0F8102542F0E0
:10D690000102C0F810250846FFF7BCF9B8F1000FE9
:10D6A0000AD02846FDF770FE56F82000002803D067
:10D6B0000120A040C7F80403BDE8F081602A0020E3
:10D6C000006000402DE9FC41DFF8BC80044608EB17
:10D6D0000400002790F930001346C0170E46401C86
:10D6E00001D008274CE0B0781946C0F3400220462C
:10D6F000FDF726FE0546401C41D0B078410719D4FD
:10D70000C0070AD04FF0A04000EB8401D1F8000719
:10D7100020F00200C1F8000707E0002173782046DE
:10D7200000910A460191FFF7E9F817492046543164
:10D73000FEF71DFEB078800718D51448317800EB4D
:10D740008500D0F81025124B1A40C0F810254FF470
:10D75000F8524FF4403302EA042203EA01410A433B
:10D76000D0F810150A43C0F8102509E008EB0500B1
:10D77000327810F8481F41EA8211017000E0042756
:10D780003846BDE8FC810000602A002000600040AF
:10D79000FFE0FCFF4FF0A041D1F81015C14011F09F
:10D7A000010000D00120704770B5174D95F8580062
:10D7B00008B1082070BD0020411E2A18401CC0B2CC
:10D7C00082F830102028F8D300242046FDF7AAFD67
:10D7D000641CE4B20C2CF8D300240C49C0206C6506
:10D7E00081F8000401264020891FC1F800014FF490
:10D7F000BE70FFF70FF90649F007C1F8040385F87A
:10D800005860204670BD0000602A002006E000E05D
:10D8100000600040034890F85800002800D0012024
:10D8200070470000602A00200121B1EB507F01D138
:10D83000012070470020704738B50D4600F086FC87
:10D84000040014D000208DF800006846FCF7CAFBE5
:10D85000207928B19DF80000FCF7E8FB112038BDC5
:10D860000120256020719DF80000FCF7DFFB0020FF
:10D8700038BD00000149024800F0F4BFBC2A002076
:10D88000002000402DE9F0410546007916460F467C
:10D8900000EB40012C4A01EBC00102EB810494F83B
:10D8A0002A1011B10820BDE8F081284951F8201054
:10D8B0002868FFF7C1FF08B11120F4E73946284670
:10D8C000FCF7CEFB66603869206030004FF001063F
:10D8D0002DD03F7F4FF48E712868FFF74EFE4FF436
:10D8E000A2712868FFF749FE28681949C0F8041397
:10D8F00028684FEA471140F30730002806DA00F0A5
:10D900000F0000F1E02080F8141D03E000F1E0209A
:10D9100080F80014286840F3073000F01F0106FA71
:10D9200001F14009800000F1E020C0F800112868F2
:10D930000421C0F800150020A061E06184F82900EE
:10D9400044F8140FA675AEE7BC2A0020B8ED01001C
:10D95000800002002DE9F05F054600794FF4017662
:10D9600000EB400303EBC000344B03EB80040020CA
:10D97000636813B12B68C3F80863A3694FF000090B
:10D980006BB1E06938B1606810B12868C0F8046311
:10D990001120BDE8F09FE2610120216105E0C4F89B
:10D9A0002490A261E160C4F81C9094F8291001430E
:10D9B00002D1284600F023FC60680028286803D0C4
:10D9C000C0F804630020E4E74FF4A2763146FFF785
:10D9D000D4FDB2464FF4927B59462868FFF7C8FD44
:10D9E00006464FF484712868FFF7C2FD8046514611
:10D9F0002868FFF7BDFD074648EA07003043EBD033
:10DA000056EA070007D12146286800F0C9FBA16942
:10DA1000606A8142E0D8C4F818900EB10320B8E7DC
:10DA20000FB10F20B5E794F82910012000292968CB
:10DA300001D00860C6E74860C4E70000BC2A0020A7
:10DA40002DE9F047054600790B4600EB400101EB5C
:10DA5000C000234901EB8004284600F043F810B1D0
:10DA60001120BDE8F0874FF00008C4F82080A360C3
:10DA7000626184F828804FF48E76474631462868E4
:10DA8000FFF77BFD28684FF00109C0F80890214698
:10DA9000286800F025FE606800BBD5F800A00EE005
:10DAA00094F8280008B10F2716E031465046FFF7DA
:10DAB0005FFD0028F4D02146504600F011FE216A97
:10DAC00060698142F1D331462868FFF751FD002893
:10DAD000F9D02868C0F80C90C4F814803846C0E724
:10DAE000BC2A0020007900EB400101EBC000044992
:10DAF00001EB80004069002800D001207047000041
:10DB0000BC2A00200149024800F058BFE82A002042
:10DB1000002000402DE9F0410546164600790F46E9
:10DB2000154A00EBC00102EB810494F8201011B1FA
:10DB30000820BDE8F081114951F820102868FFF74E
:10DB40007BFE08B11120F4E739462846FCF7CCFAF1
:10DB50006660386920601EB1397F2846FDF7E4FF12
:10DB600028680821C0F800150020A061E06160610C
:10DB7000012184F82010DCE7E82A0020BCED010038
:10DB80002DE9F05F044600790E4600EBC001DFF896
:10DB9000F0A017460AEB81053046FFF745FEB0B10D
:10DBA00068684FF000084FF4047910B12168C1F89B
:10DBB0000893A8694FF0000B80B1E86948B1686824
:10DBC00010B12068C0F804931120BDE8F09F102028
:10DBD000FBE7EF614FF001082E6102E0EE60C5E95E
:10DBE000067B00254FF488712068FFF7D7FC4FF4BF
:10DBF000A2712068FFF7D2FC2068C0F83465C0F835
:10DC000038752068B8F1000F12D0D0F8001241F03A
:10DC10002001C0F800122079D04600EBC0010AEBC9
:10DC20008100406838B12068C0F804932846CCE7EA
:10DC300001210160EFE74FF4887A4FF4A279514651
:10DC40002068FFF7A6FC074649462068FFF7A1FCBD
:10DC500006464FF492712068FFF79BFC014647EAA5
:10DC600006000843EBD0227902EBC20308EB8302E3
:10DC7000C2F818B001B10325002ED7D00F25D5E783
:10DC8000E82A00202DE9F04704460E460079204995
:10DC900000EBC00001EB800517463046FFF7C4FDDE
:10DCA00030B1204600F036F820B11120BDE8F087F1
:10DCB0001020FBE76F61AE604FF49076002731468D
:10DCC0002068FFF76BFC4FF4AC7841462068FFF703
:10DCD00065FC2068AA686969C0F84425C0F8481541
:10DCE000206801218160686878B9B146494620689A
:10DCF000FFF74FFC064641462068FFF74AFC064303
:10DD0000F4D000B10F27002068613846CEE700004C
:10DD1000E82A00200079054900EBC00001EB8000F3
:10DD20004069002800D0012070470000E82A002048
:10DD30002DE9F04105460078002828D115481649FC
:10DD40000026401AC008012101EB004710E02869B5
:10DD5000805DFCF71DF9040009D0112CF7D038467E
:10DD600022460EA1FFF74EF82046FBF7E1FF761C96
:10DD7000A88AB042EBD8A98A2869084410F8010C97
:10DD80000D2804D10A20FCF703F91128FAD0BDE8C8
:10DD9000F081000098F7010050F701004661696CBE
:10DDA000656420726563656976696E67204E5553B8
:10DDB000206D6573736167652E204572726F7220E6
:10DDC000307825782E20000010B550B103280CD1F2
:10DDD0000220FDF7FBF8002807D0BDE81040FBF754
:10DDE000A7BFBDE8104000F0FDBA10BD00780028C4
:10DDF00007D104483B21408876DF002801D0FBF79B
:10DE000097BF704708250020F0B58BB0002601961B
:10DE10000D4604468988406901AAFCF7A9F90AA8B9
:10DE2000CDE908600227ADF82070ADF82260218AA4
:10DE3000A88808AAADDF002819D1A069002816D04B
:10DE40000998FCF767FF002811D0019E0EB1012050
:10DE50003070182102A8FBF7BEFA8DF80870039401
:10DE6000A888ADF810000596A16902A888470BB0F4
:10DE7000F0BD000070B502468888C97B00EB400306
:10DE800002EB4304A41D012901D1118821802188BE
:10DE90006288914213D9A5DF012578B111280FD0EE
:10DEA000FFF75CFB024607480749401AC00805EB2C
:10DEB0000040BDE8704005A1FEF7A4BF657170BDCC
:10DEC000257170BD50F7010050F7010073645F6267
:10DED0006C655F67617474635F65786368616E67C2
:10DEE000655F6D74755F726571756573742829203F
:10DEF00072657475726E65642025732E00000000D3
:10DF00007CB506468D88C88805EB450106EB4104C3
:10DF1000A41D172800D217202188814200D8084666
:10DF200060800020207121882846B5DF60B1FFF7AE
:10DF300015FB02460F481049401AC008012101EBA9
:10DF400000400EA1FEF75EFF6079002810D1F06856
:10DF500000280DD01549D1E90201CDE90001ADF845
:10DF600002506088ADF80400F26869463046904778
:10DF70007CBD000050F7010050F7010073645F6240
:10DF80006C655F67617474735F65786368616E6701
:10DF9000655F6D74755F7265706C79282920726594
:10DFA0007475726E65642025732E000094ED010077
:10DFB000F0B587B00C4605468E1D8988406906AAD3
:10DFC000FCF7D6F818216846FBF705FA0195A088FA
:10DFD000069AADF80800039231882B89002704F1D6
:10DFE0001200994202D17389022B0DD0AA89914265
:10DFF0001ED1A96900291BD08DF80070049070898A
:10E00000ADF81400A96911E0002A11D0FCF782FED6
:10E0100020B1069901200870022002E006980770DE
:10E0200003208DF80000A969002901D068468847BF
:10E0300007B0F0BD0068012803D0022801D00020FD
:10E0400070470120704700000449084490F93000EF
:10E05000082801DB0120704700207047602A00205B
:10E060000449084490F93000082801D20120704783
:10E0700000207047602A002010B50C46017A05295F
:10E0800008D0407A38B1084808A102682046FEF757
:10E090001DFB00E01AB106A12046FEF717FB204643
:10E0A000BDE81040FEF71FBB0426002025730000CA
:10E0B0000D0A000038B5C3880D46044633B114A0DC
:10E0C000009015A216A12846FEF700FB217A05292B
:10E0D0001CD0607A48B1A088FEF750FD164951F86F
:10E0E000202016A12846FEF7F1FAA0880021FEF7AD
:10E0F00019FF03461049207A143951F8202001B045
:10E100002846BDE830400EA1FEF7E0BA38BD000059
:10E110001B5B306D000000001B5B313B33316D0039
:10E1200025734C6F67732064726F7070656420286C
:10E1300025642925730D0A0004260020257300009C
:10E140003C25733E2025733A200000000349884295
:10E1500001D10348704700207047000000200040B4
:10E160006825002070B5012670044FF0E0210025DD
:10E17000C1F88001084C4010C4F84803C4F80803F3
:10E1800066602F20FFF744FAA660044C2F20A5609C
:10E19000FFF73EFAA57070BD0010014090250020E9
:10E1A00070B5054688690C4600284FF484712846EE
:10E1B0000AD0FFF7E2F9D5F81805626AE1688854D9
:10E1C000606A401C606270BDFFF7D7F9D5F818058A
:10E1D00070BD1FB501238DF80030CDE90121D0E9D4
:10E1E0000012684690471FBD1FB501238DF800300F
:10E1F000CDE90121D0E90012684690471FBD10B556
:10E20000044600684FF49271FFF7B7F94FF4847138
:10E210002068FFF7B2F920680121016010BD0000FD
:10E2200038B50021012548B101280CD0032809D1B7
:10E23000FFF7BAF9BDE83840FEF7DCB94FF0E0204F
:10E24000C0F8805138BD8DF800106846FBF7CAFE53
:10E25000064C207808B9FEF7B1F9E068401CE06090
:10E26000A5709DF80000FBF7E1FE38BD4C2A0020A8
:10E270003EB5044609496846FFF72CF908E000BF9F
:10E28000D0E900212046904730B16846FFF739F9C0
:10E2900002980028F4D13EBD11203EBDA8EF010038
:10E2A0003EB5044608496846FFF714F907E000BF89
:10E2B000D0E90021204690476846FFF722F90298EE
:10E2C0000028F5D13EBD0000B4EF01000249896984
:10E2D000002900D008477047B82900202DE9F041F7
:10E2E0001400884618D000250E4F032608EB0501C0
:10E2F00022460020FBF7FCF90544241A40B938787F
:10E30000002809D008494FF47A408847761E05D086
:10E3100001203870002CE9D1BDE8F0810020387070
:10E32000FAE70000CC25002081EF01002DE9F04143
:10E330000746806A14468846C8B3002531E000BF0E
:10E34000B96A05EB450001EB8006B088801CFE2809
:10E3500002D90C20BDE8F0812288401C08F8020098
:10E3600020881622401C80B2208008F800202088D7
:10E37000401C80B2208000EB0801308800F097FB41
:10E380002188084480B22080B28842B1B16871B15E
:10E390004044FBF707F82088B188084420806D1CB2
:10E3A000EDB297F82C00A842CAD80020D2E7FFE7C8
:10E3B0000720CFE70A78062822F0FF020A7010D261
:10E3C000DFE800F0030507090B0D002008E011202D
:10E3D00006E0212004E0312002E0122000E02220AB
:10E3E0000870704710B50020FCF7F0FD08B1FBF78E
:10E3F0009FFCFCF745FD08B1FBF79AFC33DF0028D2
:10E4000003D0BDE81040FBF793BC10BD002805D138
:10E410000349012048700020FDF786B870470000CE
:10E420004C2A002010B51620FBF7B0FBA0B1114814
:10E4300090F800044009082811D20121814011F010
:10E44000EC0F0CD00C4882684FF480016AB101686F
:10E4500041F48001016010BD42F2010001E042F28E
:10E460000200BDE81040FBF763BC4FF0E020C0F8AD
:10E47000001110BD16E000E0582C00202DE9F84FE7
:10E48000204D92468946064698460122694618461E
:10E49000AF68FCF7D9FE58B3009800210446801CF1
:10E4A00009E000BF00EA07035AF8212005EB8303C7
:10E4B000401C491CDA604145F4D34FEA164AFDF787
:10E4C00083F94AEA0041601C384005EB80003C407B
:10E4D00005EB8402C160D06866F3C50068F389105B
:10E4E00069F39F2020F00300401C20F00400D0605E
:10E4F00095F8200402E000BFFEF766FB0028FBD180
:10E50000BDE8F88F082E00202DE9F84F1D4C00259E
:10E510006846D4E901A6FDF761F9002738B3002366
:10E52000009A61681CE0D1F800C00846944503D900
:10E53000ACEB02020A6015E0A2EB0C026344076038
:10E54000D0F80CC0C1698146BCF1000F08D006EBC1
:10E55000030828F07F48C0E9018CC9F81C50054623
:10E560000029E0D128466160FDF782FB03E02846E0
:10E57000FDF77EFB10B15046FCF7F8FFE770BDE8F1
:10E58000F88F0000902500200D4B10B5596831B16F
:10E5900002680C68A24204D8A21A0A60C1615860DD
:10E5A00010BD0B4603E00B46C969121B21B10C6874
:10E5B0009442F8D3A41A0C600260C161D86110BD06
:10E5C000902500202DE9F041144E77683D462C46F9
:10E5D00003E0844204D02546E469002CF9D11BE015
:10E5E000D4B1A5420BD1F869706040B90C49012043
:10E5F00088600021B160F0702F20FFF709F82168D2
:10E60000E069E86110B102681144016070688742F6
:10E6100002D00120BDE8F0810020FBE7902500201A
:10E62000001001407CB5064600240D468DF80040E0
:10E630006846FBF7D7FC01A800F0EAFA70B1057054
:10E64000094946609DF8040048709DF80000FBF7FA
:10E65000EDFC1420FAF7F0FF20467CBD04249DF861
:10E660000000FBF7E3FCF7E72C2B00202DE9F0413D
:10E67000194D6C68002C2CD0184800270068A96838
:10E68000B846401A20F07F462068B0420CD8214698
:10E69000361A0744E469087C20B181F81080886943
:10E6A00049698847002CEFD129786878814206D1E2
:10E6B000401CC0B26870022801D185F8018006486C
:10E6C00069780C3040F82170BDE8F0411420FAF769
:10E6D000B3BFBDE8F0810000902500200415014083
:10E6E00070B50C4605464FF48E71FEF746FF216A61
:10E6F000A068415C206A401C2062C5F81C1570BDF2
:10E700001FB500228DF800200291816801914261BD
:10E71000D0E90012684690471FBD000038B5017867
:10E7200041B1012901D002292FD14068BDE838400C
:10E73000FBF7FEBA164C154D20782844FBF7BCFBBE
:10E740002078401CC0B22918207011F8011C0A2939
:10E7500004D00D2902D0A188884216D3012812D9ED
:10E760002078ADF800000A4863886A4607490C30F3
:10E77000FCF7FAF9082806D01328F1D0052802D0B2
:10E7800008B1FBF7D5FA0020207038BD30260020F4
:10E79000082500207CB50178244D81B301290BD0D8
:10E7A00002292BD18DF80010C068691C019001224C
:10E7B000C81DFDF76BFF2EE0406801781C48FBF791
:10E7C000DDFA1B4C012618B18DF80060019006E0BF
:10E7D000A068E168814205D000208DF800006968DA
:10E7E00068468847A068E168081AA188884207D867
:10E7F0000E490122491CC81DFDF748FF7CBD01E000
:10E80000AE70FBE70A4809491030FBF79CFA30B1BB
:10E8100003208DF80000696868468847EEE70349E1
:10E82000012201F10800FDF741FFE7E7A4250020E0
:10E83000382C00201FB50A4601788DF80010416879
:10E840000191017A8DF80810C0680390044850F8CF
:10E850002210001F50F82220684690471FBD00007C
:10E860005C2500202DE9FF470C4605464FF400715A
:10E87000FEF789FE01274FF40178002618B34FF404
:10E88000927949462846FEF773FEE0B1494628468C
:10E89000FEF773FEC5F8088394F8290000B96F608D
:10E8A00002208DF80000D5F88004C5F8800403909C
:10E8B000A0690290E0680190A661E661D4E90012C7
:10E8C0006846904728E004212846FEF75CFE18B30E
:10E8D0004FF484712846FEF74BFEE8B121462846E6
:10E8E000FFF75EFC616AA069884215D1E06938B122
:10E8F000E268616AA0612069E6616662E06008E042
:10E9000094F8290000B96F60C5F80883A661E26831
:10E91000616A2046FFF75DFC4FF48E784146284639
:10E92000FEF726FE78B1206A6169884202D294F827
:10E93000280020B341462846FEF71FFE616911B149
:10E940002046FFF7DDFE4FF4A27841462846FEF749
:10E950000FFE002818D041462846FEF70EFE94F818
:10E96000290000B12F60A06900280DD0A661E268DF
:10E97000616A04B02046BDE8F047FFF72ABC214693
:10E980002846FFF7ADFEDEE7BDE8FF871FB50A4664
:10E9900001788DF8001041680191017A8DF8081016
:10E9A000C0680390044850F82210001F50F822203D
:10E9B000684690471FBD00005C2500202DE9FF41FF
:10E9C0000C464FF4927706463946FEF7E2FD0025E5
:10E9D000B8B139463046FEF7E1FD02208DF800005F
:10E9E000D6F88004C6F880040390D6F83C0502905F
:10E9F000E0680190A561E561D4E90012684690479E
:10EA000023E04FF4887739463046FEF7C2FDE0B187
:10EA100039463046FEF7C2FDD6F83C15A06988425B
:10EA200013D1E06960B1E268D6F8000220F020005E
:10EA3000C6F80002E069A0612069E561E06001E0DC
:10EA4000A561E2682046FFF7CFFB4FF4A277394675
:10EA50003046FEF79EFD68B139463046FEF79EFD12
:10EA6000A06938B1A561E561D6F83C152046E26899
:10EA7000FFF7BAFB4FF4907739463046FEF789FD31
:10EA8000002812D039463046FEF788FD606900281C
:10EA90000BD0D6F84C058DF800500290A06801907C
:10EAA0006561D4E9001268469047BDE8FF810870AF
:10EAB000000A4870022070472DE9F05F8346DDE9C7
:10EAC0000A4A994690460D460846012703E000BFD2
:10EAD000B0FBF8F07F1C4045FAD2B94500D94F464B
