:020000040000FA
:040FF8000080020073
:020000040000FA
:040FFC0000E002000F
:020000040002F8
:1080000080510020DD830200E5830200E783020047
:10801000E9830200EB830200ED8302000000000010
:10802000000000000000000000000000C983020002
:10803000F183020000000000F3830200F5830200D8
:10804000F7830200F7830200F7830200F783020040
:10805000F783020000000000F7830200F7830200AC
:10806000F7830200F7830200F7830200F783020020
:10807000F7830200F7830200F7830200F783020010
:108080008996020055940200F7830200F7830200EC
:10809000F7830200F7830200C9940200F78302000D
:1080A000F7830200F78302000000000000000000D8
:1080B000F7830200F78302000000000000000000C8
:1080C00000000000000000000000000000000000B0
:1080D00000000000000000000000000000000000A0
:1080E0000000000000000000000000000000000090
:1080F0000000000000000000000000000000000080
:10810000000000000000000000000000000000006F
:10811000000000000000000000000000000000005F
:10812000000000000000000000000000000000004F
:10813000000000000000000000000000000000003F
:10814000000000000000000000000000000000002F
:10815000000000000000000000000000000000001F
:10816000000000000000000000000000000000000F
:1081700000000000000000000000000000000000FF
:1081800000000000000000000000000000000000EF
:1081900000000000000000000000000000000000DF
:1081A00000000000000000000000000000000000CF
:1081B00000000000000000000000000000000000BF
:1081C00000000000000000000000000000000000AF
:1081D000000000000000000000000000000000009F
:1081E000000000000000000000000000000000008F
:1081F000000000000000000000000000000000007F
:10820000DFF80CD000F03CF90048004761A60200FE
:108210008051002080F308888E46104730B450E823
:10822000012F93B2C48923448489A34228BF1B1B16
:108230000489A34202BFBFF32F8F002007E0C3EAE7
:10824000020340E80134002CE9D14FF001000A603C
:1082500030BC704750E8012FC2EA024240E80121D9
:108260000029F7D1704730B450E8022F1FFAA2F36B
:10827000C488A34202BFBFF32F8F00200DE0C48942
:1082800023448489A34228BF1B1BC2EA034340E85E
:108290000234002CE8D14FF001000A6030BC704776
:1082A00050E8022FC2EA224240E802210029F7D119
:1082B0007047034653E8022FD988B2EB324F4FF094
:1082C000000017BF92B241EA014142EA014104E0D5
:1082D0005A68B2EB324F08BF012043E80212002A6D
:1082E000E8D1704730B4044654E8000F0D4644E826
:1082F0000053002BF8D1156030BC704730B40446F1
:1083000054E8000F40EA010544E80053002BF7D180
:10831000156030BC704730B4044654E8000F00EAE2
:10832000010544E80053002BF7D1156030BC7047BD
:1083300030B4044654E8000F80EA010544E80053D5
:10834000002BF7D1156030BC704730B4044654E8B8
:10835000000F00EB010544E80053002BF7D1156036
:1083600030BC704730B4044654E8000FA0EB010560
:1083700044E80053002BF7D1156030BC704770B44F
:1083800004464FF0000054E8006F0D68AE4207BF8E
:1083900044E80023012044E800630E60002B1CBF6A
:1083A0000020F0E770BC704730B4044654E8000F7A
:1083B00088422CBF451A054644E80053002BF5D1EE
:1083C000156030BC704700001EF0040F0CBFEFF3C7
:1083D0000880EFF3098003F01DBC000006488047C9
:1083E00006480047FEE7FEE7FEE7FEE7FEE7FEE79A
:1083F000FEE7FEE7FEE7FEE7CD9402000182020001
:10840000202A04DB203A00FA02F100207047914054
:10841000C2F1200320FA03F319439040704740EA69
:1084200001039B0703D009E008C9121F08C0042AF2
:10843000FAD203E011F8013B00F8013B521EF9D2D9
:108440007047D2B201E000F8012B491EFBD2704701
:108450000022F6E710B513460A4604461946FFF710
:10846000F0FF204610BD30B504460020034600E072
:108470005B1C934203D2E05CCD5C401BF8D030BD66
:10848000064C074D06E0E06840F0010394E8070061
:1084900098471034AC42F6D3FFF7B6FECCD90200B1
:1084A000ECD902002DE9F0438BB01446129D15F96A
:1084B000046B00961F46804689462B46024621469D
:1084C00002A800F098FC02A9129A084600F08FFC5E
:1084D000129B02AA4146404600F079FC129B02AA78
:1084E0002146204600F073FC2B464A463946384662
:1084F000009600F080FC129A394602A800F077FC42
:1085000002A92B4642460846009600F074FC02A9D8
:108510002B4622460846009600F06DFC2B4642464C
:1085200021462046009600F066FC129B22464946F2
:10853000484600F04CFC2B4602AA414620460096D5
:1085400000F059FC129B22463946384600F03FFCA9
:108550002B464A4639463846009600F04CFC3246D7
:1085600002A9204600F00DFE0BB0BDE8F083F0B587
:10857000154689B01C4607460E461A4629466846E7
:1085800000F035FC23466A463946384600F01FFCA9
:1085900023462A466946684600F019FC23466A4687
:1085A0003146304600F013FC09B0F0BD8B18024490
:1085B0008B4200D1704713F8010D02F8010DF7E767
:1085C0002DE9F047B3F9024088461E4604F11F0129
:1085D0002023073491FBF3F708234FFA87F994FB24
:1085E000F3F4944228BF14464946054600F07EFA4B
:1085F00022464146FFF7DAFFB6F90230E4009C421A
:1086000021D9E41A05EB87010022C4F120078D422D
:108610000FD324364A462946304600F072FA012824
:1086200011D04B46324629462846BDE8F04700F0B7
:10863000B7BD51F8040C20FA04F3134341F8043D8C
:1086400000FA07F2E3E7BDE8F0872DE9F04793F978
:10865000006092B004468946104631461546984659
:1086600000F063FA002840F093804246494602A891
:1086700000F0BDFB434602AA21460AA800F0A7FB72
:1086800002A90846424600F0B2FB43462A46494644
:10869000484600F09CFB08F104074246294628465C
:1086A00000F0A5FB3B462A4621462046009600F0F6
:1086B0004BFA3B462A4629462846009600F044FAE3
:1086C0003B462A4621462846009600F094FB434646
:1086D0002A462146204600F07AFB3B4622462146A8
:1086E0002846009600F030FA3B4600962A4621467E
:1086F000204600F029FA2368DB074CD533463A467A
:108700002146204600F0C4F931468246204600F05A
:108710002AFD06F18043013B54F8230040EACA7069
:1087200044F8230042462146284600F060FB3B46C1
:108730000AAA29462846009600F05DFB3B460AAA95
:1087400029462846009600F056FB0AA908463B46F3
:108750002A46009600F04FFB43460AAA21462046CF
:1087600000F035FB02AA3B4610462146009600F079
:1087700042FB32462946204600F003FD3246494678
:10878000284600F0FEFC324602A9484600F0F9FCFB
:1087900012B0BDE8F0873146204600F0E4FCC1E7A6
:1087A000004870471CD902002DE9F04FEDB01F467C
:1087B000DDF8D8810590B8F9026098F900402023CF
:1087C0001F3696FBF3F676B206F1FF3924AB00258F
:1087D00043F829506CAB03EB89034CA88A469346B7
:1087E000394698F9012043F8805C43F8605CFFF754
:1087F000DDFE98F9012054A8B918FFF7D7FE2146ED
:108800004CA800F092F90746002840F03981214633
:1088100054A800F08AF90290002840F0338108F152
:10882000240332464CA91846039300F06AF9012844
:1088300040F02A81324654A9039800F062F90128D9
:10884000069040F021811CAD0CAF3346039A54A929
:10885000284600F092F9029B47F829305A465146C3
:1088600038464346FFF7ACFE39463846039B009630
:108870002A4600F008FA0DF5B879039B00962A46BF
:108880004CA914A800F0FFF948462246059900F0CB
:1088900078FCA30009EB030A0793059BA100591874
:1088A00008F1440B5046224600F06BFC5946224624
:1088B00034A800F066FCA3000BEB030122463CA8A1
:1088C00000F05FFC08F10403494634AA28460094EE
:1088D000049300F090FA53464A463CA934A8CDF8D8
:1088E0000080FFF7DFFD2346049A2946284600F062
:1088F00044F92A46514648464346FFF738FE029B54
:1089000008933146059B0A933846CDF824B0CDF83C
:108910002C9000F00BFC3146814614A800F006FCB8
:108920008145B8BF81461FFA89F909F1FF3B0FFA6B
:108930008BFB5946384600F063FC5946071C14A8C7
:1089400018BF012700F05CFC002814BF022300239D
:108950001F430DF1200A22465AF8277024A83946F1
:1089600000F00FFC0DF1B00BA300F9182246584699
:1089700000F007FC2146284600F0B8F8A9F10209EA
:10898000069B2B600FFA89F90DF1900AB9F1000FDF
:1089900023DA2346049A2946284600F0EEF8434697
:1089A0002A4659465046FFF7E2FD324651460398A3
:1089B00000F0A7F8012805D03346039A51465046E7
:1089C00000F0EEFB013C64B2002C4CDA029BB3FADF
:1089D00083F040096DB0BDE8F08F43462A46D8F8D1
:1089E000A47059465046B84749460CA800F008FC08
:1089F0004946071C14A818BF012700F001FC0028F5
:108A000014BF02200020384308AB53F820702FB366
:108A10002246394634A800F0B4FB079B2246F918D9
:108A20003CA800F0AEFB43462A463CA934A8FFF719
:108A30009EFD049B009434AA514644A800F0DBF943
:108A40005B4652463CA934A8CDF80080FFF72AFDCA
:108A5000434644AA2946284600F0B9F909F1FF39EE
:108A60000FFA89F992E723B26CAA02EB83025AF853
:108A7000233052F8802C5340029A1A430292A1E705
:108A80002846A7E73846A5E70298A3E700000000BC
:108A9000C3F10803DB0070B50133002403A500BF58
:108AA0005B1920C940CAAD1920C0184720C940CA67
:108AB000754120C020C940CA754120C020C940CAA4
:108AC000754120C020C940CA754120C020C940CA94
:108AD000754120C020C940CA754120C020C940CA84
:108AE000754120C06441204670BD00BF002310B511
:108AF0001C465AB2914200DC10BD40F823400133BD
:108B0000F7E710B5013A52B2002A01DA002010BD91
:108B100013B250F8234051F823309C4203D8F1D2CD
:108B20004FF0FF3010BD012010BD10B500231A46D4
:108B30005CB2A14203DCB2FA82F0400910BD50F8E9
:108B4000234001332243F3E770B59DF910401E46E0
:108B500023460546FFF79CFF30B92246294630469A
:108B6000FFF7CFFF012807D0234632462946284683
:108B7000BDE8704000F014BB70BDF0B50F46A1B069
:108B800006461946384615461C46FFF7CEFF28B163
:108B900021463046FFF7AAFF21B0F0BD22463946F4
:108BA000684600F0EEFA2246294608A800F0E9FAE5
:108BB000214610A8FFF79AFF0123214618A8109319
:108BC000FFF794FF224608A96846FFF79AFF28B9E5
:108BD000224610A9304600F0D4FADDE7009BDA0700
:108BE00009D42146684600F0BEFA2246294610A85C
:108BF00000F0E6FBE6E7089BDB0707D4214608A860
:108C000000F0B1FA2246294618A8F1E700282346C9
:108C10001CDD08AA6946684600F0C2FA214668468B
:108C200000F0A1FA224618A910A8FFF76AFF002851
:108C300005DA10A923462A460846FFF729FF10A99E
:108C4000234618AA084600F0ABFACEE708A96A4600
:108C5000084600F0A5FA214608A800F084FA22464A
:108C600010A918A8FFF74DFF002805DA18A9234618
:108C70002A460846FFF70CFF18A9234610AA084603
:108C800000F08EFABEE72DE9F04FB5B004AD9DF9C6
:108C9000F8401F4680462346284600F0BEF824AB25
:108CA000214638460293039500F040FAC0EB841049
:108CB00005B26B4203F01F034FF0200695FBF6F65A
:108CC00076B205F01F0914A858BFC3F10009314658
:108CD000FFF70CFFB9F1000F30B22BDD14AB00220F
:108CE00003EB8000C9F1200E1346A34217D327B22D
:108CF0007B00019314AB03EB870704F1FF3934AB1E
:108D0000012603EB8909002D55DB34AB0022C6F1A7
:108D10000100964603EB860A03EB80002DE057F82E
:108D2000236006FA09F10A4340F8232026FA0EF2DE
:108D30000133DAE714AB2246394603EB800000F03A
:108D400020FAD4E70FFA81FC5AF8C83C53F82CB04B
:108D500034AB03EB810151F8803CABEB0303A3EB95
:108D60000E039B4504D034BF4FF0010E4FF0000EB0
:108D700050F8C81C41F82C300132019B51B2994285
:108D8000E0DBA6EB0E035E42214614A85E4100F034
:108D9000EAF934AB03EB8403214653F8802C59F8ED
:108DA000803C384643EAC273013D49F8803C2DB20D
:108DB00000F0D9F9A7E734AB03EB8606224656F854
:108DC000C81C404600F0DDF935B0BDE8F08F30B585
:108DD0001C4691B0054693F90030684600F01DF836
:108DE000D4F8AC3069462846984711B030BD1346D8
:108DF0000A46FFF7ECBF70B59DF910401E462346AA
:108E0000054600F0CDF938B12346324629462846BA
:108E1000BDE87040FFF73CBE70BD2DE9F04F08B4CF
:108E2000F8CA04B451F8042BA3FB028940F8048B60
:108E30004FF0000AE4FB629A4FF0000BE5FB62ABD7
:108E40004FF0000CE6FB62BC4FF0000EE7FB62CE79
:108E500051F8042B4FF00008E3FB628940F8048BC3
:108E6000E4FB629AE5FB62ABE6FB62BCE7FB62CE29
:108E700051F8042B4FF00008E3FB628940F8048BA3
:108E8000E4FB629AE5FB62ABE6FB62BCE7FB62CE09
:108E900051F8042B4FF00008E3FB628940F8048B83
:108EA000E4FB629AE5FB62ABE6FB62BCE7FB62CEE9
:108EB00051F8042B4FF00008E3FB628940F8048B63
:108EC000E4FB629AE5FB62ABE6FB62BCE7FB62CEC9
:108ED00040F8049B40F804AB40F804BB40F804CBD6
:108EE00040F804EB0CBC052B00F01E810C68A0F1CF
:108EF0001400A1F11401A2F1140252F804EB4FF096
:108F0000000550F8046BE4FB6E5652F804EB50F881
:108F1000047BE4FB6E6752F804EB50F8048BE4FB2F
:108F20006E7852F804EB50F8049BE4FB6E8952F81B
:108F300004EB50F804ABE4FB6E9AA0F1140052F875
:108F4000044B51F804EB4FF0000CE4FB6EC540F805
:108F500004CB51F804EBE4FB6E5640F8045B51F887
:108F600004EBE4FB6E6740F8046B51F804EBE4FBA0
:108F70006E7840F8047B51F804EBE4FB6E8940F80E
:108F8000048B51F804EBE4FB6E9AA0E80006062B74
:108F900000F0CA800C68A0F11800A1F11801A2F13C
:108FA000180252F804EB4FF0000550F8046BE4FB94
:108FB0006E5652F804EB50F8047BE4FB6E6752F8EF
:108FC00004EB50F8048BE4FB6E7852F804EB50F895
:108FD000049BE4FB6E8952F804EB50F804ABE4FB0D
:108FE0006E9A52F804EB50F804BBE4FB6EABA0F1B0
:108FF000180052F8044B51F804EB4FF0000CE4FB5E
:109000006EC540F804CB51F804EBE4FB6E5640F813
:10901000045B51F804EBE4FB6E6740F8046B51F815
:1090200004EBE4FB6E7840F8047B51F804EBE4FBBE
:109030006E8940F8048B51F804EBE4FB6E9A40F81B
:10904000049B51F804EBE4FB6EABA0E8000C072B8B
:109050006AD008B40C68A0F11C00A1F11C01A2F1B7
:109060001C0252F804EB4FF0000550F8046BE4FBCF
:109070006E5652F804EB50F8047BE4FB6E6752F82E
:1090800004EB50F8048BE4FB6E7852F804EB50F8D4
:10909000049BE4FB6E8952F804EB50F804ABE4FB4C
:1090A0006E9A52F804EB50F804BBE4FB6EAB52F836
:1090B00004EB50F804CBE4FB6EBCA0F11C0052F8AA
:1090C000044B51F804EB4FF00003E4FB6E3540F81D
:1090D000043B51F804EBE4FB6E5640F8045B51F896
:1090E00004EBE4FB6E6740F8046B51F804EBE4FB1F
:1090F0006E7840F8047B51F804EBE4FB6E8940F88D
:10910000048B51F804EBE4FB6E9A40F8049B51F891
:1091100004EBE4FB6EAB40F804AB51F804EBE4FB6A
:109120006EBCA0E8001808BCBDE8F08F013949B258
:10913000002904DA013149B231B90846704750F8C4
:109140002130002BF2D0F5E701F18043013B50F8CC
:109150002330002023B9013900EB411108B27047D8
:109160005B080130F6E700EB81010023884200D361
:10917000704751F8042C43EA520341F8043DD307E9
:10918000F4E710B500235CB2A24200DC10BD51F838
:10919000234040F823400133F5E7000000000000C1
:1091A000C3F10803DB0070B50133002403A500BF41
:1091B0005B1920C940CAAD1B20C0184720C940CA4E
:1091C000B54120C020C940CAB54120C020C940CA0D
:1091D000B54120C020C940CAB54120C020C940CAFD
:1091E000B54120C020C940CAB54120C020C940CAED
:1091F000B54120C06441B4FA84F0400970BD00BF9D
:109200004A11012350F8220001F01F0103FA01F175
:1092100008407047F0B5082289B00C460646FFF7B3
:10922000B0FFCB6A03930B6B04934B6B05938B6B73
:109230000693CB6B0793002708236A466946684666
:10924000029701970097FFF723FC082305466A461B
:1092500031463046FFF71CFC236B0393636B04938A
:10926000A36B0593E36B0693054408236A4669469E
:1092700068460797FFF70CFC082305446A46314609
:109280003046FFF705FC236A0093636A0193A36AE3
:109290000293A36B0693E36B0793054408236A4686
:1092A00031463046059704970397FFF7F1FB636A51
:1092B0000093A36A0193E36AA26B0293636B039327
:1092C00004920693E26B236A0592054407936A466B
:1092D000082331463046FFF7DBFBE36A0093236B3C
:1092E0000193636B0293236A0693A36A0793054471
:1092F00008236A4631463046059704970397FFF7DF
:109300004FFF236B0093636B0193A36B0293E36B9B
:109310000393636A0693E36A07932D1A08236A4648
:109320003146304605970497FFF73AFF636B009389
:10933000A36B0193E36B0293236A0393636A049321
:10934000A36A0593236B07932D1A08236A463146B7
:1093500030460697FFF724FFA36B0093E36B01935E
:10936000636A0393A36A0493E36A0593636B0793A9
:109370002D1A08236A463146304602970697FFF7B2
:109380000FFF2D1A0D4C0FD435B908223146204657
:10939000FFF7B7FB01280FD008232246314630469D
:1093A000FFF7FEFE2D1AEFE708232246314630462E
:1093B000FFF76EFB2D18F7D409B0F0BD20D90200DD
:1093C00070B5036813F001050646144605D0134630
:1093D0000A460146FFF75CFB054621463046FFF78B
:1093E000C2FE45B104F18042013A56F8223043F002
:1093F000004346F8223070BD2DE9F04115468AB091
:10940000044688462022002102A8FFF723F82E1DDB
:1094100095F9007003232A46414620460293FFF740
:10942000E6FC334602AA214620460097FFF7E3FCFC
:109430002B46424621462046FFF7C9FC009733469B
:1094400005F1840221462046FFF77EFB0AB0BDE805
:10945000F08100002DE9F041194E4FF48271D6F8E9
:10946000040130B11748C268521CC260304602F095
:109470006DFA00254FF4A07707EB85018AB23046DC
:10948000B258BAB189B202F061FA0E48103000EB5E
:109490000514204603F08CFE616819B1204603F0E4
:1094A0000DFE07E0A16811B1204603F007FE206819
:1094B00000B180476D1C022DDED3BDE8F0810000B5
:1094C000001001409823002002F038BB30B54FF067
:1094D0008050D0F83021D0F844125E4BC1F34231B5
:1094E000196000218300C3F80C11C3F81011594B07
:1094F0001B1F1960584B1B68584C2360564B1B1D93
:109500001B68241D2360544B08331B68241D2360F3
:10951000514B0C331B68241D23604F4B10331B68C9
:10952000241D23604C4B14331B68241D23604A4BBD
:1095300018331B68494C20342360474B1C331B688D
:10954000241D2360444B20331B68241D2360424BA1
:1095500024331B68241D23603F4B28331B68241DC4
:1095600023603D4B2C331B68241D23603A4B303362
:109570001B683A4C40342360374B34331B68241D3E
:109580002360354B38331B68241D2360324B3C333A
:109590001B68241D2360304B40331B68241D23604F
:1095A00001240A2A05D1D0F8343113B92C4DFB23FC
:1095B0002B602C4B1B78062B15D12A4B1B1D1B78BF
:1095C0001B0710D1274B08331B78C3F30313032B5E
:1095D00003D0042B01D0052B05D1D0F85832224DF1
:1095E00003F04F032B6021480268D20702D06FF0CE
:1095F000010202604FF01022D2F80002002803DBC3
:10960000D2F80402002821DA194B1C6019480468BA
:10961000002CFCD01524C2F800420568002DFCD0B7
:10962000C2F804420268002AFCD0196001680029CF
:10963000FCD0BFF34F8F10480168104A01F4E0617D
:1096400011430160BFF34F8F00BFFDE70D490C4888
:10965000086030BD3C0500400404001020C50040F7
:1096600018F50040E00F00F0E40E00400004004058
:1096700004E5014000E401400CED00E00400FA05BF
:109680000090D00330240020034808B50021016079
:109690000068009008BD00000001014002E008C819
:1096A000121F08C1002AFAD170477047002001E05C
:1096B00001C1121F002AFBD17047000001212028A0
:1096C00003DA81400548014003E0402802DA2038EF
:1096D000814009B10120704700207047FC06FFBDA2
:1096E000800701D00020704701207047C3688B427B
:1096F00006D811440069491E814201D801207047F3
:109700000020704730B585B00D46164C1621ADF8D7
:1097100000101ECC0DF1040C8CE81E00124C02212E
:10972000012221706270A0700320E0702171592025
:109730006071FE20A071694604F109007DDF0028F8
:109740000ED1BDF800002A46411CE17109212172A9
:10975000BDF808100844ADF8080001A9034872DFFD
:1097600005B030BDD0D5020068280020D0230020ED
:1097700010B586B00624182208496846FEF74FFE49
:1097800069462046FFF7BEFF002805D1044C20782B
:1097900074DF0121207873DF06B010BDE0D5020030
:1097A000D023002070B5104CA66C656A01F0DAFA7F
:1097B000216B08446A1A3144814200D100220823F7
:1097C00000F088FE06000DD101F0CCFA00222946F7
:1097D00000F0C8FBA16A814203D10121A561C4E95F
:1097E0000701304670BD00000040002002F054FB2D
:1097F00002F052FB2DE9F84F254C814692466088D5
:109800000E46814241D800274FF6FF788DF8007050
:10981000684600F075F822786078A188884201DAFD
:10982000401C00E00020C0B2904204D19DF800002E
:1098300000F08AF827E065786078884201DA401CF9
:1098400000E0002060709DF8000000F07DF84545C4
:1098500019D0A068B9F1000F40F835A00DD066B15D
:109860006188E068324605FB01004946FEF7D7FDF6
:10987000A06800EBC500868002E000EBC500878091
:109880000020BDE8F88F0420FBE70920F9E700007D
:109890001024002010B50E4C03E0401C00E0002016
:1098A000207020786178814210D022786188E06849
:1098B000A36802FB010003EBC20153F83220898840
:1098C00090472078A1888842E9DAE6E710BD0000D9
:1098D0001024002030B5CB0008339DB293074FF021
:1098E000000401D0072030BD044B9A602A44DA609E
:1098F0005C701C7058809980002030BD10240020BE
:1099000030B5EFF3108172B60D4A9468012324B18B
:109910000370002900D162B630BD93604FF0E023A0
:10992000D3F88051074C25401560C3F88041D3F827
:10993000844154605A17C3F8842100220270E8E77A
:1099400074470020FC06FFBD0B498A68002A11D02D
:1099500000280FD1EFF3108072B60B684FF0E022B1
:10996000C2F800314B68C2F8043100228A60002836
:1099700000D162B6704700007447002070B51048EF
:109980000146456AC06A8C6CAC2801D024B106E05F
:10999000486B04442D1A02E001F0F8F904462A4607
:1099A00021460848FEF75FFD002807D001F04EF879
:1099B00029462046BDE8704001F00CBB70BD000098
:1099C000004000200080020030B504462C4995B0CC
:1099D0004FF6FF70488001208DF812004FF6596055
:1099E000ADF81000224604A90120A8DF002844D1C8
:1099F000244B0FCB8DE80F00A11C684662DF0028C6
:109A00003BD120491C2260390BA8FEF708FD1E4DF2
:109A1000142205F1C401A8681290A0788DF84A00BC
:109A20002868139006A8FEF7FAFC12A8069013A85F
:109A300007902088231D06AA0BA9AADF00281CD1A5
:109A40001C2205F1D8010BA8FEF7E9FCE86812908A
:109A5000A0788DF84A0068681390142205F1F4018B
:109A600006A8FEF7DCFC12A8069013A80790208831
:109A700004F10C0306AA0BA9AADF15B030BD000043
:109A8000D0230020A8D60200A0D50200F0B585B0F2
:109A9000044614216846FEF7DBFC207803230828DF
:109AA0000BD12748C188491E89B2C1808288002A0B
:109AB0003ED000293CD1C28023702178607860229A
:109AC0008DF800208DF801108DF8020060780321D8
:109AD00001280AD00B2828D100F0A6FC8DF803003D
:109AE000002000F0A9FC04211FE0207809281CD2E6
:109AF000DFE800F01B1B1B201B1B051B2000D4E90B
:109B000002706D46E91C666803F05CFB0446291987
:109B10003046C91C03F056FB044429193846C91CB9
:109B200003F050FB2044C01CC1B2684602F0A4FF01
:109B300005B0F0BDD4E90112684602F08CFFF2E7EF
:109B4000D02300202DE9F0411349034600208A6804
:109B5000D4071ED0114CA3421BD04888A0F57F43E8
:109B6000FF3B10D042F004028A60132176DF002808
:109B70000FD10B4EC8254FF47A47741C3846A047C6
:109B80006D1EFAD101E0087874DFBDE8F04101F004
:109B900071BFBDE8F0810000D0230020ECD90200A5
:109BA000B0D5020038B5214C0021227AD20701D06D
:109BB000084638BDE0601E4800F002FE002000901C
:109BC00001F014FA88B91B4813DF70B901F07CFF6B
:109BD00058B9684601F0C0FE38B96946012001F065
:109BE000C5FE10B9684601F00BFF0028E1D101F075
:109BF000E9FA30B1104801F0D9FAA06840F002004B
:109C0000A06000F02FFC0028D3D10B481C30FFF7D8
:109C1000DBFE0028CDD1FFF7ABFD0028C9D1A0683D
:109C200040F00100A060002038BD0000D0230020DB
:109C3000F4D90200008002008828002070B5044694
:109C4000001D2188674D86B021297CD022DC122995
:109C500054D018DC012977D0102946D011294DD1D4
:109C60004FF6FF706880287A400704D4FFF780FD24
:109C700008B1FFF7BDFDE96800293FD006B002201A
:109C8000BDE87040084713297DD0142975D01A29E2
:109C900034D1A0E0522971D016DC22292ED05029CF
:109CA0002ED051292AD1A079002827D021464E480C
:109CB00002F00AF9002821D006B004F10801BDE83D
:109CC0007040494801F0F4BF552941D0562915D1BB
:109CD000A079002812D11321688876DF00280DD0E2
:109CE00006B0BDE87040FFF783BD00886880E96872
:109CF00009B1012088473D49688875DF06B070BD0D
:109D0000394D34F8060FA9888842F7D1384800F059
:109D10001DFD0600F2D0628904F10C01FEF77FFB05
:109D2000324918227A316846FEF779FB049601958C
:109D30006089ADF81400684601F08CF90028DDD088
:109D400031462B4801E036E03BE000F021FDD5E74D
:109D5000E188F72913D28807B0F1404F10D0C91F0E
:109D600089B2481EC21700EB927222F00302801AD9
:109D7000081A801D81B203E005E026E02BE0F72100
:109D80006888B5DFAAE719486A46163842F6052101
:109D9000806A009002A801906888ADDF08B1FFF7E3
:109DA00027FD00231A46852168887FDF0028A5D07B
:109DB000FFF71EFDA2E700210091008869468FDFB2
:109DC000F4E70021688866DF88E700210A460088FA
:109DD0000B4686DF82E7002300881A461946B1DF6A
:109DE0007CE70000D0230020A4280020B6D5020084
:109DF000F4D90200007800F00100704713B903782D
:109E0000012B01D001F0E9BA012070470022C321E3
:109E100000F5187000F0A6B82DE9F043A1B0044693
:109E2000DDE9289520200F46209098461646782197
:109E300002A8FEF70DFB41212046FEF709FBB7F80B
:109E4000940006EB061107EB8101B04201D991F8AD
:109E5000965025701DB3012D04D0022D0AD0032D7C
:109E600013D116E000224946404600F07BF8C4F8C2
:109E7000010014E020A9601CCDE900014B464246D8
:109E80000A4902A800F096FE48B1002021B0BDE8C2
:109E9000F083B1F89820601C9A31FEF7C0FA4A4668
:109EA0004146204601F099FAF0E70000C8D30200CD
:109EB00010B500284FF0000006D004490870BDE836
:109EC0001040034801F0AAB900F006FA90230020E0
:109ED000D9A2020030B4C0070FD00020084C4FF0C8
:109EE000A0420323215C02EB8101C1F80037401C32
:109EF0000228F7D330BC00F015B830BC7047000022
:109F00009CD302000249085C012101F0D4BC00008E
:109F10009CD302000249085C002101F0CCBC000087
:109F20009CD3020010B500242046FFF7EBFF641C11
:109F3000022CF9D310BD10B543689C18446021B9B8
:109F400005E013F8010B01F8010B521EF9D20120B4
:109F500010BD00000249CA6B4260096C8160704705
:109F600000400020F0B54FF0FF3622B11268D24316
:109F700000230A4D0DE03246FAE7C45C6240082433
:109F8000D70700D037462F4087EA5202641EF7D128
:109F90005B1C8B42F1D3D043F0BD00002083B8EDB1
:109FA00010B504460068401C07D0204602F03AFE77
:109FB0002168814201D1012010BD002010BD0000A8
:109FC00010B50B4C90B0607800280ED100F056FE12
:109FD00020220849684600F071FE40236A4606497F
:109FE000064800F0A1FD0120607010B010BD000017
:109FF000002400205CD30200AC460020E0D3020025
:10A00000F0B5146906468DB020681546271DE0B1ED
:10A01000022920D00A2000906B4609AA304602F09F
:10A02000E9FC00280FD009A901A8009A02F0ECFA77
:10A0300001AE96E80F0005AE86E80F002368696858
:10A040003A4605A898470DB0F0BD0DB03046BDE8C2
:10A05000F04002F04DBB6946304602F0DFFA0028BE
:10A06000F1D0236869683A46684698470028EAD0E4
:10A0700002980028F5D1019870600120E3E7536849
:10A080009B7813F0C00303D0402B03D0002070470F
:10A0900000F002B8FFF7B4BF2DE9FF410B4651684D
:10A0A000064614468878334D00F00F0210F0300059
:10A0B00055F8225006D0102806D0202808D0302885
:10A0C00056D13EE022694DE061690120087047E009
:10A0D000022B28D1042A26D84FF0010869463046C1
:10A0E000676902F09BFA00281AD009E00B892269FF
:10A0F00003FB00226846A84770B13888401C3880AE
:10A10000029820B1616838884A899042EED301985C
:10A110007060029860BB02E04FF00008F7E740462D
:10A1200004B0BDE8F081D4E904300F890288498980
:10A1300007FB02338A421BD2521C02801A46616816
:10A1400010E008886169072A088009D160680189E0
:10A150002069FEF77DF960682169C06802F079FA2C
:10A160002269616804B03046AC46BDE8F041604702
:10A170000020D5E7F8D8020070B51C48012401681A
:10A18000C90301D581130CE0194801681522C9B231
:10A19000B2EBD10F07D10168C90704D0016801F003
:10A1A000560101600024134D286A01281CD14FF488
:10A1B000405011494068884208D123464FF48051ED
:10A1C00005F518706A6BFFF719FE68B100F0CAFD5B
:10A1D000014623460948AA69FFF710FE20B101F0A5
:10A1E000AFFB10F0B10000D0012070BD00040040B2
:10A1F0002005004000400020DBE5B151A1420020D5
:10A200004169002901D0C0680847704710B5082887
:10A2100018D2DFE800F0040F171717041704012005
:10A22000FFF758FE0020FFF76DFEBDE8104001204B
:10A23000FFF770BE0020FFF76DFEBDE81040012063
:10A24000FFF760BE10BD000010B50446032806D01D
:10A25000042C04D0062C08D0072C09D105E00949AC
:10A260004FF4701000F01CFB02E00120FFF720FE0D
:10A2700005484168002903D02046BDE81040084742
:10A2800010BD000065A502009023002010B5044613
:10A29000062802D1002001F069F80448016800296D
:10A2A00003D02046BDE81040084710BDCC23002055
:10A2B00010B5FF224FF400710648FEF7C2F80548BA
:10A2C00020212438FEF7C4F8024900205C390863D5
:10A2D00010BD00005C400020BFF34F8F05480168AF
:10A2E000054A01F4E06111430160BFF34F8F00BFE5
:10A2F000FDE700000CED00E00400FA052DE9FC414B
:10A3000080461F4615460E4600240D4800F010FA00
:10A3100038B11120BDE8FC8106EB043001F0D6FA1B
:10A32000641CAC42F8D1064800F0FFF9CDE90057B3
:10A33000334600220221404600F02AF80020E9E7D7
:10A34000202400202DE9F843104D0F4680461E467C
:10A3500091466946286800F0BCF9040014D01C211D
:10A36000FEF776F801202071C4F81490380BC4F879
:10A370000080C4E902606946286800F0CBF902F069
:10A3800019FB0020BDE8F8830420FBE724D7020076
:10A390002DE9F04387B00446DDE90E8980681D464B
:10A3A00016460F4600280BD018216846FEF750F8D5
:10A3B00002A88DF8007080E86003A16868468847AD
:10A3C00007B0BDE8F08330B50446006887B00D469D
:10A3D000806800281FD018216846FEF739F80195DB
:10A3E000A0680590207910B1012810D107E0012064
:10A3F0008DF8000020690290E068039005E00220DB
:10A400008DF80000E0680003029060690490206805
:10A4100081686846884707B030BD0B2803D30B38E6
:10A42000C0B200F009B870470249002208780A70EB
:10A4300070470000E8230020014908700B20704796
:10A44000E823002001490120087070479023002074
:10A450000149012008707047C82300200123723091
:10A4600000F0E4BF0EB59DF8080020F00F00401C7E
:10A4700020F0F00010308DF8080068466DDF0028ED
:10A4800019D19DF80100401C8DF8010068466CDF71
:10A49000002810D10848007A800703D50748011D1D
:10A4A000806901E006A10C2082B202A87CDF0028AE
:10A4B00001D107487ADF0EBDD02300208828002074
:10A4C0004F72616E676550726F44667500000000E0
:10A4D000B6D502002DE9F04781461D46164688464E
:10A4E000494502D10020BDE8F087A8EB0900040B24
:10A4F00006F6FF704FF0000A070B00F0BBFAA5420A
:10A500002AD22C4628E0A74202D8BA46354601E0B6
:10A51000A246250300225146484600F021FD0028AE
:10A52000E1D1681E00F003002A1A00234146484684
:10A53000D21C00F02BFD0028D5D10948A7EB0A0753
:10A54000761B016BA94429440163A844002000F054
:10A55000F9FE5FEA000AC6D1002ED4D15046C2E708
:10A56000004000200120FFF7A3BC0000014941602A
:10A5700000207047F8D6020010B50B4941600B4827
:10A5800000F0D6F868B901F0EBFA08491C234FF443
:10A59000EE7208740448A1F5EE71001F006800F027
:10A5A00085F8002010BD000028D702006C4900206B
:10A5B00002480068002800D00120704720240020B5
:10A5C0000248007A002800D0012070476C49002022
:10A5D00010B54FF44051144B4C6800F500509C42AC
:10A5E00004D042689A4201D1012200E000229C423C
:10A5F00018D144689C4215D10A78142A01D94969B6
:10A6000000E00021094A0378B1FBF2F1142B01D9D3
:10A61000406900E00020B0FBF2F0814201D001224D
:10A6200000E00022104610BDDBE5B15140420F00B2
:10A6300070B5054608680C464A6886682846314663
:10A6400001F028FF6068286104F10C006861B078AF
:10A650000221B1EB901F01D1241D2C6170BD0000BF
:10A6600010B500224FF48051104600F02DF950B97A
:10A6700008480022C0F5383100F026F918B906481C
:10A6800000F082F908B101F007FC00F0B1F80020F9
:10A6900010BD0000008002000DA2020010B5FDF701
:10A6A00008FE08B1002010BD112010BD10B531B159
:10A6B000B2FBF3F403FB14241CB1092010BD0E20DF
:10A6C00010BD01600021416081608281C381084624
:10A6D00010BD70B50C460546FDF7A0FD002802D060
:10A6E00021882868084470BD10B50A8849888A42C4
:10A6F00003D1FDF7D5FD012010BD002010BD70B5C0
:10A700000C460546FDF7AFFD002802D06188286899
:10A71000084470BD10B50A8849888A4203D1FDF704
:10A7200099FD012010BD002010BD002100F003B8EC
:10A73000012100F006B808B56A46FDF7ECFD009867
:10A7400008BD08B56A46FDF7D9FD08BD38B5044611
:10A7500000258DF800506846FFF7D2F8216862683E
:10A76000086890420ED9401E08600178238AE2688A
:10A7700001FB0325227A2168101AC0B20A798242AD
:10A7800000D208719DF80000FFF7DEF8284638BDBA
:10A7900038B5054600208DF800000C466846FFF7E6
:10A7A000AFF8E868298A201AB0FBF1F12A6810682E
:10A7B000431C136001709DF80000FFF7C5F838BD19
:10A7C00010B530B1017A42680368891AC9B21A60BB
:10A7D00006E00E2010BD03681A68541C1C6011703E
:10A7E000491EC9B2F7D2006800210171084610BDA8
:10A7F00010B54FF0E0224FF0FF314FF48054C2F813
:10A800008011C2F8801200F0FDFB2046BDE8104028
:10A81000AFF3008070B505461E4888B0C0F53C31E6
:10A82000002200F051F800F09DFA1B4900228969CE
:10A830000144104600F048F8EFF30580D5E90045E3
:10A84000C005C00D4FF0FF364FF0000181F31488B2
:10A8500081F3108881F3118881F3138812D02022AC
:10A860000E496846FDF7DBFD203C20226946204664
:10A870000695FDF7D4FDB21F31462046FDF7CAFC10
:10A8800008B070BD08B02A4631462046BDE8704089
:10A89000FDF7C0BC0080020000400020A0D30200F1
:10A8A00070B5084D04460E46686802F081FC002C25
:10A8B00006D0324621466868BDE8704002F06ABCA6
:10A8C00070BD000098230020F0B50A0502D1B0F554
:10A8D0003C3F01D90720F0BD000B491E0C4D01245F
:10A8E00000EB11332E1D0EE04209C2F1000100EB16
:10A8F000411704FA07F102D0012A03D101E02960CF
:10A9000000E03160401C9842EED90020F0BD00000C
:10A910000006004070B5194D0024E86A243501286E
:10A9200007D0A52808D0AA2809D0AC280AD0002032
:10A9300070BDFEF737FF0BE002F0BCF807E0FFF751
:10A940001DF805E002F0B6F808B9FFF717F8012482
:10A95000284600F02BFA0A4900200870094800F048
:10A96000F1FC08B1032070BD0120002CFBD003498D
:10A97000096A0129F7D1022070BD000000400020C3
:10A98000C823002051A4020070B52A4D6860002041
:10A9900000F04AFC80BBFFF7BDFF20B1012828D0A2
:10A9A00002283CD105E04FF47014FFF7E5FB10B925
:10A9B00032E04FF4A02400F05DF81F4A2021182057
:10A9C000FEF788FF08B1FEF713FF00F0B9FF16216C
:10A9D000B1EBD00F09D100F0B3FFC00705D000F0F4
:10A9E000AFFF164920F0B100086000F0F1FA18B985
:10A9F00003E00120FFF75CFA11E011492046FFF760
:10AA00004FFF104800F0CEFA48B900BF00F01EF822
:10AA1000FEF740FF41DFF9E700F0AEFB08B103208D
:10AA200070BD00202870084800F0F8FBFFF7E0FE3A
:10AA3000F5E7000090230020482400201C0500407A
:10AA400065A5020049A2020045A4020010B501F06C
:10AA500027F9002803D0BDE8104002F011BC10BD5A
:10AA6000034A93680A4601469860184602F092BB72
:10AA70009823002070B50E4D2878002817D101F0DA
:10AA80000FF9012690B10B480468A4F54864962C90
:10AA900000DA962402F0F4FB07492046FFF7E0FFB6
:10AAA0004FF0E0214FF48030C1F800012E7070BDEE
:10AAB000C923002004050140BDD20200406880681F
:10AAC000004710B542680830527900F0F7F80020CE
:10AAD00010BD2DE9F04399B01C4690460D4608463E
:10AAE000DDF88090FFF7EAFF6E6807467079A042B4
:10AAF00000D804462246414611A800F01BF972799D
:10AB0000494601A800F0DAF801AB224611A905F187
:10AB100008000097FDF748FE18B1002019B0BDE805
:10AB2000F08348F24250F9E770B516460C460546E8
:10AB300000F0E8F800280ED1AA791946304600F056
:10AB4000EEF8002807D131462046FFF7BAFF00286B
:10AB500001D10149216070BD7052464D2DE9F84F79
:10AB60006C460D46D4E90A68824699461746104954
:10AB7000284600F0BBF80028A54613D16868414676
:10AB800040794200304600F0CAF80028A54609D1B5
:10AB900057B182B04B463A46294650460096FFF7D9
:10ABA00098FFA546BDE8F88F48F21050A546F9E792
:10ABB0007052464D2DE9F0411D46DDE906871646E7
:10ABC000044600F02DF800280DD12A4631462046D3
:10ABD00000F03CF8002806D13A4641462046BDE840
:10ABE000F04100F002B8BDE8F08170B515460E46A0
:10ABF000044602F035FB002807D13EB160682968A1
:10AC0000C268914205D248F2145070BD48F2135008
:10AC100070BD83682A4631462046BDE8704018471B
:10AC200010B550B161B141600968044688470028F9
:10AC300002D105482060002010BD48F2015010BD2F
:10AC400048F2105010BD00006E52464870B51546CF
:10AC50000E46044602F004FB00280BD146B155B164
:10AC600060682A46314643682046BDE87040184770
:10AC700048F2105070BD002070BD00002DE9F04179
:10AC80000B480C4D0C4F401BC608012038700024A7
:10AC900006E000BF55F834008047002805D1641C49
:10ACA000B442F7D3022038700020BDE8F0810000E4
:10ACB0000000000000000000CA23002070B5144608
:10ACC0000D46064600F036F8291930192246BDE82F
:10ACD000704000F02FB830B50C46054600F035F84E
:10ACE00028192146BDE8304000F02FB828B100688F
:10ACF000884205D048F24050704748F210507047E3
:10AD00000020704728B139B10022C1E90020104667
:10AD1000704748F21050704748F21350704720B106
:10AD2000914205D048F21150704748F210507047D8
:10AD3000002070470244521E04E000BF11F8013B9E
:10AD400002F801398242F9D270470144491E05E0F8
:10AD500002780B7800F8013B01F801298142F7D213
:10AD6000704700004FF44050074A4168914207D1B4
:10AD70008068411EC1F30B01401A00F6FF70704756
:10AD80004FF4805070470000DBE5B15100B5FFF78C
:10AD9000E9FF054989690A18401E0844C0F30B0001
:10ADA000101A00F6FF7000BD004000200021016075
:10ADB000416081600148016370470000004000204D
:10ADC0002DE9F0419846214F16460C4605460023D2
:10ADD00001215BB1012B11D0022B1ED00020381AAB
:10ADE000A0F50050A8421BD201221AE0FFF7CEFFC7
:10ADF0008EB11749096A0129F1D00CE0FFF7B2FFC3
:10AE0000B8F1000F05D14FF44051124A4968914200
:10AE100001D00121E3E70021E1E74FF48050DEE7B4
:10AE2000002242EA0400884305D0022B03D25B1CB7
:10AE3000DBB2022BCCD912B10420BDE8F0811BB1EA
:10AE400003481830FFF7B2FF0020F6E70080020049
:10AE500000400020DBE5B15170B5044600780928B8
:10AE600011D2DFE800F01005101125103810130082
:10AE70000D461D490320C9688847606900F03EFB04
:10AE8000FFF7CBFA687070BD084628E00D46A18A2E
:10AE9000206900F00FFBFFF7C0FA68702846FFF743
:10AEA00059F8E1680029EED02069BDE870400847F4
:10AEB0000C460D490831081F00F03AFBFFF7ADFAC8
:10AEC00060700128DFD1002000F03CFA0028DAD0C1
:10AED0000A20607070BD08464FF40071C160BDE883
:10AEE0007040FFF737B80000EC23002070B51A4A15
:10AEF00005780124936C092D2CD2DFE805F02B0591
:10AF00002B0B0F2B252B080000F00AFF22E000F08E
:10AF10007DFF1FE08B60106D48601BE0D2E9145488
:10AF2000566C2C1BA64203D008204870012411E067
:10AF30000024556554642146D36400F02BFF074973
:10AF40000420C968884705E08B60106D48604FF4A5
:10AF50008050C860204670BD00400020EC230020D7
:10AF600013460A460146014800F0D8BB34240020AD
:10AF700008B1034900E003490022034800F0E4BBA4
:10AF800034D7020004D702003424002008B500930F
:10AF900013460A460146024800F06EFC08BD000058
:10AFA00034240020084910B508600020FFF76EF92E
:10AFB000064800F0F5F9002804D1BDE81040034828
:10AFC00000F026B810BD0000CC2300208DA20200A6
:10AFD000002070471FB58908002201AB009283E86A
:10AFE0000700684618DF04B010BD00001FB5044B11
:10AFF0000FCB8DE80F00684618DF04B010BD0000CD
:10B00000B8D602004FF48050410408600020704719
:10B0100010B5040011D00120FFF7AAFF00280BD1C2
:10B0200000F036FA00F0C6FA48B10949081F00F0EE
:10B030007FFA012803D0032010BD072010BD04486B
:10B040000838C4600020FFF7F7F9002010BD0000A9
:10B05000F4230020816819B1024A1821FEF7CABB07
:10B060000720704769B00200AFF3008030B587B0A9
:10B07000044618221F496846FDF7D1F920788DF85B
:10B08000000022781C4D0D2A25D2DFE802F0240BA7
:10B09000270B0B240B240B2424240700E96807202A
:10B0A00088471BE020466946062A01D0012A01D1C3
:10B0B000027C2A702A78012A05D0022A06D00020B4
:10B0C0002870052008E0FFF7C7FE07E0FFF70EFF36
:10B0D00020B907B030BD02208DF80100D4E901127B
:10B0E000684690479DF801000128F2D0E9680520E4
:10B0F0008847EEE7E0D60200EC23002038B105498E
:10B1000001600549416001210172002070470E2055
:10B11000704700001DB1020055B1020010B50C00CF
:10B1200001464FF0110007D02278052A05D2DFE84A
:10B1300002F00F050D0F0F000E2010BD084600F0A5
:10B1400051F80028F9D10221217010BD112010BD45
:10B15000082010BD0246082041B10B78022B04D113
:10B16000022A05D0032A00D1112070470E20704713
:10B17000002003220A70704770B50B480024D0F8F5
:10B180002413491C03D1D0F86403401C09D04FF4A8
:10B190003C35284600F09AFBC9220349284600F0B6
:10B1A000ADFB204670BD00000040002010B528B166
:10B1B0001C220349FDF733F9002010BD0E2010BDFD
:10B1C00064F3020010B5064C00221821201DFEF782
:10B1D000C9FE2168814201D1012010BD002010BDAF
:10B1E00064F3020070B50C4D0400D5F8640305F556
:10B1F000597503D0401C03D0082070BD0E2070BDCF
:10B2000000221821201DFEF7ADFE206007222146F6
:10B21000284629DF70BD000000F00200014901F05E
:10B22000F7BC000000F002002DE9F047FFF7A0FE98
:10B23000002860D13148FEF7B3FE314E074634682E
:10B240002046FEF7ADFE4FF0010A4FF0000958B15D
:10B250006068012806D02046FEF7D8FDD4F85C12BD
:10B26000884201D1012500E00025264C4FF4607191
:10B270004FF002089FB10A4620492046FDF7CFF85B
:10B280009DB1366825465422311D281DFDF7C7F8AB
:10B290004FF4327206F15C0105F15C0003E045B148
:10B2A0000A4618483168FDF7BAF86068012804D0EA
:10B2B0001CE01448FDF7CCF816E01349402201F5D4
:10B2C000E470FDF7ACF810491C22403101F5E47040
:10B2D000FDF7A5F884F8609284F8A1A20B4884F8E1
:10B2E000E292E169C0F82210C4F80480002000F066
:10B2F00029F8002800D00320BDE8F08700F0020004
:10B30000FC230020004000205C41002080420020FF
:10B3100070B50546094801F085FC084C20602046C0
:10B32000FEF774FDC4F85C02A4F5E0632A462146EA
:10B33000BDE87040024801F07ABC000000400020E7
:10B3400000F0020070B505460020FFF7E1FF0400A1
:10B3500003D10349284601F05BFC204670BD000084
:10B36000004000204FF48050704700002DE9F0416C
:10B3700007460948094D401BC6080020044607E05F
:10B3800005EBC400416838468847002802D1641C98
:10B39000B442F5D3BDE8F081F4D90200ECD9020043
:10B3A0002DE9F04107460948094D401BC608002019
:10B3B000044606E055F8341038468847002802D184
:10B3C000641CB442F6D3BDE8F0810000F4D9020059
:10B3D000ECD90200012201F0B9B938B5144602785F
:10B3E0000B467AB1012A04D0022A0DD0032A1BD1C0
:10B3F00012E0D0F80150002221461846FEF7B2FDB7
:10B40000A84211D1012038BD01B02246BDE830402C
:10B410000023401C00F00AB8411C40220020009488
:10B4200000F0F2F80128EED0002038BD2DE9F041FF
:10B43000AAB005462020884628901E4617460124BB
:10B44000782102A8FDF704F8FEF7BAFD2EB12022FC
:10B45000294620A8FFF76EFC20AD28A90A48CDE9AF
:10B4600000013B464246094902A8FFF7A3FB28B961
:10B47000202229460448FCF7F6FF00B100242AB038
:10B480002046BDE8F081000054470020C8D30200E8
:10B4900010B50648064C806B20B101F0ABFD08B139
:10B4A000012000E00020207010BD000000400020BE
:10B4B000002400202DE9F0410F4C07460D46E06BBB
:10B4C000A26B01264119914201D9032610E00A49D5
:10B4D0002A465C3108443946FCF7A1FFE06B064A76
:10B4E0002844E063403229463846FEF73BFD20649D
:10B4F0003046BDE8F08100000040002070B5040037
:10B500004FF0010504D0B4F5007F03D9042508E00D
:10B51000032506E0044900200870FEF7C9FE034831
:10B520008463284670BD00000024002000400020F5
:10B530002DE9F04106461D480F46C16B806B8142E4
:10B5400001D008242FE01A4D287840B1FFF71EFCE7
:10B5500030603946E86801F057FE044623E001F008
:10B5600049FDF8B100F02CF8044600203060386046
:10B57000012C0FD13946E86801F046FE0446012847
:10B5800008D13868012700213B460A46FFF718FC1E
:10B5900018B10424FEF78CFE05E0FFF7F7FB3060DE
:10B5A0002F7000E005242046BDE8F0810040002017
:10B5B000002400200148007870470000002400208B
:10B5C00038B50F4C251D002094F86C310146024619
:10B5D0003BB194F8D802B4F8DA2204F5B87504F552
:10B5E0003771084B9C6800945B6800F00DF80128E7
:10B5F00004D1281DBDE8384000F050B838BD000027
:10B6000080430020002400202DE9F041A2B006462E
:10B6100020200D4620901F461446DDF8A08078219A
:10B6200002A8FCF715FF00202190FEF7C9FC25B108
:10B630002EB1162022B0BDE8F0811320FAE720A930
:10B640001448CDE9000143463A46134902A8FFF7E2
:10B65000B1FA08B9402C01D00A20EBE70D48224688
:10B6600029464038FCF7DBFE0A4820214038FFF726
:10B6700032FB084840214038CDE90001A0F14801E3
:10B68000044A21A8209BFFF769FA08B10520D1E7F9
:10B690000120CFE734470020C8D3020070B504462C
:10B6A00090F85400012570B394F8550028B1012892
:10B6B00003D0022801D003282AD194F86E00032871
:10B6C00001D0142525E0207AE8B1E068342801D0C3
:10B6D00011251EE0204601F039FA68B1207898B1B2
:10B6E00094F855100C4849B1012907D06168C06829
:10B6F00081420ED810250CE012250AE061688068AE
:10B70000814206D2F6E703E094F85500012800D004
:10B710000F25284670BD0000004000202DE9F041B3
:10B720000446406815461E4602680F466A43204696
:10B73000FDF7DCFF206833462A46D0F810C03946B2
:10B740002046BDE8F041604701600B68114618478C
:10B750002DE9F04128B1016819B1C969BDE8F0418E
:10B7600008470D4D0D480024461B14270DE000BF6F
:10B7700004EB840005EB8000016829B1C9698847A2
:10B7800010B10120BDE8F081641CB6FBF7F0A042C7
:10B79000EED80020F6E700003424002048240020E2
:10B7A000044801214174007A08B10020704701204B
:10B7B000704700006C490020012801D0032808D1FF
:10B7C0000449002201284A7400D00020087401F0C6
:10B7D000A3B870476C49002070B50146022801D01B
:10B7E000032943D1224C207A00283FD0012831D0B0
:10B7F00002282FD11F4800230229006802D0032904
:10B8000028D119E0E360027912B1012A22D10BE0BC
:10B81000D0E90565721B142A00D314222A448261E0
:10B820004569AA420ED015E00169491C01614269CF
:10B8300091420FD1237213E0E268521CE260082AA1
:10B8400008D9E360237202290AD00D21FEF7BBFD5F
:10B8500001F058F8607C28B1BDE8704000F086B96E
:10B860000021F3E7BDE8704001F056B870BD00005C
:10B870006C490020242400202DE9F84304461D468D
:10B8800016460F460846DDF82080FDF729FF3046B2
:10B89000FDF726FF2A4639462046FDF727FFCDF85B
:10B8A000008020682B463246D0F80CC0394620462E
:10B8B000E047BDE8F88301224FF0A043824011B178
:10B8C000C3F808257047C3F80C25704709490222C0
:10B8D0000A60BFF36F8FBFF34F8F0A1D10600648D9
:10B8E0000268002AFCD000200860BFF36F8FBFF30E
:10B8F0004F8F704704E5014000E4014070B50E4CE5
:10B9000001232360BFF36F8FBFF34F8F00230B4DD5
:10B9100008E000BF51F8236040F823602E68002E35
:10B92000FCD05B1C9342F5D300202060BFF36F8FE7
:10B93000BFF34F8F70BD000004E5014000E40140FB
:10B9400001480068C0B270471C05004008B50022DD
:10B9500042504058009008BD20B103490968016079
:10B96000002070470E207047CCD80200FEB5064676
:10B970000C460846FFF7F0FF002840D1002500954F
:10B980000195012706208DF80060ADF804000295AE
:10B990008DF8027069462020226869DF00950195C4
:10B9A00002958DF8017069464020226869DF009594
:10B9B0008DF80060F720ADF8020001950295694608
:10B9C0002320226869DF0095019502958DF80070AB
:10B9D00069460120226869DF4FF4B060009001954C
:10B9E00002956946A120226869DF009501950295BC
:10B9F0008DF800506946A020226869DF0020FEBD56
:10BA000060DF002802D1024A012111707047000056
:10BA10002F24002030B51548ADF5017D00780028B1
:10BA200021D04FF4FA7500BFADF8005280A96846E6
:10BA300061DF38B1052816D00DF5017DBDE8304035
:10BA4000FDF7D6BE6C460A497DA800F0BBF806E0BB
:10BA5000D0E90021204690477DA800F0CAF87F98E1
:10BA60000028E1D0F4E70DF5017D30BD2F24002042
:10BA7000D0D80200F8B5134C2078C0B10120A070D6
:10BA800001F098F8112814D0022001F0ABF800253D
:10BA90008DF800506846FDF733FF11DF064625702C
:10BAA0009DF80000FDF750FF2EB13046F8BD08208C
:10BAB000F8BD0020F8BDA57001F054FA032001F094
:10BAC00091F8F6E72C2400207CB5194C207808B1B9
:10BAD00008207CBD0120A070002001F06BF8112827
:10BAE00019D0002001F07EF812480026006801906D
:10BAF0008DF800606846FDF703FF0F4901A810DFCD
:10BB000005000AD0002020709DF80000FDF71CFF02
:10BB10002DB128467CBD00207CBD0120F3E7A67036
:10BB2000667001F03BFA012001F05CF8F3E70000D9
:10BB30002C24002064D80200ED9702000EB50749BE
:10BB4000684600F03FF805E0D0E9001088476846F5
:10BB500000F04FF802980028F6D10EBD80D8020000
:10BB600001480078704700002C24002005488178A7
:10BB700019B1007818B1FFF77DBF08207047FFF7B3
:10BB8000A3BF00002C2400201FB568464BDF30B156
:10BB9000052814D004B0BDE81040FDF729BE0849BF
:10BBA00001A800F00FF806E0D0E9002100989047C6
:10BBB00001A800F01EF803980028E6D0F4E71FBDA6
:10BBC000ECD80200016009684160AFF3008010B555
:10BBD000D0E900215368994201D1002104E0D1E964
:10BBE0000034A34202D01946816010BD0831416083
:10BBF000F0E7816800290BD0026892680A448260ED
:10BC000041684B689A4203D108314160FFF7DFBFBA
:10BC1000704700002DE9F04104461348134BC01A49
:10BC20000C21B0FBF1F6A0694FF0FF3110F8022CA7
:10BC300002B92169002011E000EB400503EB850506
:10BC40002F68974209D14F1C02D06F688F4204D1F0
:10BC500094E80F00AD68A84703E0401CB042EBD366
:10BC600001202060BDE8F08144DA020038DA0200E9
:10BC700010B5144612680830202A02D248F2145037
:10BC800010BD002200F0FBFF0028F9D12020206029
:10BC9000002010BD083001F07BB8083001F038B941
:10BCA00002480068002800D00120704700040140CD
:10BCB00030B587B00C460546182216496846FCF791
:10BCC000AEFB217B14488DF800100195012906D0A8
:10BCD000022915D0062917D1607B049014E08188D1
:10BCE000C180607B0490617CD4F80E0061F31F601A
:10BCF00005900498012807D10848FFF737FB03E0B7
:10BD0000B4F80D108180C1806846FFF7A3F907B031
:10BD100030BD000008D60200D0230020ECD902007C
:10BD20002DE9F0410C460546FFF744FC0826B8B162
:10BD30006969032041B3154A154B0F0505D0576DAE
:10BD4000D3F808C00F4467451ED1B1F5805F01D913
:10BD5000042019E0506DD3F808C04718674502D990
:10BD60006670BDE8F0815164D16C10659164106318
:10BD700069695A6801F6FF711044090B0022FFF748
:10BD8000EFF80028EDD005206070EAE700400020C1
:10BD9000EC23002010B5044686B00020FFF7D8FC45
:10BDA00030B1154A18212046FDF724FD06B010BD1C
:10BDB000182212496846FCF732FB1148026D1148FF
:10BDC00081688A4210D14068FFF704FB8DF80100BA
:10BDD000FEF723FB8DF80100D4E901126846904775
:10BDE0000948FFF7AFFAE1E701208DF80100D4E937
:10BDF000011268469047D9E795BD0200C8D60200F7
:10BE000000400020EC2300208DBE02002DE9F0410F
:10BE10000E460446FFF7CEFB60B11A4DD5E914017A
:10BE2000401AA18A6A6C0844904205D903207070B8
:10BE3000BDE8F0810820FAE7134A286B526887189A
:10BE4000104A20694832FEF78DF8D4E90331804664
:10BE5000A28A3846FFF79AF820B1D4E90310BDE86A
:10BE6000F0410847A18A286B08442863A18A286DFD
:10BE7000C5F8488008442865C6F80880286D7060B9
:10BE8000D6E7000000400020EC23002001490620F6
:10BE9000C9680847EC230020BFF34F8F05480168AD
:10BEA000054A01F4E06111430160BFF34F8F00BF09
:10BEB000FDE700000CED00E00400FA050146014832
:10BEC000FEF766BCF4D9020030B58A1D8B790831C3
:10BED00087B0022B33D153888489A3422FD1127AA1
:10BEE000012A2CD1184C0DF1040C3CCC8CE83C0000
:10BEF0000A89ADF80C204A890C3104911249ADF839
:10BF00000E208039114C096A0591CDF818D0018AAC
:10BF100005AA6088ADDF18B96846FDF76BFF38B138
:10BF20000020ADF8080001A96088B0DF50B106E03C
:10BF300040F2FD10ADF8080001A96088B0DF0020D4
:10BF400007B030BD0120FBE720D60200D02300203F
:10BF5000F8B50D4614460646694600F057FA002823
:10BF60000FD0009BB3F5803F0AD2981C834207D8BC
:10BF7000A9780222B2EB911F02D02989814201D215
:10BF80000020F8BD2380A11C3046009A00F074FB0D
:10BF9000F8BD114600F0D6B8114600F0E3B8F8B588
:10BFA0000C4615460646694600F030FA00280CD0CB
:10BFB000009A501C904207D3A1780223B3EB911F43
:10BFC00002D02189814201D20020F8BD29463046A5
:10BFD00000F052FB009A0021A954F8BD2DE9FF4161
:10BFE0000C46CE6817460546694600F017FB002848
:10BFF0000ED0E06800280BD0A0783A46C0F30110BC
:10C0000002283146684606D000F0DAF801996960E6
:10C0100004B0BDE8F08100F086F8F7E77CB50D4686
:10C020001446694600F08FF9002820D02889082896
:10C0300006D0042809D002280AD001280CD015E027
:10C04000DDE90001C4E900010AE00098206006E093
:10C05000009800B2208002E0009840B22070C11722
:10C06000DDE9002350405940084301D000207CBD49
:10C0700001207CBD7CB50D461446694600F0A1F94F
:10C08000002820D02889082807D00021042809D0BA
:10C0900002280AD001280CD014E0DDE90001C4E92F
:10C0A000000109E00098206006E0009880B220803E
:10C0B00002E00098C0B22070DDE9002350405940F2
:10C0C000084301D000207CBD01207CBD7CB50D461D
:10C0D0001446694600F075F9002821D029890829FD
:10C0E00008D00098C21704290BD002290DD00129CD
:10C0F0000ED014E0DDE90002C4E900020146134657
:10C1000009E0C3170146206005E001B2218001E08B
:10C1100041B22170CB1741405340194301D0002058
:10C120007CBD01207CBD70B50D4606461446114607
:10C13000284600F08EFA224629463046BDE8704077
:10C1400000F03EB838B50C460422694600F094FA77
:10C15000002806D09DF80310009861F31F6020604E
:10C16000012038BD1CB50C460822694600F084FA4F
:10C17000002824D09DF801109DF800209DF8023081
:10C18000080E42EA012242EA034240EA13409DF8C7
:10C1900003309DF8041040EA132008439DF8051071
:10C1A00042EA036240EA01209DF8061040EA01409D
:10C1B0009DF8071040EA0160C4E9002001201CBD81
:10C1C0002DE9F04F04469DB00020009006460190F6
:10C1D0004FF0FF3A0AA800F05DF94FF0010BE94675
:10C1E00082E012AB05AA06A9204600F0C9F850B1BA
:10C1F0000AA8059900F05FF960B10B98807810F0FB
:10C20000300F53D060E09DF84800002870D11DB079
:10C21000BDE8F08F0598B04242D30B9D0AAE0B9853
:10C22000807800F00F00082812D0304600F05AF94C
:10C230000B98A842F3D156460599B14230D3D4F8B1
:10C24000088009919DF8181008910E990D6820E05A
:10C250000B980688F0E729680F682FB1DDE90832EE
:10C2600029462046B84711E011948968DDE9087233
:10C27000098891420CD1294617A8FEF7D9F985F80B
:10C280000CB017AA39461198FDF7F9FE0028BED068
:10C29000AD6815B1A1684145DDD0A168414523D104
:10C2A0009DF81810204600F023FA1BE00C98402857
:10C2B0000AD200F01F010BFA01F00C994A0959F853
:10C2C0002230034349F82230E5682DB10AAB9DF8CE
:10C2D000182020460599A8470AAA9DF8181020465C
:10C2E000FDF7CDFE002892D0A06800287FF479AF3A
:10C2F000DDE90B0485780AA800F0F4F80028F7D1EE
:10C3000015F0300F03D10B98008800B1641CC4B144
:10C310000020494605E000BF51F82020521C0ED1F4
:10C32000401CB0EB541FF7D3600959F8201004F0FB
:10C330001F00C0F120022AFA02F0814201D0002041
:10C3400065E7012063E71CB50C46694600F039F843
:10C35000002814D0DDE90002C10709D051084FEAD6
:10C3600030006FEA00026FEA0100C4E9002004E037
:10C3700051084FEA3000C4E900014FF001001CBD34
:10C38000F8B507460020187008700E4610601C466D
:10C3900015466946384600F039F801004FF00100B3
:10C3A00009D0009959B1C8082860009800F007002A
:10C3B00030700120F8BDB96809B10020F8BD2070C7
:10C3C000FBE72DE9F843002688468146344635468A
:10C3D00004E0402E02D30020BDE8F88369464846B9
:10C3E00000F076F90028F7D09DF80070324607F08B
:10C3F0007F00C10FFCF704F829430443F61D0D46E6
:10C400003806E6D4C8E900410120E5E7F8B50E4654
:10C410000746694600F05CF900280AD09DF8004004
:10C42000200616D5072504F07F0403E0202D01D354
:10C430000020F8BD6946384600F04AF90028F8D0D7
:10C440009DF8001001F07F00A8400443ED1D080690
:10C45000ECD401203460F8BD10B559680B4AC968A6
:10C46000914212D10A4AD0E90110D2E901342343A2
:10C4700001D0002008E011F8013BA0F101001B06EB
:10C48000F9D4C2E901100120907010BD50D402000F
:10C4900000240020C26000230160C0E901138B88E2
:10C4A0001A440261B1F906301A4442610888002832
:10C4B00000D00120704770B545680E46044660689C
:10C4C0000188B14206D1807800F00F00082801D021
:10C4D000012070BD204600F005F86068A842EED14A
:10C4E000002070BD30B541680A885AB101F11003CF
:10C4F00043600A8A42B18C780A89C4F30115032D7E
:10C5000007D00BE0002030BDC2680168FFF7C2FF12
:10C51000F8E79D78C5F30115032D06D00225B5EB8C
:10C52000141F08D14C89624309E08D8804690022F8
:10C53000641B046103E0B5EB941F00D104228978E9
:10C5400011F0300F02D18168491C81609C8801691B
:10C55000214411440161B3F90620114441610120D5
:10C5600030BD30B54168002487B0897801F00F02F2
:10C57000082A11D08A091ED00222B2EB911F09D1DC
:10C580000269C1F301110229146001D0032901D10C
:10C590004069048007B030BD0069056808E02C736D
:10C5A00029466846FEF744F86846FFF7DAFFAD68AB
:10C5B000002DF4D1EEE7C1F30111012912D00229B7
:10C5C000E6D00329E4D04268917801F00F010729F1
:10C5D0000BD0D16881B11289006907B0BDE8304045
:10C5E000FBF71DBF41690C70EDE70169D06807B02A
:10C5F000BDE8304000F02DB81189006907B0BDE8F2
:10C600003040FBF725BF000010B5034B002408C0E5
:10C6100080E8160010BD0000379F020038B50D46B7
:10C6200004466946FFF7F2FE00280BD0D4E9000269
:10C63000D4E90213C5E90002C5E90213009881425A
:10C6400001D2002038BDA860A168081AA0600120AE
:10C6500038BD00B50A4687B001466846FFF71AFFA5
:10C66000002807D06846FFF77CFF6846FFF73AFFCF
:10C670000028F7D107B000BD7FB514460546A9B91B
:10C68000124A2868904208D110E0102269462846D4
:10C69000FFF7F2FF002807D0103C102CF5D82246F7
:10C6A00069462846FFF7E8FF04B070BDA868A042BD
:10C6B00001D20020F8E72B68224628469847002838
:10C6C000F2D0A868001BA8600120EDE7379F0200A8
:10C6D00010B504468068002809D02368012220464E
:10C6E0009847002803D0A068401EA060012010BD1C
:10C6F00038B5002439B1012912D0022912D00529F8
:10C700001DD0002038BD0546012269462846FFF7A6
:10C71000B3FF90B19DF800000006F5D4012038BDAC
:10C7200008220DE005466946FFF770FE28B100219A
:10C730002846009AFFF7A0FF38BD204638BD0422E6
:10C74000BDE838400021FFF797BF00002DE9F04F0A
:10C7500081462C4817460E46C5680A4693B0012408
:10C7600049462846FDF77AFEDFF89C80A24670B164
:10C7700095F8550068B100F00101C0F340024B4646
:10C780002846CDE9006700F043F8D8B11BE0172434
:10C7900019E0CDE9006A4B460022294602A8FDF7C0
:10C7A0003BFB4FF0000B68B10FB3412202A91748C1
:10C7B000FBF735FEC8F820B0C8F82CA06968C8F8A7
:10C7C000081017E005246FB1012C13D00E48243057
:10C7D000FEF7ECFAFDF76CFDC8F8489013B0204660
:10C7E000BDE8F08F012C02D0FDF762FDF6E7C8F836
:10C7F00014A0F3E7002231464846FDF7B3FBC8E931
:10C800000960E7E70024002000400020A14200204A
:10C810002DE9F047A4B08946DDE92C5A0446984634
:10C820001646442102A8FBF713FE442113A8FBF788
:10C830000FFE4746B9F1000F24D008F500512E4BEA
:10C840004A68A06D9A4241D18A68411EC1F30B012A
:10C85000401A41F6FF710844824237D34046FDF743
:10C86000B7FE00B18EB30121A06DCDE900014346B2
:10C870000022214602A8FDF7CFFA002827D0A06D9C
:10C8800007442D1A56B10020CDE9005002463B4620
:10C89000214613A8FDF7C0FA002818D0BAF1000FFE
:10C8A00028D0164DB9F1000F19D04046FDF790FE83
:10C8B00018B105F11800FEF779FA412202A91048D3
:10C8C000FBF7ADFD36B1AC2005E0FFE7002024B05A
:10C8D000BDE8F087A520E862A06D686301E0AA20AA
:10C8E000E8623EB10648412213A98230FBF797FD6A
:10C8F0006068E8600120EAE7DBE5B1510040002014
:10C9000060420020034802490068FDF7EDBE0000C8
:10C910002824002024D702002DE9F041224C0025D4
:10C92000224E207A012730B92148311D0068FDF7D9
:10C93000E6FE306038B1022020723168087928B1F3
:10C9400001281CD114E06560BDE8F081D1E9050340
:10C95000C01A142800D31420B7EB900F01D282081C
:10C9600000E001220869C9681844194429DF03E07E
:10C97000D1E90301084428DF58B1112812D003215E
:10C980003068FDF720FD25726560BDE8F041FFF7D6
:10C99000B9BF207C0028D7D1BDE8F041002102209A
:10C9A000FEF71ABF2772CFE76C490020242400202D
:10C9B00024D7020010B5074C201DFDF7B9FE002852
:10C9C00006D1607C002803D1BDE81040FFF7A4BF6A
:10C9D00010BD00006C49002010B510461A46FBF748
:10C9E0001EFD002010BD10B510461A46FBF717FDBE
:10C9F000002010BD2DE9F0411E681C461546074673
:10CA000021B1012918D0052923D119E00020206087
:10CA1000401C2060B0421CD8012229463846FFF74E
:10CA20002BFE002806D015F8010B000601D5206862
:10CA3000EEE70120BDE8F08108200246186002E020
:10CA400004200246186029463846BDE8F041FFF749
:10CA500013BE0020EEE770B516460A460446C11C18
:10CA6000104600F0AFFB054661193046C91C00F0C6
:10CA7000A9FB284470BD000003B5094A85B0D2E97E
:10CA80001612CDE9001207498989ADF8001006A9F0
:10CA9000CDE90210044869464088AEDF07B000BD0A
:10CAA000A0D50200A4280020D0230020084670470B
:10CAB0000846704770B5FEF755FC114A114E136BCE
:10CAC000546B916CE21A551EC5F30B05521B42F2D2
:10CAD000040518446D5802F6FF72B54201D00320D8
:10CAE00070BD1944A34201D1002070BD0823FDF799
:10CAF000F1FC0028F9D1BDE87040FEF723BC00002E
:10CB000000400020DBE5B151F0B5054600200346AA
:10CB10004FF440540C4E4FF6FE7712E0D4F804C0A8
:10CB2000B44505D155F823C0B4F80CE0F44504D061
:10CB30002AB155F823C0BC4501D10120F0BD5B1CD2
:10CB4000DBB28B42EAD3F0BDDBE5B15110B54FF457
:10CB50004051174B4A68018A9A4221D171B100F1C4
:10CB60001403426990F8550062B1042808D00022ED
:10CB7000BDE81040C9B21846FFF7C6BF002010BD7F
:10CB80000122F5E710B1012808D1F7E7012905D9FD
:10CB9000C9B200221846FFF7B7FFEFE7012010BD2A
:10CBA00011B141690029E9D100780028F6D110BD02
:10CBB000DBE5B1513EB5044609496846FFF702F886
:10CBC00008E000BFD0E900212046904730B1684618
:10CBD000FFF70FF802980028F4D13EBD11203EBDAA
:10CBE00068D802003EB5044608496846FEF7EAFFE9
:10CBF00007E000BFD0E90021204690476846FEF7D5
:10CC0000F8FF02980028F5D13EBD000074D802005C
:10CC100002460348014B006800F009B8803C002040
:10CC2000FC23002000225821001DFDF79BB92DE9AF
:10CC3000F04114464FF460751E460F4680462A4662
:10CC4000FBF711FC30B1002201214046FEF788F9C4
:10CC500098B905E00CB10020A0470020BDE8F081A4
:10CC60002A4639463046FBF7DAFB23462A46314648
:10CC70004046FEF78BF90028F0D00320EEE770B5B0
:10CC800016460D46040007D035B1206C80220021E5
:10CC90003828225403D307E00E2070BD2154401CD5
:10CCA0003828FBD30BE02154401C4028FBD32146FD
:10CCB000084600F097F838212046FBF7C9FB216CA5
:10CCC000D4E912304A0FC900383459185041C4E928
:10CCD0000410227CE2710A0A42EA0062A2710A0C84
:10CCE00042EA00426271020242EA11602071606908
:10CCF000E070010AA170010C6170000E04F838099F
:10CD00002146084600F06EF84FF00002EEB1E06EEA
:10CD1000D100C840A854A36ECB40A8180371636E1D
:10CD2000CB400372236ECB400373E36DCB4003749F
:10CD3000A36DCB400375636DCB400376236DCB4071
:10CD4000521C0377042AE2D31FE018235042216DBE
:10CD500003EBC000C140A954666DC640A9180E710E
:10CD6000A66DC6400E72E66DC6400E73266EC640B6
:10CD70000E74666EC6400E75A66EC6400E76E66EE2
:10CD8000C640521C0E77042AE0D3002070BD00007C
:10CD9000A8B100210164C0E912110A4901650A49DC
:10CDA00041650A4981650A49C1650A4901660A491E
:10CDB00041660A4981660A49C166002070470E2013
:10CDC0007047000067E6096A85AE67BB72F36E3C88
:10CDD0003AF54FA57F520E518C68059BABD9831F46
:10CDE00019CDE05B2DE9F04FC8B0002213466F4625
:10CDF000CC181B1D2568E4782DBA25F0FF052543C6
:10CE000047F82250521C102AF2D31BE007EB820194
:10CE100051F8083C4FEA734484EAF34484EA9324CB
:10CE200051F83C3C4FEAF31585EAB34585EAD30354
:10CE3000234451F81C4C51F8401C2144194447F834
:10CE40002210521C402AE1D3036D4793416D469155
:10CE5000846D4594C26D44929246026E4392456E33
:10CE60004295A946856E4195C66E4096B34600260A
:10CE70004FEAB21787EAF22787EA726C02EA0907DB
:10CE800025EA020887EA0807BC44204F57F82680A5
:10CE900008EB0B07BC445DF82670AB460CEB070EA5
:10CEA0004FEAB30787EA733787EAB35C81EA04077E
:10CEB0004D4601EA040891461F400AEB0E02A246C5
:10CEC00087EA08070C46BC441946761C0EEB0C0397
:10CED000402ECDD3479E33440365469B194441659C
:10CEE00045992144816544995144C1654399114450
:10CEF00001664299494441664199294481664099B5
:10CF00005944C16648B0BDE8F08F000054D7020014
:10CF10002DE9F04116460F46040004D006B317B1C0
:10CF20000025A8461AE00E20BDE8F081216C785D4E
:10CF30006054206C401C206440280ED121460846D5
:10CF4000FFF750FFD4E912014FF40072801841F14D
:10CF50000001C4F84080C4E912016D1CB542E5D35C
:10CF60000020E1E710B51620FCF7A8FB48B10A48FD
:10CF700082684FF4800152B1016821F480010160A0
:10CF800010BDBDE8104042F20100FCF731BC4FF08B
:10CF9000E020C0F8801110BD7447002010B51620A5
:10CFA000FCF78CFBA0B1114890F800044009082858
:10CFB00011D20121814011F0EC0F0CD00C48826895
:10CFC0004FF480016AB1016841F48001016010BD35
:10CFD00042F2010001E042F20200BDE81040FCF71D
:10CFE00007BC4FF0E020C0F8001110BD16E000E0D3
:10CFF000744700207FB52A4800F15C01826B6846C7
:10D00000FFF702FB274E9DE8070006F11C03274CA3
:10D0100083E8070019462448C8600020A0706060BB
:10D02000A0604FF44771A6F54070FBF711FAA6F522
:10D0300040721F4902F54770FFF775F800282BD0A2
:10D04000A07858B3A6F5407090F86C1100290178CB
:10D050001CD019BB90F8720100B3D4E90112A6F5F7
:10D06000C6756846FFF7D0FA9DE80F001C3686E8C3
:10D070000F004FF4B2712846FBF7EAF92A460D4932
:10D080003046FFF750F8002806D003E031B1807930
:10D0900020B1094D0120E56004B070BD0020FBE720
:10D0A000004000208046002059C4020000240020D7
:10D0B00070D5020050D402008843002070B50346AA
:10D0C0006FF07F40814200D20846124DD5F804250A
:10D0D0000244081A411E22F07F425860952902D26C
:10D0E0009630963A58601C7B05EB8400C0F84025CA
:10D0F00009494FF4F86088474FF4A07000EB8401B1
:10D100002846FEF723FC4FF48030A040C5F8040306
:10D1100070BD000000100140C1D3020070B5184E70
:10D12000307800282AD1174800680125C0F3004054
:10D1300008B915480560154C4FF480712046FEF77C
:10D1400005FC4FF4A0712046FEF700FC4FF4A271DD
:10D150002046FEF7FBFB0E49A02081F800044FF0AB
:10D16000E0224FF400310020C2F80011C4F8080595
:10D17000A56025600220C4F80403357070BD00006E
:10D1800098230020180400400800004000100140CF
:10D1900011E000E070B515460E460446FFF7BEFFED
:10D1A000314620462560BDE87040FFF787BF00008C
:10D1B000017B4FF4803088400149C1F80803704773
:10D1C000001001400870020A4A70020C8A70000EBA
:10D1D000C87004207047000010B50248FDF7A5FA9A
:10D1E000002010BD2024002010B514210448FBF7B6
:10D1F0002FF904480068FDF751FA002010BD000027
:10D200006C49002024D7020030B50F2490F8553027
:10D2100000220BB1042B03D190F86450012D06D0ED
:10D22000DD0707D090F85650012D02D002E0826E43
:10D230000DE0826D9B070AD590F85C30012B06D17A
:10D24000064B006EC3F53833984205D802440AB144
:10D2500001240A60204630BD0424FBE70080020060
:10D2600030B100680549884205D048F20250704745
:10D2700048F2015070470020704700006E52464847
:10D2800070B5FEF70DFD002811D00020084A094BAB
:10D29000094C0121166801FA00F52E4203D004EB77
:10D2A0008005C5F80036401CC0B20728F2D370BD17
:10D2B000080501403546526E00000140FFF7E0BF0F
:10D2C00000207047002070472DE9FC4180461C4635
:10D2D00017460E460C48089DFDF72AFA10B111209A
:10D2E000BDE8FC81A20839463046FEF707FB064838
:10D2F000FDF71BFA33463A4601214046CDE9004589
:10D30000FDF746F80020EBE7202400202DE9F84F38
:10D31000114D884681461E4617466946DDF828A00D
:10D320002868FDF7D6F9040013D01C21FBF790F80C
:10D3300000202071C4F80090C4E90486C4E902A763
:10D3400069462868FDF7E6F9FFF734FB0020BDE8E1
:10D35000F88F0420FBE7000024D70200E4A529335E
:10D360003E15347CC37C01B2ABD37AFE664FA20576
:10D37000FE68CEF542B29F0BE848E9FB368AE84CDE
:10D380001DA7306352DC1F7E34421E24BA0866B1EA
:10D39000B6A68979010D4747B5FB49CF04050000C2
:10D3A000000000000000000000000000000000007D
:10D3B00000000000FFFFFFFF000000000000000170
:10D3C0000738FDD87047000095BC02009BBC0200E6
:10D3D00071BC020020000000780000000000000086
:10D3E0004800280000204000A18702000000000043
:10D3F000010001000000000001000000000000002A
:10D4000002000500010000002200000000000000F2
:10D41000000000000000000000000000000000000C
:10D4200001000100000000000100000000000000F9
:10D4300002000500010000004200000000000000A2
:10D4400000000000000000000000000000000000DC
:10D45000010011000400FCFF0400000000000000B7
:10D46000020011000400FCFF0400000000000000A6
:10D47000030021000400FCFF040010000000000075
:10D48000040011000100FFFF010000000000000087
:10D49000050011000200FEFF040000000000000073
:10D4A000060011000400FCFF040000000000000062
:10D4B000070011000400FCFF040000000000000051
:10D4C000080017000200FEFF24000000F0D3020055
:10D4D000090010000100FFFF01000000ECD3020072
:10D4E0000A0027000200FEFF4400030020D40200CF
:10D4F000000000000000000000000000000000002C
:10D50000010011000100FFFF010000000000000009
:10D51000020017000200FEFF6401000050D4020068
:10D5200000000000000000000000000000000000FB
:10D5300001000700000000006801000000D50200A3
:10D5400002000100000000000100000000000000D7
:10D550000300050001000000420000000000000080
:10D5600000000000000000000000000000000000BB
:10D57000010017000400FCFF6801000000D5020054
:10D58000020017000400FCFFAC01000030D50200CF
:10D59000000000000000000000000000000000008B
:10D5A0000011030000111300020000000100000040
:10D5B0000738FDD870470C000C000000580200002E
:10D5C0000200000000000000020000000000000057
:10D5D0006828002009000000000000000000000092
:10D5E0000100000000000000280000000000000012
:10D5F0000000000000010000000001000000000029
:10D60000000000000000000000000000000000001A
:10D610008D9A0200000000000000000000000000E1
:10D6200002000000000001000000000000000000F7
:10D6300008000000000000008D9A0200BDBE02003C
:10D6400000000000000000000400000000000000D6
:10D6500000000000000000000000000000000000CA
:10D6600000000000000000000000000000000000BA
:10D67000F40000000000000018000000000000009E
:10D68000000000000000000000000000000000009A
:10D69000000000000000000000000000000000008A
:10D6A000170000000000000050EADA308883B89FBD
:10D6B000604F15F30000C98E02000000000000005A
:10D6C0000000000000000000040000000000000056
:10D6D000000000000000000000000000000000004A
:10D6E0000001000000000000000000000000000039
:10D6F0000000000000000000001000000400000016
:10D70000010000006DA50200D9D10200D9C90200B4
:10D71000C9D20200FDA20200ADCA0200C1D20200BD
:10D72000B1A50200804700200010000004000000A6
:10D730000100000079A50200E9D10200E7C902005A
:10D740000DD3020045A30200B1CA0200C5D20200F7
:10D75000C1A50200982F8A4291443771CFFBC0B512
:10D76000A5DBB5E95BC25639F111F159A4823F92AC
:10D77000D55E1CAB98AA07D8015B8312BE85312405
:10D78000C37D0C55745DBE72FEB1DE80A706DC9BC6
:10D7900074F19BC1C1699BE48647BEEFC69DC10F72
:10D7A000CCA10C246F2CE92DAA84744ADCA9B05CAE
:10D7B000DA88F97652513E986DC631A8C82703B071
:10D7C000C77F59BFF30BE0C64791A7D55163CA067F
:10D7D00067292914850AB72738211B2EFC6D2C4D8B
:10D7E000130D385354730A65BB0A6A762EC9C28179
:10D7F000852C7292A1E8BFA24B661AA8708B4BC20F
:10D80000A3516CC719E892D1240699D685350EF438
:10D8100070A06A1016C1A419086C371E4C774827EF
:10D82000B5BCB034B30C1C394AAAD84E4FCA9C5B65
:10D83000F36F2E68EE828F746F63A5781478C884B6
:10D840000802C78CFAFFBE90EB6C50A4F7A3F9BE98
:10D85000F27871C610DA020018DA02000000000047
:10D86000000000000100000754D8020064D8020044
:10D87000080000008CD802009CD8020008000000BC
:10D880009CD80200ACD802000800000030DA020088
:10D8900038DA0200000000000000000020DA020078
:10D8A00030DA02000000000000000000000000006C
:10D8B00000000000000000000000000008DA020084
:10D8C00010DA020000000000000000009023002099
:10D8D000ACD80200CCD802000800000018DA020020
:10D8E00020DA02000000000000000000DCD8020086
:10D8F000ECD8020008000000CDC0020075C0020094
:10D900001DC0020093BF020099BF020051BF020078
:10D910009FBF0200DDBF02000000000008200001E0
:10D92000FFFFFFFFFFFFFFFFFFFFFFFF0000000003
:10D93000000000000000000001000000FFFFFFFFEA
:10D94000512563FCC2CAB9F3849E17A7ADFAE6BCA1
:10D95000FFFFFFFFFFFFFFFF00000000FFFFFFFFD3
:10D9600096C298D84539A1F4A033EB2D817D037779
:10D97000F240A463E5E6BCF847422CE1F2D1176B14
:10D98000F551BF376840B6CBCE5E316B5733CE2BE7
:10D99000169E0F7C4AEBE78E9B7F1AFEE242E34F16
:10D9A0004B60D2273E3CCE3BF6B053CCB0061D6553
:10D9B000BC86987655BDEBB3E7933AAAD835C65ADC
:10D9C0004B860200F99302001592020044DA02002D
:10D9D00090230020B80000009C960200FCDA0200B0
:10D9E00048240020382D0000AC960200A59B0200C0
:10D9F000459B0200E0230020B8280020C928002011
:10DA0000CC280020F40000003D9C02000000000033
:10DA1000A1B7020000000000D9B70200000000001A
:10DA200015BA02000000000089BB020000000000DF
:10DA3000B9B7020000000000000000000300000071
:10DA4000FDB0020000000000000000000000000027
:10DA5000A8230020B82300200000000000000000E0
:10DA600000000000000000000000000000000000B6
:10DA700000000000000000000100000000000000A5
:10DA800000000000FF00FFFF000000000000000099
:10DA90000000000000000000000000000000000086
:10DAA0000100000000000000000000000000000075
:10DAB00000E0020000000000000000000000000084
